:02000002B0004C
:1040000000400B0008880B00000006000D000502B0
:084010000401A30F00000000F1
:04401800047F0B0016
:10401C0009480A49884208B505D0094A824202D0AB
:10402C00121A03F0A1FD0748074A0021121A03F0E7
:10403C00C3FD014808BD00BF58DE032068870B0094
:10404C00D0DE0320D0DE0320EDE7032070B5074E51
:10405C00074C03F0DBFCA41BA4080025AC4200D1E8
:10406C0070BD56F8043B98470135F7E714870B00F1
:10407C0038870B0000F02ABB08B500F077F8BDE8D4
:10408C00084003F07BBC01F001BB01F0FFBA01F06A
:10409C0005BB000008B5034A03490C2001F00AFADD
:1040AC00FEE700BF41530B00187F0B000078B0FAFD
:1040BC0080F0400970470123037070477047006A15
:1040CC000368DB681847000010B5034B0360044617
:1040DC0000F06AFB204610BD90820B0010B5044620
:1040EC00FFF7F2FF204640F24C71FFF7D0FF20465D
:1040FC0010BD00000A4B10B50446036002F064FAD0
:10410C00214602F09CFC03F0F1FB03F0E3FB20469C
:10411C00044B40F8043B02F02DFB204610BD00BFC1
:10412C0078820B0060820B0010B50446FFF7E2FFAB
:10413C0020462421FFF7ABFF204610BD0EB400B57E
:10414C008CB00DAA4FF0200C52F8041B0392CDE951
:10415C0000120023016804AA1E20CDE904C301F05B
:10416C00B1F90CB05DF804EB03B070477047000078
:10417C002DE9F0410B78D1E90157042B96BF104A79
:10418C00104E52F82360ADF5826D0C46416804ABBD
:10419C00A7EB050842462944184603F0E5FCE36802
:1041AC000949002200F80820CDE9007302902B4643
:1041BC0006483246FFF7C2FF0DF5826DBDE8F0816F
:1041CC0098820B002D7F0B00357F0B00B8E6032087
:1041DC0070B5084904460848FFF7B0FFD4E9055606
:1041EC00B54205D229462046FFF7C2FF1035F7E746
:1041FC0070BD00BF597F0B00B8E6032070B5D0E945
:10420C0000531426044606FB0356AE4204D028463F
:10421C0003F030F91435F8E7206801F03FFA204636
:10422C0070BD37B51D4601AB044600F087FC20B1CC
:10423C0001992A46204600F0A5FB03B030BD37B5E6
:10424C001D4601AB044600F079FC20B101992A46C9
:10425C00204600F055FC03B030BD00002DE9F043C2
:10426C00B3B03E493E4E3F4FDFF820810AA803F021
:10427C004CF93D493D48FFF761FF394800F007FB19
:10428C003B4A014609AB364800F058FC0025099919
:10429C002A46304600F01DFB014650B935493348DB
:1042AC002A46FFF74BFF0AA803F0E4F833B0BDE849
:1042BC00F0830AAB3A4605903046FFF7C0FF0599EC
:1042CC0006AB42463046FFF7ACFF2B4A059907ABCD
:1042DC003046FFF7A6FF0599284A08AB3046FFF792
:1042EC00A0FF079A069CDDF82890D3170EA803F0C0
:1042FC00CBF9089B02930E9B214A8021CDE90093B8
:10430C0012A8234601F0EAF90EA803F0B3F81748F7
:10431C0012A9FFF713FF01F039F9D8B1194B1A495B
:10432C001B788DF8003012AA3C230EA801F0F6FB86
:10433C000F9C7CB16368013B63605BB923682046CA
:10434C009B689847A368013BA3601BB92368204670
:10435C00DB68984701350A2D99D1A4E7FF830B0040
:10436C0014DF032018800B00F1800B00B8E603204B
:10437C00697F0B0015810B0058800B006F7F0B00C1
:10438C0034810B0000DF032066810B0003800B00DF
:10439C0037B504461546019100F0F4FC0199012251
:1043AC00204600F05DFC20463A2100F00DFC04494B
:1043BC002A46204603B0BDE8304000F044BC00BFA4
:1043CC0031810B008842F8B504460D46164616D9C5
:1043DC00904215D2A2F11406751AA1F114072C44BF
:1043EC00B7421CD02CB13146204603F0BFF8337CC9
:1043FC002374304603F03EF8143E143CF0E70ED024
:10440C00B5420CD02CB12946204603F0AFF82B7CDA
:10441C002374284603F02EF814351434F0E7F8BD55
:10442C002DE9F0410023C0E9003383604F689F42BF
:10443C0004460E4623DD4FF0140808FB07F001F08C
:10444C0025F90546D8B1D4E9001208FB0212FFF792
:10445C00B9FF206801F022F92560A760D6E9007346
:10446C0008FB0378B84508D03946284603F098F87D
:10447C003B7C2B7414371435F4E773686360204667
:10448C00BDE8F081F0B52F4B2F4D8FB001221A7083
:10449C000024CDE90244049403F028FA02A906464C
:1044AC0005A8FFF7BDFF2F4605A908A8FFF7B8FF21
:1044BC00264B47F8043B08A90BA8FFF7B1FF0BAA42
:1044CC001E21384602F09EFB0BA8FFF797FE08A8AA
:1044DC00FFF794FE1E4B2B6005A82E62FFF78EFE95
:1044EC001C4B2B6003F002FA4FF4165103F0EEF95B
:1044FC0002F06AF8294602F05BFA02A8FFF77EFE8A
:10450C001549164803F001F8154B164A9A60C3E991
:10451C0000440320144C00F0F5FF3223009304F107
:10452C002C0104F22C434FF48062204600F094F9E5
:10453C000E4B0F490F4823600FB0BDE8F04002F05E
:10454C00E4BF00BF00DF0320D0DE032060820B003D
:10455C0038840B0078820B006F810B0004DF032082
:10456C00F4DE03200000FFFF14DF032090820B0019
:10457C00FF830B0060E603202DE9F0419AB0464919
:10458C00464FDFF83481064602A802F0BEFF4348CE
:10459C0000F07DF9424A014601AB404800F0CEFAEA
:1045AC0001240199621E384600F093F90546E0B1EA
:1045BC00014602AB42463846FFF741FE314602A89F
:1045CC0003F02FF870B1374A344806AB2946FFF791
:1045DC0028FE9DF8184002A802F04CFF20461AB0A5
:1045EC00BDE8F08101340B2CDBD12C490AA800F07A
:1045FC00EDFB22462C492D48FFF7A0FD274800F083
:10460C003BF901460AA800F0F3FB7D227B210AA8A6
:10461C0000F0C3FB22460AA82549FFF7B9FE25493D
:10462C0006A802F0BDFF0AA800F0ACFB01220AA804
:10463C00214900F015FB0AA83A2100F0C5FA0699A9
:10464C0001220AA800F00CFB06A802F013FF03F0ED
:10465C0074F805460AA800F095FB01220AA8174930
:10466C0000F0FEFA0AA83A2100F0AEFA2A460AA88F
:10467C00134900F0E8FA134B13491A680AA8FFF71C
:10468C0087FE0AA800F0AEFA0AA800F00CFE0AA8F1
:10469C00E4B200F075F89EE7FF830B0014DF0320F3
:1046AC00697F0B0088810B0093810B00B8E6032017
:1046BC0003800B0004DF032018800B0058800B00D4
:1046CC00BD810B0058DE03206F7F0B0038B5104DF9
:1046DC00104C4FF4FA6001F041F828460E49FFF7F0
:1046EC002DFD0E495022204600F099F8204600F08E
:1046FC008DFD0B4B1868FFF73FFF2046FFF768FD59
:10470C00FFF7ACFD07492846FFF718FD38BD00BF81
:10471C00B8E6032014DF0320C1810B00D0810B000D
:10472C0004DF032021820B0010B5054B0360037CD2
:10473C0004461BB9406808B100F0B0FF204610BD1C
:10474C00BC820B0010B50446FFF7EEFF2046142187
:10475C00FFF79DFC204610BD10B5034B03600446CB
:10476C00FFF7E2FF204610BDDC820B0010B50446BB
:10477C00FFF7F2FF20463021FFF789FC204610BDE1
:10478C0010B5034B03600446FFF7E6FF204610BD4F
:10479C00EC820B0010B50446FFF7F2FF20464021D7
:1047AC00FFF775FC204610BD10B5074B0360037C6A
:1047BC0004461BB9406908B100F070FF2046FFF7B2
:1047CC00B3FF204610BD00BFCC820B0010B50446D1
:1047DC00FFF7EAFF20462C21FFF759FC204610BDBD
:1047EC00034A02600022C0E90122C26002747047D1
:1047FC00BC820B0038B5037C04460D460BB100207F
:10480C0038BD406838B100F051FF0028F7D0C4E93A
:10481C0001050120F4E7084600F038FFF5E770B514
:10482C00C3680E461546D1184268044672B18268B8
:10483C008A420BD36068E3682A463146184403F079
:10484C0093F9E2682A44E260012070BD2046FFF72C
:10485C00D1FF0028EED1F8E710B5C0E90112002213
:10486C00C260012202744361024A029B0260C3616E
:10487C0010BD00BFCC820B00D0E90503834204D9E4
:10488C000278022A02D01030F8E700207047D0E9F5
:10489C000503984204D20378012B18BF00207047FF
:1048AC000020704770B513689D68136803F11004FD
:1048BC0014608669B4420AD29B698C68A34201DAFF
:1048CC00AB42F2DDA342CCBF0020012000E000206F
:1048DC0070BD73B501F11003044616460193002513
:1048EC000198A36983420BD982688B689A4207DAD4
:1048FC00B54206D001AA20460135FFF7D3FFEFE7FA
:10490C00002002B070BD2DE9F341089D984601F1DD
:10491C00100304461746019300260198A3698342AD
:10492C001AD982688B689A4216DAAE420BD138607B
:10493C0001AA2046FFF7B6FF28B1019BC8F800304A
:10494C0002B0BDE8F08101AA2046FFF7ABFF20467C
:10495C000136FFF7A7FFE0E70020F1E7F0B5013BD8
:10496C000024D1E90176F61BA64208DDA34206DD40
:10497C0045683D442D5D02F8015B0134F1E70023ED
:10498C001370F0BD1FB5144610236A46FFF7E6FFFF
:10499C0004492246684600F099FE431E584258418D
:1049AC0004B010BD31810B0010B5044600680B46F5
:1049BC0028B102F029FEE3680133E36010BD6068A2
:1049CC000028F8D0D4E90221013A8A4288BF435426
:1049DC00F1E703467F2B37B50846D9B204D803B0AC
:1049EC00BDE83040FFF7E0BF01F03F01B3F5006FC9
:1049FC00C3F3871541F0800407D245F0C001019044
:104A0C00FFF7D2FF01982146E9E71B0B43F0E001C9
:104A1C000190FFF7C9FF05F03F01019841F08001BB
:104A2C00EEE700002DE9FF4700244E68DFF8CCA02C
:104A3C0080460F461546A146B868B0425ADDD8F8F4
:104A4C000430995D9A19002C4BD0752905D86D2925
:104A5C0007D862291ED066291ED02846FFF7A4FF6E
:104A6C003DE0A1F16E04072CF7D80FF2080C5CF8AE
:104A7C0024F000BFA94A0B00674A0B00674A0B00E1
:104A8C00674A0B00AD4A0B00674A0B00B14A0B009A
:104A9C00B54A0B000821E0E70C21DEE70A21DCE730
:104AAC000D21DAE70921D8E7311D884217DD02A96B
:104ABC0004333344084612F8014F01F8014B9A4273
:104ACC00F9D101AA51468DF80C9000F0FFFD012898
:104ADC0005D1BDF804002946FFF77BFF05360024FD
:104AEC0004E05C2904D02846FFF75EFF0136A3E7FB
:104AFC000124FBE7012004B0BDE8F087A0830B0084
:104B0C007FB50C4606460C491046154602F053FD7F
:104B1C00D4E90131C91A0131284602F0C9FC00233D
:104B2C006A4621463046CDE9013300950393FFF7E1
:104B3C0079FF04B070BD00BFFF830B002DE9F0437B
:104B4C0089B00546884604A812491646994602F0D3
:104B5C00DCFC002700974B4603AA41462846FFF78A
:104B6C00D2FE044670B1039904AA2846FFF7C8FF89
:104B7C00044608B90137EDE7314604A802F051FDAF
:104B8C000028F7D004A802F075FC204609B0BDE857
:104B9C00F08300BFFF830B0000230122C36043613D
:104BAC00028380F82A30704708B50346FFF718FED9
:104BBC00044A1A604FF0FF321846DA62FFF7ECFF36
:104BCC0008BD00BFDC820B00D0E9022310B5934274
:104BDC003FBF42685C1CC460D15424BF012380F8E1
:104BEC002A3010BD10B54369044643B100EB4303B2
:104BFC00597E09B1FFF7E8FF6369013B6361D4E9B2
:104C0C000210636888424FF000022ABF5B181A54E6
:104C1C0003F8012C10BD70B50446D0E9025066684B
:104C2C002D1A134630440A46294600F05FFD854292
:104C3C002DBFE368A368E360C01836BF0123E060B2
:104C4C0084F82A3070BD0EB403B503AA52F8041BC5
:104C5C000192FFF7E0FF02B05DF804EB03B0704780
:104C6C002DE9F84304460E46174612B12221FFF7F0
:104C7C00ABFFDFF80C810025715D06EB05090029FF
:104C8C0074D0D4E902329A4270D20B0634D501F0BA
:104C9C00F003E02B05F101091DD116F8092002F0F3
:104CAC00C003802B39D105F1020916F8093003F045
:104CBC00C000802831D103F03F03920143EA013355
:104CCC0002F47C621A4392B241462046FFF7BBFFC6
:104CDC004D460135D0E701F0E003C02B1DD116F88D
:104CEC00093003F0C002802A17D1890101F4F8625F
:104CFC0003F03F031A43E7E70D290AD807290CD91B
:104D0C00A1F10803052B08D8DFE803F009231707E6
:104D1C00111D222923D05C2921D0204604E05C21DE
:104D2C002046FFF751FF6221FFF74EFFD1E75C21D0
:104D3C002046FFF749FF6621F6E75C212046FFF786
:104D4C0043FF6E21F0E75C212046FFF73DFF722107
:104D5C00EAE75C212046FFF737FF7421E4E75C218A
:104D6C002046FFF731FF99F80010DDE72FB1204600
:104D7C002221BDE8F843FFF727BFBDE8F88300BF49
:104D8C00AC820B00426900EB42031A7E12B1002286
:104D9C001A7670472C21FFF717BF73B54369019141
:104DAC000133082B16460FD8FFF7ECFF4369019926
:104DBC0000EB43045A1C01254261A576E676FFF709
:104DCC0003FF284602B070BD0020FBE710B5044677
:104DDC00FFF7EAFE054B23604FF0FF320023C4E9D6
:104DEC000D232163E363204610BD00BFEC820B0052
:104DFC0070B5436B013304460E4629D18D68016BA7
:104E0C00013D4563CB685A1B826388682844C31AEA
:104E1C00002AE36304DD48684119184402F0B2FE2D
:104E2C00226B616B5268E36B0A445B1A0125C4E97F
:104E3C00012320462574FFF7AFFE636903F10C02D2
:104E4C00F368B3FA83F35B0904F81230284670BD9B
:104E5C000020FCE72DE9F04F44684FF0010C4FF0B7
:104E6C00FF36D0F800E0964580F0B98111F80E803D
:104E7C00B8F1000F00F0B381B8F13A0F00F0988050
:104E8C0033D8B8F1220F00F0A68010D8A8F1090889
:104E9C005FFA88F8B8F1170F0DD89F4D0CFA08F887
:104EAC0018EA050F07D0056801350560D9E7B8F198
:104EBC002C0F00F03381D0F8008042450ED911F848
:104ECC0008505DB13A2D00F269811F2D00F251811D
:104EDC000A2D00F26081082D40F25681002B40F023
:104EEC00628108F1FF350560A5E0B8F17B0F37D082
:104EFC002ED8B8F15B0F33D0B8F15D0FDBD1002B9E
:104F0C00D1D04FF002094568013D03EB0518002D87
:104F1C0055DBD8F8047001374DD0D8F808A0BAF199
:104F2C00FF3F48D198F800B0CB454BD10EF1010EA4
:104F3C00C0F808A0C8F808E003EB051EDEF8047002
:104F4C00013742D0DEF8087001373ED18560AAE700
:104F5C00B8F17D0FAFD1002BA5D04FF00109D2E7EE
:104F6C000134002B9FD04568099FAF424AD905F107
:104F7C00010EC0F804E003EB051ECEE901664FEA12
:104F8C00051A0025CEF80C5085686F1C1FBF03EB6B
:104F9C000519D9F80C500135C9F80C50B8F17B0F34
:104FAC000CBF0125022503F80A500568CEF8045001
:104FBC004568013DCAE7013DA8F11008A7E7013596
:104FCC007FF471AF6FF001041EE0013D6F1CAEF178
:104FDC00100EB3D167E70EF10109C0F80090D0F8BC
:104FEC000080424540F2938011F80850002D00F0EB
:104FFC008E80222D30D1F3B14568099FAF4206D87F
:10500C00C0F800E04FF0FF342046BDE8F08F05F10A
:10501C00010E4FEA051803EB0515C0F804E0C5E9CD
:10502C0001660027EF60D0F800E04FF0030A03F8A8
:10503C0008A0C5E9019E85686F1C04F101043FF4CA
:10504C0032AF002B3FF42FAF03EB051EDEF80C50F4
:10505C000135CEF80C5026E75C2D11D108F1010575
:10506C00AA420DD905604D5D752D2BD86D2D0BD831
:10507C00662D27D85B2D1DD8222D01D02F2D21D1A7
:10508C00056801350560AAE76E3D072D1AD801A702
:10509C0057F825F08D500B00D1500B00D1500B0060
:1050AC00D1500B008D500B00D1500B008D500B00CC
:1050BC00D7500B005C3DEDB20CFA05F540F24147C0
:1050CC003D42DDD1C0F800E07CE708F10205056047
:1050DC004FF0040AD0F80080424503D80568013D22
:1050EC000560CDE711F80850002DF7D0A5F1300B75
:1050FC00BBF1090F04D925F02005413D052DE1D860
:10510C0008F10105BAF1010A0560E3D1E6E7C0F840
:10511C0000E06FF0020477E713008000002B3FF4EF
:10512C00C2AE85686F1C3FF4BEAE2D015D5D013DC6
:10513C00012D7FF6B8AE456805F1FF3803EB051E6F
:10514C00B8F1000FFFF6AFAE1EF8105C013D012D5B
:10515C000AD85EF80C5C013506D05EF8085C0135A7
:10516C0002D1C0F808809EE608F1FF38AEF1100EAF
:10517C00E6E7A5F12009244F5FFA89F90CFA09F941
:10518C0019EA070F7FF4AAAE203D5E2D9AD808F1DC
:10519C00010505608FE60D2DF6D19FE605F0DF09C0
:1051AC00B9F15D0FF8E74568099FAF427FF628AF6C
:1051BC0005F101084FEA051903EB0515C0F8048049
:1051CC00C5E901660027EF60D0F800804FF0040AB3
:1051DC0003F809A0C5E901E80568013D83E6002B49
:1051EC003FF412AF4268511E03EB02130029FFF685
:1051FC000BAF53F80C2C013203D053F8082C0132AE
:10520C0087D00139103BF1E701100004F7B5C268F3
:10521C00044612B9002003B0F0BD436900F120062A
:10522C00ABB10021C0E908114FF0FF318162C169B7
:10523C00009141683046FFF70DFE431C28D1257CB8
:10524C00002DE7D1606900F029FA6561E561002560
:10525C004FF0FF37C4E90855E2686168A762009512
:10526C002B463046FFF7F6FD0028D3DBE06117D064
:10527C00000100F00BFAE269606103460092C4E998
:10528C000855E2686168A7623046FFF7E3FD01E06C
:10529C000028BFDB636903EB0010A0610120BAE7B3
:1052AC006369A361FAE738B5436B5A1C044618D0FE
:1052BC00826B002A08DD016BE5684868E16B2B44C2
:1052CC000144184402F05EFCD4E90C23A16B0B449E
:1052DC00E1680B44D360206BFFF798FF4FF0FF336E
:1052EC00636338BD08B5024B1B685B6C019308BD4A
:1052FC004802030008B5024B1B689B6C019308BD68
:10530C004802030008B5024B1B68DB6C019308BD17
:10531C004802030008B5024B1B685B6D019308BD86
:10532C004802030008B5024B1B685B68019308BD7B
:10533C001802030008B5024B1B68DB68019308BD1B
:10534C001802030008B5024B1B685B69019308BD8A
:10535C001802030008B5024B1B689B6D019308BD36
:10536C001802030008B5024B1B685B6E019308BD65
:10537C001802030008B5024B1B685B69019308BD5A
:10538C006402030008B5024B1B689B68019308BDBF
:10539C006802030008B5024B1B68DB68019308BD6B
:1053AC006802030008B5024B1B689B68019308BD9B
:1053BC003C02030008B5024B1B68DB68019308BD77
:1053CC003C02030008B5024B1B681B69019308BD26
:1053DC003C02030008B5024B1B685B69019308BDD6
:1053EC003C02030008B5024B1B689B69019308BD86
:1053FC003C02030008B5024B1B68DB69019308BD36
:10540C003C02030008B5024B1B689B6A019308BD64
:10541C003C02030008B5024B1B68DB6A019308BD14
:10542C003C02030008B5024B1B681B6C019308BDC2
:10543C003C02030008B5024B1B681B68019308BDB6
:10544C004C02030008B5024B1B685B68019308BD56
:10545C004C02030008B5024B1B689B68019308BD06
:10546C004C02030008B5024B1B681B69019308BD75
:10547C004C02030008B5024B1B685B69019308BD25
:10548C004C02030008B5024B1B689B69019308BDD5
:10549C004C02030008B5024B1B68DB69019308BD85
:1054AC004C02030008B5024B1B681B6A019308BD34
:1054BC004C02030008B5024B1B685B6B019308BDE3
:1054CC006002030008B5024B1B685B6D019308BDBD
:1054DC006002030008B5024B1B68DB6E019308BD2C
:1054EC006002030008B5024B1B681B6F019308BDDB
:1054FC006002030008B5024B1B681B68019308BDD2
:10550C002002030008B5024B1B685B68019308BDC1
:10551C002002030008B5024B1B685B69019308BDB0
:10552C002002030008B5024B1B68DB6C019308BD1D
:10553C002002030008B5024B1B685B6D019308BD8C
:10554C002002030008B5024B1B689B6D019308BD3C
:10555C002002030008B5034B1B68D3F88830019375
:10556C0008BD00002002030008B5034B1B68D3F8EC
:10557C009430019308BD00002002030008B5024BD3
:10558C001B689B68019308BD4402030008B5024BDD
:10559C001B685B69019308BD4402030008B5024B0C
:1055AC001B681B6A019308BD4402030008B5024B3B
:1055BC001B681B6B019308BD4402030008B5024B2A
:1055CC001B68DB6B019308BD4402030008B5024B5A
:1055DC001B685B68019308BD4002030008B5024BD1
:1055EC001B689B68019308BD4002030008B5024B81
:1055FC001B68DB68019308BD4002030008B5024B31
:10560C001B681B69019308BD4002030008B5024BDF
:10561C001B685B69019308BD4002030008B5024B8F
:10562C001B689B69019308BD4002030008B5024B3F
:10563C001B68DB69019308BD4002030008B5024BEF
:10564C001B681B6A019308BD4002030008B5024B9E
:10565C001B681B6B019308BD4002030008B5024B8D
:10566C001B685B6B019308BD4002030008B5024B3D
:10567C001B681B6C019308BD4002030008B5024B6C
:10568C001B685B6C019308BD4002030008B5024B1C
:10569C001B681B68019308BD1C02030008B5024B74
:1056AC001B685B68019308BD1C02030008B5024B24
:1056BC001B689B68019308BD1C02030008B5024BD4
:1056CC001B681B69019308BD1C02030008B5024B43
:1056DC001B685B69019308BD1C02030008B5024BF3
:1056EC001B68DB69019308BD1C02030008B5024B63
:1056FC001B685B6A019308BD1C02030008B5024BD2
:10570C001B68DB6A019308BD1C02030008B5024B41
:10571C001B681B6B019308BD1C02030008B5024BF0
:10572C001B68DB6B019308BD1C02030008B5024B20
:10573C001B681B6C019308BD1C02030008B5024BCF
:10574C001B685B6C019308BD1C02030008B5024B7F
:10575C001B68DB6C019308BD1C0203000021FFF7E2
:10576C00D9BE10B5836804460BB902F0C5F9C368FD
:10577C009847A3681BB10322214620469847204630
:10578C001021BDE81040FEF782BC10B583680446BA
:10579C0013B1032201469847204610BD10B543684B
:1057AC00013B0446436063B903689B689847A36850
:1057BC00013BA3602BB923682046DB68BDE8104091
:1057CC00184710BD70B5D0E90053044605EB03161D
:1057DC00AE4204D0284601F04DFE1035F8E72068A3
:1057EC00FFF75CFF204670BD10B50446006808B199
:1057FC00FFF7D4FF204610BD13B50B460246D0E987
:10580C0000016C4684E8030093E8030082E803007F
:10581C0094E8030083E8030002B010BD02480023A3
:10582C000360FFF75FBD00BF70E6032000224068F5
:10583C001146FFF7E3BE002240681146FFF7FEBE9B
:10584C00002240681146FFF709BF40680022FFF7AD
:10585C00FDBE4068002281F00101FFF7E7BE002386
:10586C0040681A461946FFF7D9BE002340681A460D
:10587C001946FFF7CBBE002240681146FFF7AEBEBB
:10588C00406800220221FFF7B1BE002340681A468F
:10589C00FFF79CBE084B10B5282422461846002161
:1058AC0002F08AF9054B04804FF0FF32426004226B
:1058BC005A60034A1A6010BD7CE6032074E603208C
:1058CC00FC820B0070470020704710B51021044675
:1058DC00FEF7DDFB204610BD08B5FFF7F6FF08BD4F
:1058EC0030B500224FF69C74026084808D888C80C9
:1058FC000C68858004600A6030BD10B504460068F1
:10590C00FFF7CCFE204610BD38B5C468F4B123783F
:10591C00022B03D104F10C00FFF7EFFF656835B1E2
:10592C002846FFF732FF10212846FEF7B0FBA5688A
:10593C0035B12846FFF729FF10212846FEF7A7FBB3
:10594C0020461421BDE83840FEF7A1BB38BD0B68DA
:10595C0003604B68436013B15A6801325A60704758
:10596C0037B5044668460D46FFF7F1FF009B019AD8
:10597C0023606260002301A801930093FFF734FFBA
:10598C0035B1281DFFF730FF08212846FEF77FFBB5
:10599C00204603B030BD826810B50AB902F0ACF8ED
:1059AC00BDE81040C368184708B5006800F1100145
:1059BC00FFF7F1FF08BD826810B50AB902F09CF838
:1059CC00BDE81040C368184708B5006800F1100125
:1059DC00FFF7F1FF08BD000038B500230446036053
:1059EC0010200D46FEF74FFB28B10123C0E901330F
:1059FC00024B0360C5602060204638BD38830B0025
:105A0C0038B5002383608B6804460D462BB1022207
:105A1C009847EB68E360AB68A360204638BD000094
:105A2C00F0B589B004686846FFF75AFF4FF00203DF
:105A3C00D4E84F2F002A03D1C4E8413F0029F7D105
:105A4C0025D104F10C0569462846FFF749FFBFF341
:105A5C005B8F01236370002004F10803BFF35B8F9D
:105A6C0053E8006F43E80002002AF9D1BFF35B8FC3
:105A7C006EB1FFF757FD78B129463046FFF78BFF23
:105A8C003046FFF782FE10213046FEF700FB6846D9
:105A9C00FFF733FF09B0F0BD314602A8FFF7B0FFA6
:105AAC00E068B4F9105008B102F0E6F80690102046
:105ABC00ADF81C50FEF7E7FA0546E8B10027876001
:105ACC001820FEF7E0FA044688B10146876002A868
:105ADC00FFF792FE049BA268A360059B049206A9A3
:105AEC00E268E36004F110000592FFF7F9FE084B41
:105AFC00EB60084B2C60AB6006A8FFF7FEFE02A81B
:105B0C00FFF743FE002229460348FFF713FDB7E7D2
:105B1C00B5590B00395C0B006F570B002DE9F04F9A
:105B2C008BB005469DF850A00F4690469946FFF75E
:105B3C002DFD07AE834638BB4FF62E73059005A995
:105B4C003046ADF81830FFF7CBFE1420FEF79BFA69
:105B5C00044648B1022303700123C0E901BB437022
:105B6C0031460C30FFF7BCFE2846214640F8044B6A
:105B7C00FFF732FF3046FFF7C0FE05A8FFF7BDFE6A
:105B8C0028460BB0BDE8F08F0C2300241420CDE97F
:105B9C0008440793FEF777FA014618B1C0E90144AF
:105BAC000470447004A80391FFF716FF1E4B089372
:105BBC000820FEF768FA044610B103A9FFF7C7FEE8
:105BCC0000965FFA8AF34A46414638460994FFF735
:105BDC00E5FCB8B9039B5B7803F0FF0293B94FF671
:105BEC009C7305A903A80592ADF81830FFF718FFB0
:105BFC0005A8FFF782FE05A80999FFF7B1FE06A8D4
:105C0C00FFF7F2FD03A905A8FFF7A1FE059B069A75
:105C1C002B606A60002306A806930593FFF7E4FD4A
:105C2C0004A8FFF7E1FDABE7B55C0B00012AF8B562
:105C3C00054603D10B6803600020F8BD022A10D082
:105C4C00032AF9D10468002CF6D004F11000FFF7F8
:105C5C0054FE2046FFF799FD18212046FEF717FA4F
:105C6C00EAE718200E68FEF70EFA044650B13146EA
:105C7C00FFF7C6FE3069B6F9147008B101F0FCFFED
:105C8C002061A7822C60D7E738B5002383608B682E
:105C9C0004460D462BB102229847EB68E360AB68D3
:105CAC00A360204638BD0000F0B589B004460D460F
:105CBC0001A81146FFF754FEA4B124B21DB1284629
:105CCC0001F0DAFF054601A803A90395ADF81040D1
:105CDC00FFF7A6FE03A8FFF710FE02A8FFF784FD4E
:105CEC0009B0F0BD019D0123D5E84F2F002A03D147
:105CFC00C5E8413F0029F7D1EFD12B73BFF35B8F80
:105D0C006B702B1DBFF35B8F53E8006F43E80042B1
:105D1C00002AF9D1BFF35B8F002EDED02046FFF7AF
:105D2C0001FC074660B105F10C013046FFF743FE5C
:105D3C003046FFF72AFD10213046FEF7A8F9CCE7D4
:105D4C00314603A8FFF7A0FF2B7B8DF81C301020E9
:105D5C00FEF799F90546D0B187601420FEF793F948
:105D6C00044678B18760014603A8FFF745FD059B03
:105D7C00A268A360069B0592E268E3609DF81C3064
:105D8C0006922374064BEB60064B2C60AB6003A8A9
:105D9C00FFF7FBFC002229460348FFF7CBFBC7E7C4
:105DAC00D5590B00B95D0B006F570B00012A70B56C
:105DBC00044603D10B680360002070BD022A0CD08E
:105DCC00032AF9D10468002CF6D02046FFF7DDFC3D
:105DDC0014212046FEF75BF9EEE714200E68FEF75F
:105DEC0052F9054620B13146FFF74EFF337C2B7438
:105DFC002560E1E7002240681146FFF71FBC002236
:105E0C0040681146FFF72ABC40680022FFF71EBC11
:105E1C004068002281F00101FFF708BC00234068B4
:105E2C001A461946FFF7FABB002340681A46194672
:105E3C00FFF7ECBB002240681146FFF7DFBB0022E6
:105E4C0040681146FFF7CABB406800220221FFF7E9
:105E5C00CDBB002340681A46FFF7B8BB024B0322A8
:105E6C005A60024A1A607047A4E6032054830B0060
:105E7C00704710B518210446FEF709F9204610BDED
:105E8C00F0B5037D062B8DB00E4600F104074FF0E4
:105E9C00000412D000F1080515F8011D0A22304645
:105EAC0001F093FAAF42044419D0002CF4D02E2107
:105EBC00304601F07BFA0444EEE72F236A4639465C
:105ECC000A208DF80040FFF755FA684601F0F1FE04
:105EDC0033680246DB6869463046984704462046DC
:105EEC000DB0F0BD10B5054B0446112240F8043B33
:105EFC00002101F061FE204610BD00BF90830B0015
:105F0C000346074A10B543F8042B01F1100251F86F
:105F1C00044B43F8044B9142F9D10A781A7010BD26
:105F2C0090830B0010B59DF8084044EA032343EA24
:105F3C00024242EA016104234160037510BD000076
:105F4C0007B5064B0360CB7800938B784A780978B9
:105F5C00FFF7E8FF03B05DF804FB00BF90830B0074
:105F6C0000F11003012213F8101C0129184608D166
:105F7C0053F8041C02EB4102013A03F11003F2D175
:105F8C007047022904BF53F8041C5218F4E70EB4EE
:105F9C00F0B588B000AF07F13405102155F8042B8B
:105FAC007A6004462B467818FD60FFF79FFB0F289C
:105FBC007A681AD900F1080323F007036E46ADEB9B
:105FCC00030D411C2B466846FD60FFF78FFB021E3C
:105FDC0004DD236869469B6820469847B546203700
:105FEC00BD46BDE8F04003B070470028F7D02368E9
:105FFC0002469B6807F1100120469847EFE738B539
:10600C000B6803604D6843689D42044608D015B187
:10601C006B6801336B60606808B1FFF7BFFB6560AC
:10602C0038BD07B503688DF807109B6801220DF188
:10603C000701984703B05DF804FB0B46114600229C
:10604C0010B5C0E90022044683600BB9204610BD90
:10605C00FFF7D5FFFAE78368EBB11A78032A1AD851
:10606C00DFE802F00417021B0520704702685B682A
:10607C005268D05C2D2812D0A0F13003092B0ED918
:10608C0074280ED066280CD0A0F16E0358425841EB
:10609C00704706207047002070470420704703208B
:1060AC0070470220704710B50446FFF7D4FF022852
:1060BC000ED0C31EDBB2012B14D82268A368506823
:1060CC005B68BDE810400A220021184401F0A4BE10
:1060DC002268A36852685B68D05CA0F174035842D4
:1060EC00584110BD0020FCE738B50023C0E900334F
:1060FC0004460E48C4E90203A9B10B78032B06D061
:10610C008BB9136858684B68C35C6E2B07D0136847
:10611C004D6858688B6828445B1BA060E36011468F
:10612C002046FFF76CFF204638BD00BFFF830B00F5
:10613C0038B500250B46C0E90055C0E90255C0E949
:10614C000455044611464BB11A78012A06D103F1C5
:10615C001002DB6882604361FFF751FF204638BDB7
:10616C0010B54369044663B18068E060013B1030B0
:10617C00A0602061636113B1FFF7F2FEA060012003
:10618C0000E0184610BD10B57D210446FFF749FF0D
:10619C0001232371204610BD08B50379012B02D0D1
:1061AC00022B04D008BD2C21FFF73BFFFAE73A2164
:1061BC00FAE710B50446FFF7EFFF20467B21FFF707
:1061CC0030FF00232371204610BD000013B5044698
:1061DC000191FFF7E1FF2368019ADB680349204630
:1061EC00984701232046237102B010BD31810B006A
:1061FC0013B504460191FFF7CFFF2368019ADB68C2
:10620C0003492046984701232046237102B010BD54
:10621C009C830B002DE9F0470D4622219046044645
:10622C00FFF7FFFEDFF8A490A8442F464745BA4677
:10623C003DD017F8016B222E06D05C2E04D03046D0
:10624C0001F08AFC0028F1D12368AAEB05029B68B7
:10625C002946204698475C212046FFF7E2FE0D2E8A
:10626C000AD8072E1CD9A6F10803052B18D8DFE88D
:10627C0003F00D0F11171315222E01D05C2E0FD128
:10628C0031462046FFF7CDFE3D46CFE76221F8E7C9
:10629C007421F6E76E21F4E76621F2E77221F0E74C
:1062AC0023683246DB68494620469847ECE7BD42F6
:1062BC0005D023687A1B9B682946204698472221E3
:1062CC002046FFF7AEFEBDE8F08700BF9F830B00B2
:1062DC0013B50446CDE90021FFF75EFF2046DDE94A
:1062EC000021FFF797FF02232046237102B010BD57
:1062FC0013B50446CDE90021FFF74EFF2046DDE93A
:10630C000021FFF787FF01232046237102B010BD47
:10631C0080680368DB6818477047084611B10B6842
:10632C005B6818477047704770477047704738B5BF
:10633C0004460D4600682E2101F081FC2368C31A27
:10634C002B6023B1037803B1013023682060184619
:10635C0038BD10B50C210446FDF799FE204610BD42
:10636C0010B504210446FDF792FE204610BD10B571
:10637C0004210446FDF78BFE204610BDFEF7C2BF7C
:10638C0008B501F066FCB0FA80F0400908BD704712
:10639C0010B50C4601F0AAFA844210D001F084FB2F
:1063AC00844205D101F080FBBDE8104001F039BA00
:1063BC002CB1236820465B68BDE81040184710BD1F
:1063CC000B6803604B68436013B15A6801325A6022
:1063DC00704713B504460846019101F06AFC019917
:1063EC000246204602B0BDE81040FFF781BF13B54E
:1063FC0004460846019101F05CFC23680199DB68B6
:10640C000246204602B0BDE81040184707B50368A5
:10641C008DF80710DB6801220DF10701984703B0D6
:10642C005DF804FB0EB403B503AB002153F8042B49
:10643C00006A019300F0E7FF02B05DF804EB03B0D3
:10644C0070470A6802604A6842600022C0E9022272
:10645C0010B502618C688460CC68C4600C698A6079
:10646C00CA6004610A6110BD2DE9F74FD0E90084C0
:10647C004FF0140A00930AFB04F4184BA4101746AF
:10648C005C434546002C21DD66100AFB06F005EB4B
:10649C0000093A46B9F804B0285801915F4528BF65
:1064AC005A4601F00EFC002801994FF001030BD164
:1064BC005F4503D1009A13703446E3E7FCD9A61B61
:1064CC0009F11405013EF7E7F9DBF5E7A5EB080543
:1064DC000248AD10684303B0BDE8F08FCDCCCCCCF6
:1064EC007FB50369057E019103B3F9B1002600F174
:1064FC000C04039603A901A8FFF719FF0146A8B1E4
:10650C000DF10B03039A8DF80B602046FFF7ACFFDF
:10651C009DF80B3053B12368142404FB0034083469
:10652C0034F9023C002BA8BFDDB2E3E7284604B0E7
:10653C0070BD000010B5094C2378BFF35B8FDB07EF
:10654C0009D42046FDF7B2FD28B12046FDF7B3FD76
:10655C00034801F0FBFA034810BD00BFB0E603206E
:10656C0033630B005CDE032010B5094C2378BFF3BA
:10657C005B8FDB0709D42046FDF798FD28B1204638
:10658C00FDF799FD034801F0E1FA034810BD00BF87
:10659C00B4E603209B630B0060DE032038B50025B6
:1065AC000446C0E90055C0E904558560856140F892
:1065BC00245FFEF797FEFFF7BDFFE061FFF7D4FF06
:1065CC0025732062204638BD10B50A4C2378BFF3E2
:1065DC005B8FDB070CD42046FDF768FD40B1064805
:1065EC00FFF7DCFF2046FDF766FD044801F0AEFA2C
:1065FC00014810BDACE60320BCE60320296B0B0060
:10660C00024A034903480023FEF76CBF0D690B00D7
:10661C0099680B0019680B0000231A461946184696
:10662C00FEF760BF37B58D6804466846FFF7C8FEB5
:10663C006A4629462046FFF77BFD01A8FFF7D4F8F0
:10664C00204603B030BD37B5CD6804466846FFF729
:10665C00B7FE6A4629462046FFF746FD01A8FFF71C
:10666C00C3F8204603B030BD37B50D690446684603
:10667C00FFF7A6FE6A4629462046FFF7DEFC01A876
:10668C00FFF7B2F8204603B030BD000070B58AB0F9
:10669C000D46014604A8FFF7C5FF144E04A8FFF7EA
:1066AC005FFDE8B104A96846FFF7CDFF02983146BB
:1066BC00FFF766FE044610B12C1E18BF012401A87A
:1066CC00FFF792F8002CE9D004A96846FFF7CCFF3D
:1066DC006846FFF7E8FC286001A8FFF785F8DDE7BE
:1066EC0005A8FFF781F80AB070BD00BFA5830B00A9
:1066FC0037B50C4620461349154601F0AAFA50B995
:10670C0001F0F4F84FF4165101F0E0F803B0BDE8D5
:10671C00304001F0EBB80C49204601F09AFA78B9F8
:10672C004FF4165301A928460193FFF7AFFF01F070
:10673C00BBF9019901F072F801F0B6F903B030BD64
:10674C000020FBE7AA830B00B1830B0070B5D0E9E6
:10675C0000531426044606FB0356AE4205D005F141
:10676C000800FFF7F3FF1435F7E72068FEF796FFF4
:10677C00204670BD10B504460C30FFF7E7FF2046ED
:10678C00FFF720F8204610BD10B5044B044640F826
:10679C00043BFFF7EFFF204610BD00BF60820B00EB
:1067AC0010B50446FFF7F0FF20462421FDF76FFCDF
:1067BC00204610BD10B5034B03600446FFF7E4FF01
:1067CC00204610BD50840B0010B50446FFF7F2FFB5
:1067DC0020462421FDF75BFC204610BD0022C0E9B9
:1067EC00002210B582600C6804604C6844608C68B0
:1067FC000A604A6084608A6010BD10B50368044664
:10680C001868FEF787FD204610BD00002DE9F04FFB
:10681C0087B0804603931C4B5B68C3F3080389461F
:10682C0016466BB9FFF7D0FE044600F12403406A0C
:10683C000593FFF7A3FD237B2BB105A8FFF7DDFF25
:10684C0007B0BDE8F08F01232373D4E900535FFA3E
:10685C0089F905EB830AAA4512D055F8047B314619
:10686C00381DFFF73DFE8145F5D33B68039A009236
:10687C00D3F808B04A46334641463846D847EAE78B
:10688C0000232373D9E700BF00ED00E02DE9F74F9B
:10689C009B461A4B5B68C3F3080380468946164631
:1068AC006BB9FFF791FE044600F12403406A019393
:1068BC00FFF764FD237B2BB101A8FFF79EFF03B00C
:1068CC00BDE8F08F01232373D4E90053F6B205EB36
:1068DC00830A55450ED055F8047B5946381DFFF7F1
:1068EC00FFFD8642F5D33B684A46DB684146384695
:1068FC009847EEE700232373DEE700BF00ED00E0CE
:10690C002DE9F341164B5B68C3F3080305460F46AC
:10691C001BBBFFF759FE00F124030446406A0193A8
:10692C00FFF72CFDD4E90063462406EB8308B04541
:10693C0009D101A8FFF761FFA542B4BF00200120D7
:10694C0002B0BDE8F08156F8040B39460430FFF76D
:10695C00C7FD8442A8BF0446E9E70020F0E700BF6A
:10696C0000ED00E0F8B5D0E901539D4204460E4617
:10697C000DDB6F1C002F006804DDB900FEF796FEDE
:10698C0018B9F8BDFEF78AFE00202060A7602768C2
:10699C00626807EB85019200A2EB8502081D01F0ED
:1069AC00F1F847F825606368013363600120E8E77C
:1069BC0037B500F124030446406A01930D46FFF7F6
:1069CC00DDFCD4E9003203EB8202934219460BD072
:1069DC000968A94203F10403F7D101A8FFF70DFFE1
:1069EC000025284603B030BD29462046FFF7BAFFE4
:1069FC0005460028F1D06368012B01D1FFF700FE9A
:106A0C0001A8FFF7FAFEECE770B50446D0E90002E6
:106A1C000B4600EB820282420FD001461D6851F8F2
:106A2C00046BAE4207D1521A01F0ACF86368013B1B
:106A3C006360012070BD0846EDE70020FAE71FB542
:106A4C0000F124030446406A01910393FFF796FC7E
:106A5C0001A92046FFF7D8FF18B163680BB9FFF7FF
:106A6C00DBFD03A8FFF7C9FE04B010BD70B5D0E97B
:106A7C0004561823044603FB0656AE4215D005F106
:106A8C0010012046FFF7C0FF63680BB9FFF7C4FD88
:106A9C00E06929690368DB689847696919B1206A5C
:106AAC000368DB6898471835E7E7D4E904531826E0
:106ABC0006FB0356AE4204D0284600F0DBFC18352A
:106ACC00F8E70023636170BD73B50446FFF7A4FDBE
:106ADC0004F12403606A0193FFF750FC2046FFF792
:106AEC00C5FF01A8FFF789FE606A08B1FEF702FC3A
:106AFC00D4E90453182606FB0356AE4204D02846AC
:106B0C0000F0B8FC1835F8E72069FEF7C7FD2068DF
:106B1C00FEF7C4FD204602B070BD00000148FFF72F
:106B2C00D3BF00BFBCE603208842F8B504460D462F
:106B3C00164615D9904214D2A2F11406751AA1F179
:106B4C0014072C44B7421AD01CB131462046FFF72B
:106B5C0078FC06F10800FFF7F9FD143E143CF1E750
:106B6C000DD0B5420BD01CB129462046FFF769FC6D
:106B7C0005F10800FFF7EAFD14351434F1E7F8BD10
:106B8C008842F8B504460D46164614D9904213D2E5
:106B9C00A2F11006751AA1F110072C44B74218D0B7
:106BAC001CB13146204600F0E1FC304600F062FC9E
:106BBC00103E103CF2E70CD0B5420AD01CB129466D
:106BCC00204600F0D3FC284600F054FC103510345D
:106BDC00F2E7F8BD70B50E1E054611DD3001FEF76B
:106BEC0055FD044658B1D5E9001201EB0212FFF72E
:106BFC00C7FF2868FEF752FD2C60AE60012070BD07
:106C0C000024F6E72DE9F04F904695B00023039150
:106C1C00D8F804100A9346229942C0E90033C0E91F
:106C2C000233C0E90433CDE908330446027623DC91
:106C3C00D8E90057142303FB0757AF423BD0294632
:106C4C000BA800F093FC0BA90FA8099E00F08EFC7A
:106C5C00DDE9091399421BDA089B099A03EB061626
:106C6C0003EB0212314606F11000FFF789FFEEB973
:106C7C00099B0133099311E008A8FFF7ABFF00282B
:106C8C00D6D108A8FEF79EFD204615B0BDE8F08FC2
:106C9C00013108A8FFF79EFF0028DDD10FA800F0F6
:106CAC00E9FB0BA800F0E6FB1435C6E70FA930464C
:106CBC0000F05CFCDCE70026CDE90B660D964FF08E
:106CCC001409DDE908239E427CDA3301D35806937C
:106CDC000BB90136F5E70023079309FB06F3029382
:106CEC000BAD07A906A8FFF722FB82460028F0D0BF
:106CFC004FF000038DF817300146079A0DF117037A
:106D0C002846FFF7B1FB9DF817700190002F4AD170
:106D1C00BDF81C30ADF84030CDE911774FF6FF735C
:106D2C00CDF83CA0ADF842301397D5E9013293422F
:106D3C0017DB03F1010ABAF1000F30DD09FB0AF091
:106D4C00FEF7A4FC834660B3D5E9001209FB0212DE
:106D5C00FFF7EAFE2868FEF7A1FCC5F800B0C5F8FD
:106D6C0008A02B68019A09FB023A6A68514609FB94
:106D7C0002320AF11400FFF7D7FEBAF1000F03D06C
:106D8C000FA95046FFF75DFB6B6801336B6011A8D0
:106D9C00FFF7DCFC3FB10BA8FFF7D8FC71E7BB4653
:106DAC00D8E70127F3E7019B2D6809FB0355069BE8
:106DBC001B782BB9D8F80030029A13441B7CEB805B
:106DCC0008358EE72168226062686360A3680992C7
:106DDC000A9A0A93E368A2600B9A0B932369E26008
:106DEC000C9A0C93636922610D9A0D93039B089185
:106DFC0062612376CFE70000F0B5044687B00D46FC
:106E0C002646194668461746FDF70AFB0B4B46F813
:106E1C00043B694603A8FDF703FB03AA3946304639
:106E2C00FFF7F0FE03A8FDF7E9F96846FDF7E6F970
:106E3C00034B23602046256207B0F0BD60820B0037
:106E4C0038840B00F0B50F4685B01D490A9C3846B6
:106E5C0016461D4600F0FDFEC0B9A4B1294601A896
:106E6C00FFF7BCFC1749242000F042FE054630B168
:106E7C0001AB32462146FFF7BFFF134B2B6001A835
:106E8C00FDF7BCF92C46204605B0F0BD0F4938463D
:106E9C0000F0DFFE90B9002CF5D0294601A8FFF7D1
:106EAC009DFC0849242000F023FE05460028E6D06E
:106EBC0001AB32462146FFF79FFFE0E70024E2E7F3
:106ECC00B9830B0048850B0050840B00BD830B006D
:106EDC00014B024A1A607047B8E60320CE830B00C0
:106EEC002DE9F047089DD0F8209004460E46174631
:106EFC00984600F0FBFC81454CD02B79190704D542
:106F0C006A6954492046FFF78DFAB8F1000F0DD08D
:106F1C005B212046FFF77AFA41462046FFF767FAD5
:106F2C0023684D49DB680222204698472B79DA0703
:106F3C0023D5D5F808802F21404600F0D6FE08B1A5
:106F4C0000F1010841462046FFF751FA2B799B07C7
:106F5C0008D53A212046FFF759FAEA683F492046FE
:106F6C00FFF760FA2A79236812F0040FDB6814BF6C
:106F7C003B493C490222204698472B7958071DD59E
:106F8C0029690B461A4613F8010B60B1202808D169
:106F9C001946F7E7344800F066F90028ADD0BDE893
:106FAC00F0872828EED12368521ADB6820469847D0
:106FBC0023682E49DB680422204698470021384676
:106FCC00FEF788FA01462046FFF711FA2368254997
:106FDC00DB680222204698471EB131462046FFF757
:106FEC0006FA2B7913F0300F2CD023682049DB687C
:106FFC000222204698472B79D9060AD523681D49C9
:10700C00DB68072220469847AA691B492046FFF7F0
:10701C0009FA2B799A0611D5DB0605D52368104998
:10702C00DB6802222046984723681449DB68204617
:10703C000A229847E9692046FFF7D9F95D212046D5
:10704C00FFF7E4F923680E49DB6820460222BDE80D
:10705C00F0471847D2830B00D9830B0031810B000A
:10706C00DC830B00E1830B00E4E60320DF830B00E1
:10707C00E4830B00E7830B00EF830B00F2830B0020
:10708C00FD830B002DE9F04385B0D0F820900C9CCB
:10709C0005460F4690461E4600F028FC814505D15A
:1070AC00494800F0E0F8002840F08A802B6A474AF3
:1070BC0001924FF0000901A803938DF80890FFF797
:1070CC0078F849464046FEF705FA414980460122C8
:1070DC0001A8FFF7FDF84146FFF77BF93FB13D49A9
:1070EC00012201A8FFF7F4F83946FFF772F93EB117
:1070FC003949012201A8FFF7EBF83146FFF769F98E
:10710C002379DF070ED5A6682F21304600F0EDFD60
:10711C0000B1461C3149012201A8FFF7D9F83146CC
:10712C00FFF757F923799E0707D52D49022201A8AD
:10713C00FFF7CEF8E168FFF749F82379580714D523
:10714C00266933461F4613F8012B2AB1202A01D198
:10715C001E46F7E7282AF5D12249022201A8FFF79B
:10716C00B7F8BA1B3146FFF7C3F82379190707D5CF
:10717C001D49012201A8FFF7ABF86169FFF738F848
:10718C002379DA0608D5042218490DEB0200FFF723
:10719C009FF8A169FFF71AF823799B0607D51449C4
:1071AC00062201A8FFF794F8E169FFF712F901A88C
:1071BC00FEF7E9FF286A0F4903680222DB6898474B
:1071CC0005B0BDE8F08300BFE4E6032020840B008B
:1071DC00AF830B0000840B0010860B0002840B00A5
:1071EC0004840B0007840B007A7F0B000A840B00CD
:1071FC000F840B00FD830B00002340681A46FEF73A
:10720C00E5B9406800220221FEF7F0B9002240687F
:10721C001146FEF7E3B9002240681146FEF7EEB9BD
:10722C00002340681A461946FEF7F0B9002340685F
:10723C001A461946FEF7F2B940680021FEF716BA55
:10724C0040680021FEF71ABA4068002281F0010163
:10725C00FEF7ECB940680022FEF7F8B9002240684E
:10726C001146FEF7FBB9002240681146FEF7E6B95D
:10727C002DE9F04395B014460D460746FEF732FE55
:10728C0000211C220DA8009100F096FC40230C93C9
:10729C0020466B460CAA0021FEF77CF80446002819
:1072AC004BD1024601216868FEF7A8F902218046FD
:1072BC0022466868FEF7A2F9009E81462146002E00
:1072CC003BD0002939D17368022B03D00A2B11D083
:1072DC00F669F4E7B8F1000FFAD0716906A8043129
:1072EC0007ADFEF72DFE0FCD3C1D0FC42B68237090
:1072FC004146EDE7B9F1000FEAD07469102201A8FC
:10730C0000F05AFC06238DF8143001AD04F108038B
:10731C001834186859682A4603C20833A342154624
:10732C00F7D101A906A807ADFEF7EAFD0FCD3C1D6C
:10733C000FC42B6823704946CAE70098FEF722F861
:10734C00384615B0BDE8F083024B034A1A600022A0
:10735C005A607047E4E6032098840B00F8B50646A3
:10736C000D468F180024BD420CD0336815F8011B54
:10737C009B6830469847031E01DB1C44F3E7002C46
:10738C0008BF1C462046F8BD13B50446084659B143
:10739C00019100F08EFC23680199DB6802462046BF
:1073AC0002B0BDE81040184702B010BD03689B68DE
:1073BC00184738B50D210546FFF7F8FF0A2104469A
:1073CC002846FFF7F3FF204438BD30B58BB00023BF
:1073DC00012A8DF8243098BF0A2209AC0D46B1FB66
:1073EC00F2F101FB125303F0FF03092B94BF30336E
:1073FC003733DBB2AA4204F8013DEFD92146FFF73F
:10740C00C3FF0BB030BD2DE9F04186B000AF05468F
:10741C000E46381D142114463B60FEF767F91328FD
:10742C000ED8391D2846FFF7AFFF04461EB128467B
:10743C00FFF7BFFF044420461837BD46BDE8F08176
:10744C0000F1080323F00703E846ADEB030D2246D9
:10745C00411C3B686846FEF749F969462846FFF728
:10746C0093FF0446C546E1E7014B00229A60704742
:10747C00ECE6032010B504460068FEF70FF9204631
:10748C0010BD10B50446006808B1FEF707F90023DB
:10749C00C4E90133236010BD38B504460D460068BD
:1074AC000131FEF703F910B1C4E90005012038BD24
:1074BC0010B50368044623B143688B4201D3012005
:1074CC0010BD2046FFF7E8FF0028F9D0A368002B79
:1074DC00F5D122681370F2E737B50D4611460192CB
:1074EC000446FFF7E5FF019A28B92046FFF7C9FFCC
:1074FC00204603B030BDA2602946206800F034FB62
:10750C002268A3680021D154F2E7002313B5C0E927
:10751C00003304468360037341B10846019100F0C7
:10752C00C8FB019902462046FFF7D6FF204602B061
:10753C0010BD38B5054600680C4668B16A688B68A2
:10754C009A4207D3096800F08EFBA368AB60002356
:10755C00A36038BDFEF7A2F823682B6063686B60EC
:10756C00A368AB600023C4E90033F1E710B5002336
:10757C00C0E90033044683600373FFF7DAFF20464B
:10758C0010BD884210B5044605D00B682BB18A6833
:10759C001946FFF7A1FF204610BDFFF772FFFAE76F
:1075AC0010B500230446C0E9003383600373FFF772
:1075BC00E8FF204610BD13B5044659B108460191A9
:1075CC0000F077FB019902462046FFF785FF204625
:1075DC0002B010BDFFF755FFF9E770B505460E4632
:1075EC0009B9002070BD6AB1846814442146FFF7C4
:1075FC005FFF0028F5D02868AB683146184400F0CE
:10760C0032FBAC600120EDE707B500238DF80410C8
:10761C00012201A98DF80530FFF7DFFF03B05DF8FB
:10762C0004FB08B582683AB921B10878B0FA80F049
:10763C00400900E0012008BD006809B90078F5E7B1
:10764C0000F007FBF2E70000054B02221A60054B25
:10765C00054A9A600020C3E90000FDF753BF00BF44
:10766C0008E70320FCE603200000FFFF08B500201C
:10767C00FDF79CFF28B1FDF789FF80F00100C0B237
:10768C0008BD0120FCE7000030B593B0CDE9002324
:10769C00194B0446D3E90010019B521843EB00032D
:1076AC001648D0E90010521843EB0003CDE9002333
:1076BC0024220DEB0200002100F07EFA002509A91E
:1076CC006846FEF743F81622294603A8029500F0F7
:1076DC0073FA02A909A800F013FA02A800F0E9FA5B
:1076EC0012AB184402A900F8415C2046FFF70DFFCD
:1076FC00204613B030BD00BF18E7032010E703206D
:10770C0010B50020FDF726FE0446A0B9FDF7F2FEE9
:10771C00012810D12046FDF715FF60B9FFF7A6FF31
:10772C0010B9FDF72BFFF9E7FFF7A0FFBDE81040FC
:10773C000020FDF70FBE204610BD1FB5FFF7E0FF80
:10774C0010220021684600F037FA00216846FDF748
:10775C0009FE009805B05DF804FB0000024B1A68A6
:10776C00024B1A60704700BF64DE03200CE7032055
:10777C0070474174704708B5007CFDF743FE20EA62
:10778C00E07008BD08B5007CFDF71CFE20EAE07037
:10779C0008BD08B5007CFDF725FE40EAE07008BD89
:1077AC0008B5007CFDF716FE40EAE07008BD007CD1
:1077BC00FDF720BE37B5457C04462DB1207C03B0C7
:1077CC00BDE83040FDF7F6BD007C0191FDF71AFED7
:1077DC0000280199F2DC284603B030BD10B5142105
:1077EC000446FCF754FC204610BD000010B54FF4C5
:1077FC007A730446084611460022C4E90123044B5F
:10780C002360012320746374FDF70CFE204610BD29
:10781C00F0840B00007C0023FDF7FCBD0022FFF779
:10782C00F9BF007CFDF7BEBD4174704770477047CF
:10783C0008B50021007CFDF725FE40EAE07008BD8C
:10784C0008B50121007CFDF71DFE40EAE07008BD83
:10785C0008B5007CFDF70EFE20EAE07008BD08B507
:10786C00007CFDF7FFFD20EAE07008BD13B504466F
:10787C00007C0191FDF7FEFD0028019901DC607C84
:10788C0020B1207CFDF706FE20EAE07002B010BDAE
:10789C00007CFDF707BE10B514210446FCF7F7FB7E
:1078AC00204610BD10B54FF47A73044608460021EB
:1078BC00C4E90113044B2360012320746374114643
:1078CC00FDF7B8FD204610BD20850B00007C002282
:1078DC00FDF7B8BD007CFDF7BDBD10B51422044604
:1078EC00002100F069F9204610BD000010B50F4CC6
:1078FC0088B003A8FFF7F1FF2178BFF35B8F11F07D
:10790C0001010FD120460191FCF7D0FB019948B140
:10791C0003AA0748FFF7C6FF2046FCF7CCFB054837
:10792C0000F014F9024808B010BD00BF20E7032096
:10793C0024E7032039780B00014B1860704700BF17
:10794C0068DE032008B50B4B43B1FFF7CFFF03688C
:10795C001B699847002801DDAFF30080064B43B14B
:10796C0000F0A2F803681B699847002801DDAFF30B
:10797C00008008BD000000000000000008B5FFF703
:10798C00E1FFFDF7DFFC014B186008BD40E7032069
:10799C000548064A064908B5121A00F0E5F8054BE9
:1079AC00054A1A6008BD00BF00F4032004F403204C
:1079BC0064870B0000F403201E1C279A07B50023D4
:1079CC0000931A466FF07701FDF7CEFD03B05DF81A
:1079DC0004FB000007B543880A2B08D0502B0BD1B1
:1079EC00094B1B684BB103B05DF804EB1847FFF76C
:1079FC00E5FF03B05DF804FB002300931A466FF01B
:107A0C007701FDF7B1FDF4E73CE7032010B5124810
:107A1C000021FDF793FE114B1A68114B9A42114B42
:107A2C000CBF012200221A7001D0FFF7B1FFFDF745
:107A3C0079FC044600F0C8F80B4B13B12046AFF3A9
:107A4C00008000210848FDF7B9FDBDE8104007484B
:107A5C000021FDF77FBD00BF45790B0000F403202A
:107A6C001E1C279A38E7032000000000E1790B0068
:107A7C007047000038B5044614252A46002100F052
:107A8C009BF825804025074925812846258200F052
:107A9C0031F804496060284600F02CF8E06020467C
:107AAC0038BD00BF48850B0030B50E4D2978BFF3AB
:107ABC005B8F11F0010487B011D12846FCF7F6FA60
:107ACC0068B101A8FFF7D6FF01AA21460648FFF7C7
:107ADC008DFE2846FCF7EFFA044800F037F8024810
:107AEC0007B030BD44E7032048E703207D7A0B0044
:107AFC00FCF7C9BAFCF7C9BA08B5FDF7FFFD0000E1
:107B0C0010B50C4641690369826986B001F26C714B
:107B1C000491016803914168029181680191C168E7
:107B2C000091074903EB43030B44064902EB420265
:107B3C000A4420460449FDF7C1FD204606B010BD9D
:107B4C007E850B0069850B0049850B0000230146DF
:107B5C001A46184600F06AB9024B1844407800F0F7
:107B6C009700704712860B000A44914200F1FF33D4
:107B7C0000D1704710B511F8014B03F8014F914239
:107B8C00F9D110BD884210B501EB020402D9844230
:107B9C00234607D8431EA14208D011F8012B03F845
:107BAC00012FF8E7024401468A4200D110BD13F8B8
:107BBC00014D02F8014DF7E702440346934200D110
:107BCC00704703F8011BF9E738B5104B1D68AB6B18
:107BDC000446B3B91820FDF759FD0246A86320B935
:107BEC000B4B0C484221FDF7A1FD0B490B4BC0E997
:107BFC0000130B4B83600B23838100210120C2E90E
:107C0C000401AB6B00221C615A6138BD68DE032095
:107C1C00A2850B00B9850B000E33CDAB34126DE68B
:107C2C00ECDE0500C9B2034610F8012B1AB18A42EA
:107C3C00F9D118467047002918BF0023F9E710B591
:107C4C000446FFF7EFFF18B9204600F032F8204445
:107C5C0010BD10F8012B11F8013B012A28BF9A42E4
:107C6C00F7D0D01A7047034611F8012B03F8012BFB
:107C7C00002AF9D170470000024B0146186800F049
:107C8C0003B800BF68DE032037B5044608460D462E
:107C9C0000F00FF8421C114620460192FDF736FD0C
:107CAC00044618B1019A2946FFF75EFF204603B03F
:107CBC0030BD034613F8012B002AFBD1181A0138EA
:107CCC00704710B57AB103460139841813F8010BCB
:107CDC0011F8012F904201D1A34201D1801A10BD9D
:107CEC000028F3D1FAE71046F9E738B503460C46FD
:107CFC0069B9BDE83840FFF795BF431C05462146DE
:107D0C001846FFF78FFF0028F7D1284638BD00250D
:107D1C00F5E70000012B2DE9F04701D0242B06D903
:107D2C00FDF7FCFC162303600020BDE8F087DFF8AC
:107D3C00E4C00D462E4615F8014B14F80C7017F0E4
:107D4C000807F7D12D2C32D12C780127B51C002B2C
:107D5C005BD0102B09D1302C07D12C7804F0DF0428
:107D6C00582C4DD16C781023023507F1004808F1DE
:107D7C00FF384FF0000CB8FBF3F9664603FB198A89
:107D8C00A4F1300EBEF1090F16D87446A34224DDBF
:107D9C00BCF1000F1EDBB1451CD301D1A24519DB90
:107DAC0006FB03464FF0010C15F8014BE8E72B2CB2
:107DBC0004BF2C78B51CCAE7A4F1410EBEF1190F13
:107DCC0001D8373CE2E7A4F1610EBEF1190F04D8DB
:107DDC00573CDBE74FF0FF3CE6E7BCF1000F05DA60
:107DEC0022230360464642B930469EE707B17642ED
:107DFC00002AF9D0BCF1000F00D0691E1160F3E726
:107E0C003024002BB1D10823AFE7302CA5D00A23A6
:107E1C00ABE700BF13860B0013460A460146024827
:107E2C000068FFF777BF00BF68DE03202DE9F84339
:107E3C00DFF8B8800646D8F800001F460D4691467C
:107E4C0000F056F8254B1C6834B9254C1C60254BAA
:107E5C0013B11B68C4F8883063681F2B07DDD8F892
:107E6C00000000F047F84FF0FF30BDE8F8834EB348
:107E7C00D4F8880088B91C4B23B9D8F8000000F05E
:107E8C0038F8F0E74FF48470FDF700FC0028F4D0CC
:107E9C000023C0E94033C4F88800636840F823909D
:107EAC0001229A4000EB8301D0F800311343C0F853
:107EBC000031022EC1F8807002BFD0F80431134398
:107ECC00C0F804316368D8F800005A1C02336260B1
:107EDC0044F8235000F00EF80020C6E7E8E7032032
:107EEC005CE703200000000099560B00CCDE032059
:107EFC0070477047704700001D400B0059400B0045
:107F0C0081400B0085400B000000000043616C6C4D
:107F1C00206F6E2070757265207669727475616C55
:107F2C0000554E4B4E4F574E00747970653D25737E
:107F3C002073746172743D256420656E643D256404
:107F4C002073697A653D25642025730A0070726977
:107F5C006E74696E6720746F6B656E73006E6F6400
:107F6C00657300747970650062526573756C74008A
:107F7C00626F6F6C2072756E546573742829002FB4
:107F8C0055736572732F636869706D632F446F63EB
:107F9C00756D656E74732F4D616B65722F506172C8
:107FAC007469636C652F5574696C69746965732F9A
:107FBC004A534F4E2D5061727365722D5465737414
:107FCC002F2F7372632F4A534F4E2D50617273656E
:107FDC00722D546573742E637070006E6F64654FF0
:107FEC00626A656374436F6E7461696E6572202199
:107FFC003D204E554C4C006E6F6465006E6F646591
:10800C004E756D626572203D3D203100644944001F
:10801C006161616161616161616161616161616144
:10802C006161616161310064657669636549442011
:10803C003D3D2022616161616161616161616161EC
:10804C006161616161616161613122006C617374B4
:10805C00006C617374436F6E6E656374203D3D20DC
:10806C003136363830303834353500747970652017
:10807C003D3D2031006E6F64654E756D62657220FA
:10808C003D3D2032006161616161616161616161ED
:10809C006161616161616161616132006465766930
:1080AC0063654944203D3D202261616161616161EC
:1080BC006161616161616161616161616161322212
:1080CC00006C617374436F6E6E656374203D3D206C
:1080DC0031363637383336363030007479706520A7
:1080EC003D3D2032004E6F646520446174616261D5
:1080FC0073652063757272656E746C7920636F6E34
:10810C00666967757265643A0052616E206F7574AA
:10811C00206F6620656E7472696573207769746868
:10812C002069203D202564004E6F64652025642C59
:10813C002064657669636549443A2025732C206C6C
:10814C00617374436F6E6E65637465643A20257356
:10815C002C2074797065202564006E6F6465446111
:10816C0074610065303066636536383934353835BE
:10817C006631653738336364333638006E6F646547
:10818C004E756D62657200446964206E6F74206672
:10819C00696E64207468652064657669636549441A
:1081AC002C206E6577206E6F6465206F66202564C9
:1081BC0000256C64005374617274696E6720746579
:1081CC00737473007B226E6F646573223A5B7B223F
:1081DC006E6F6465223A312C22644944223A226142
:1081EC006161616161616161616161616161616173
:1081FC006161616131222C226C617374223A3136D7
:10820C0036373833353438392C2274797065223A44
:10821C00317D5D7D0046696E6973686564207465A7
:10822C00737400554E444546494E4544004F424AEE
:10823C0045435400415252415900535452494E4700
:10824C00005052494D495449564500000000000069
:10825C00000000000000000000000000A1400B0026
:10826C00C9400B00000000000000000001410B00A1
:10827C0035410B00ED6E0B00CB400B0000000000F5
:10828C0000000000D5400B00E9400B002F820B00D2
:10829C0039820B0040820B0046820B004D820B0092
:1082AC005C75253034580000000000000000000010
:1082BC0035470B0051470B00000000000000000088
:1082CC00B5470B00D9470B00000000000000000070
:1082DC0065470B0079470B00000000000000000010
:1082EC008D470B00A1470B000000000000000000B0
:1082FC0097580B008D580B0083580B0039580B0006
:10830C0077580B006B580B0045720B004D720B002D
:10831C005F580B0057580B004D580B0043580B007F
:10832C007D720B000000000000000000D1580B0013
:10833C00D7580B0015590B00E5580B00D3580B0000
:10834C0000000000000000005F5E0B00555E0B009B
:10835C004B5E0B00415E0B00355E0B00295E0B0083
:10836C0045720B004D720B001D5E0B00155E0B0071
:10837C000B5E0B00015E0B007D720B000000000019
:10838C00000000008D5E0B007D5E0B007F5E0B001D
:10839C00257500752530347800626175640053656D
:1083AC007269616C0053657269616C31004A534F9C
:1083BC004E53747265616D4C6F6748616E646C6589
:1083CC00720061707000253031307520005D200026
:1083DC002C200028293A2000205B00636F64652064
:1083EC003D200025690064657461696C73203D2033
:1083FC00000D0A006D0066006C6E00666E00636F07
:10840C0064650064657461696C0000000000000024
:10841C000000000039630B005F630B001D630B0051
:10842C009B5F0B00000000000000000095670B0034
:10843C00AD670B00ED6E0B00CB400B000000000095
:10844C0000000000C1670B00D5670B0091700B009A
:10845C0025630B00000000000000000037630B00D8
:10846C006D630B00516E0B0027630B0000000000C6
:10847C000000000035630B007B630B00FD660B00F6
:10848C009D630B00000000000000000005720B0053
:10849C000F720B0019720B0023720B002D720B0064
:1084AC0039720B0045720B004D720B0055720B00AC
:1084BC0061720B0069720B0073720B007D720B0002
:1084CC0025592D256D2D25645425483A254D3A25E1
:1084DC0053257A0061736374696D650000000000B8
:1084EC00000000007D770B00E9770B00C1770B00D3
:1084FC0069730B0091770B00AD770B009F770B0026
:10850C00BB770B007F770B0083770B00000000001C
:10851C00000000003B780B00A3780B0079780B006F
:10852C0069730B006B780B003D780B004D780B00DA
:10853C009D780B005D780B0035780B0000252E33F1
:10854C007320252E337325336420252E32643A256F
:10855C002E32643A252E32642025640A0053756E3F
:10856C004D6F6E54756557656454687546726953E2
:10857C0061744A616E4665624D61724170724D6103
:10858C00794A756E4A756C4175675365704F6374A3
:10859C004E6F764465635245454E54206D616C6C4C
:1085AC006F6320737563636565646564002F746D18
:1085BC00702F6A656E6B696E732D4743432D313096
:1085CC002D706970656C696E652D34385F32303290
:1085DC0030313132345F3136303631383036333930
:1085EC002F7372632F6E65776C69622F6E65776C73
:1085FC0069622F6C6962632F7374646C69622F7289
:10860C00616E642E6300002020202020202020207A
:10861C002828282828202020202020202020202026
:10862C002020202020202088101010101010101056
:10863C00101010101010100404040404040404049A
:10864C000410101010101010414141414141010122
:10865C0001010101010101010101010101010101FE
:10866C00010110101010101042424242424202020C
:10867C0002020202020202020202020202020202CE
:10868C00020210101010200000000000000000007A
:10869C0000000000000000000000000000000000CE
:1086AC0000000000000000000000000000000000BE
:1086BC0000000000000000000000000000000000AE
:1086CC00000000000000000000000000000000009E
:1086DC00000000000000000000000000000000008E
:1086EC00000000000000000000000000000000007E
:1086FC00000000000000000000000000000000006E
:10870C00000000000000000091440B0029580B00F1
:10871C00A1580B00695E0B00DD6E0B0055730B004E
:10872C0075740B0055760B0069770B000000000088
:04873C000000000039
:10874000040000001400000003000000474E550024
:108750004C1093FA9096DE4B462451384A85CC5003
:0487600097CA103371
:048764000000000011
:108768000300000068840B0080840B00E0840B0089
:108778006CDE032000000000000000000000000084
:1087880000000000000000000000000000000000E1
:1087980000000000000000000000000000000000D1
:1087A80000000000000000000000000000000000C1
:1087B80000000000000000000000000000000000B1
:1087C80000000000000000000000000000000000A1
:0887D80000000000ECE70320A3
:1087E000FFFFFFFF00000102030405060708090A56
:1087F0000B0C0D0E0F101112131415161718191A51
:088800001B1C1D1E1F20280097
:048808007856341258
:04000003B000401CED
:00000001FF
