:02000002B0004C
:1040000000400B00F4A50B00000006000D000502A7
:0840100004016810000000002B
:0440180094940B0071
:10401C0009480A49884208B505D0094A824202D0AB
:10402C00121A05F069F80748074A0021121A05F020
:10403C008BF8014808BD00BFFCB6032048A50B0057
:10404C0080B7032080B70320EDE7032070B5074E3F
:10405C00074C04F0CDFDA41BA4080025AC4200D1F4
:10406C0070BD56F8043B98470135F7E7ECA40B00FC
:10407C0014A50B0000F0D0BD08B500F0ADF8BDE8FC
:10408C00084004F06DBD02F0E5BB02F0E3BB02F0AA
:10409C00E9BB000008B5034A03490C2002F0FEFA04
:1040AC00FEE700BF89640B00A8940B000078B0FAFF
:1040BC0080F0400970470123037070477047006A15
:1040CC000368DB681847000010B5034B0360044617
:1040DC0000F0EAFE204610BDC49E0B0010B504464D
:1040EC00FFF7F2FF204642F68C61FFF7D0FF204627
:1040FC0010BD37B51D4601AB044601F0BBF820B12D
:10410C0001992A46204600F0C7FF03B030BD7D223E
:10411C007B2101F0DEB900000A4B10B504460360A8
:10412C0003F0BCFB214603F0F4FD04F0D1FC04F0D9
:10413C00C3FC2046044B40F8043B03F085FC2046AE
:10414C0010BD00BFAC9E0B00949E0B0010B5044636
:10415C00FFF7E2FF20462421FFF799FF204610BD10
:10416C000EB400B58CB00DAA4FF0200C52F8041B05
:10417C000392CDE900120023016804AA1E20CDE9A8
:10418C0004C302F093FA0CB05DF804EB03B0704773
:10419C00F0B5D1E90156ADF2144D0C46416804ABB3
:1041AC00771B3A462944184604F0A6FFE3680749F2
:1041BC000022C255CDE900630290054A05482B4602
:1041CC00FFF7CEFF0DF2144DF0BD00BFC4940B00F1
:1041DC00BD940B00B0E603207047000013B50446F5
:1041EC000C4800F0DEFE0C4A014601AB094801F018
:1041FC0041F801990748621E00F0F5FE38B10146FE
:10420C00064A04486B46FFF774FF9DF8000002B0A5
:10421C0010BD00BFB4B70320EB940B00F1940B005E
:10422C000B78012B01D1FFF7B3BF7047F0B5013903
:10423C00551E00240332012715F8013F07FA03F33A
:10424C0040FA04F6013B334001F8013F2B78AA42B7
:10425C001C44E4B2F0D1F0BD38B5046805467CB11D
:10426C006368013B63605BB9236820469B68984791
:10427C00A368013BA3601BB923682046DB68984701
:10428C00284638BD2DE9F0432DED028B0446ADF2E6
:10429C00244D0E4619B13B493B48FFF761FFD4E969
:1042AC000559D5E901326168D21A194408A804F0FD
:1042BC0023FFD5E9012308A99B1A0022CA54D5F87B
:1042CC00088046B10191EB6800936A682F492E482B
:1042DC004346FFF745FF2E4B2E4A4FF4806108A84A
:1042EC0002F0E0FA2C4B2D491B788DF8003008AA0F
:1042FC003C2306A802F0E6FC07A8FFF7ADFF6569B2
:10430C0000274D450BD26B68002BC4BFEB68FF1820
:10431C001EB129462046FFF783FF1035F1E707EE63
:10432C00908AF8EEE76AD4ED027A9FED1D8AF8EEDA
:10433C00677A86EEA77A67EE087A17EE900A04F091
:10434C0075FE07EE907AF8EEE76AD4ED077ACDF8B1
:10435C000880F8EE677ACDE9040186EEA77A67EE5D
:10436C00087A17EE900A04F061FE3A46CDE9000196
:10437C000C490548FFF7F4FE0DF2244DBDEC028B01
:10438C00BDE8F083F6940B00B0E6032006950B0015
:10439C00879E0B0032950B00B0B703203A950B00AB
:1043AC000000C8423F950B0070B5044686B01D4610
:1043BC00132C4FF00003CDE90233084616461CD8E7
:1043CC00092C3CD8631E082B22D9214921482246AE
:1043DC00FFF7C6FE02F0C6F968B11F4B1F4A1B78E7
:1043EC001F498DF8003004A83C2302F06BFC05A893
:1043FC00FFF732FF002006B070BDA4F11403092BA7
:10440C00E3D806238DF80C3001238DF80D3002E033
:10441C0001238DF80C3003AA02A9FFF707FF9DF8C2
:10442C00083033709DF809302B700A9B9DF80A20D8
:10443C001A700B9B9DF80B201A700120DBE70623EA
:10444C008DF80C3001238DF80D308DF80E30E2E72D
:10445C0078950B00B0E60320B0B70320A9950B00AC
:10446C00D7950B0070B5D0E900531426044606FB13
:10447C000356AE4204D0284604F066F91435F8E72A
:10448C00206802F0EFF9204670BD37B51D4601AB30
:10449C00044600F0EFFE20B101992A46204600F0B8
:1044AC000DFE03B030BD00002DE9F04F0746ADF511
:1044BC00357D7148704DDFF800A2DFF800B200F0D6
:1044CC0070FD6E4A014612AB6B4800F0D3FE00261D
:1044DC0012993246284600F086FD0446002800F06A
:1044EC009F8001460DAB52462846FFF7CEFF0CAB22
:1044FC005A4621462846FFF7FCFD614A0EAB214681
:10450C002846FFF7F6FD5F4A0FAB21462846FFF71A
:10451C00F0FD5D4A10AB21462846FFF7EAFD0DF190
:10452C002F095A4A11AB214628460DF12E08FFF7E8
:10453C00E0FD0BAA9DF83C109DF83800CDF80490D6
:10454C00CDF800800DF12D03FFF72EFF0E9A132AE4
:10455C001ADC092A1CDC531E082B72D94C494D4815
:10456C00FFF7FEFD02F0FEF800283CD04A4B4B4A08
:10457C001B788DF8003014A849493C2302F0A2FBAB
:10458C0015A8FFF769FE2EE0A2F11403092BE4E74E
:10459C00444A13AB21462846FFF7ABFD424A14AB05
:1045AC0021462846FFF7A5FD119B0993109B089304
:1045BC0099F80030079398F8003006939DF82D3049
:1045CC0005939DF82C300493149B0393139B029337
:1045DC000E9B01930D9B0093344A0C9B40F26E2171
:1045EC0018A802F057F92B4818A9FFF7B9FD02F0EB
:1045FC00B9F888B187B1284B2D491B788DF800305C
:10460C0018AA3C2314A802F05DFB15A8FFF724FEA2
:10461C004FF47A7002F07EF90136642E7FF458AFB5
:10462C0001F024FB014614A801F044FB149919482D
:10463C00FFF796FD14A804F087F80DF5357DBDE85D
:10464C00F08F119B0793109B069399F800300593FC
:10465C0098F8003004939DF82D3003939DF82C307E
:10466C00CDE901230D9B0093124A0C9B40F26E2165
:10467C0018A802F00FF9B6E7B4B70320EB940B00BF
:10468C00F1940B0000A20B00E6950B00EB950B00D0
:10469C00E0960B00B0E60320B0B7032008970B00A0
:1046AC00D7950B00F0950B00F5950B00FA950B00C8
:1046BC002D970B007F960B00DD950B00E1950B0001
:1046CC0037B504461546019100F0F8FE0199012218
:1046DC00204600F061FE20463A2100F011FE04490C
:1046EC002A46204603B0BDE8304000F048BE00BF6B
:1046FC00FA970B0037B504461546019100F0DEFE23
:10470C0001990122204600F047FE20463A2100F094
:10471C00F7FD04492A46204603B0BDE8304000F0BE
:10472C002EBE00BF36970B008842F8B504460D46E6
:10473C00164616D9904215D2A2F11406751AA1F19B
:10474C0014072C44B7421CD02CB13146204604F03F
:10475C0078F8337C2374304603F0F6FF143E143C97
:10476C00F0E70ED0B5420CD02CB12946204604F00F
:10477C0068F82B7C2374284603F0E6FF14351434B8
:10478C00F0E7F8BD2DE9F0410023C0E90033836068
:10479C004F689F4204460E4623DD4FF0140808FB79
:1047AC0007F002F057F80546D8B1D4E9001208FB1F
:1047BC000212FFF7B9FF206802F054F82560A760D9
:1047CC00D6E9007308FB0378B84508D0394628466B
:1047DC0004F051F83B7C2B7414371435F4E77368F0
:1047EC0063602046BDE8F081F0B52D4B2D4D8FB0A8
:1047FC0001221A700024CDE90244049404F068F9F3
:10480C0002A9064605A8FFF7BDFF2F4605A908A873
:10481C00FFF7B8FF244B47F8043B08A90BA8FFF798
:10482C00B1FF0BAA1E21384603F056FB0BA8FFF76D
:10483C0019FE08A8FFF716FE1C4B2B6005A82E626C
:10484C00FFF710FE1A4B2B6004F042F94FF416518F
:10485C0004F02EF903F022F8294603F013FA02A80B
:10486C00FFF700FE134B144A9A60C3E9004403207F
:10487C0001F044FF114B40F22622A3F62C44009287
:10488C00A3F540614FF44062204600F06FFB0C4BE7
:10489C000C490D4823600FB0BDE8F04003F09FBFFA
:1048AC00B0B7032080B70320949E0B0068A20B00C6
:1048BC00AC9E0B00A4B703200000FFFFE0C3032055
:1048CC00C49E0B002FA20B0040E60320F0B597B05E
:1048DC00002305463648049300F063FB354A344EFA
:1048EC00354F014605AB324800F0C4FC0124059954
:1048FC00621E304600F077FB0146D8B103AB019045
:10490C003A463046FFF7C1FD039B0199AB420ED1ED
:10491C002A4A274804ABFFF7ECFB049A284929489C
:10492C00FFF71EFC9DF81040204617B0F0BD013477
:10493C00332CDCD11E4906A800F0E4FD22462249A6
:10494C002048FFF70DFC1A4800F020FB014606A892
:10495C0000F0EAFD06A8FFF7DAFB224606A8174985
:10496C00FFF7AEFE2A4606A81349FFF7C3FE174B06
:10497C0017491A6806A8FFF7A3FE06A815490022D6
:10498C00FFF79EFE06A814490022FFF799FE134973
:10499C00002206A8FFF794FE06A800F0BFFC06A8AC
:1049AC0001F0A0F806A8E4B200F06AFABCE700BF78
:1049BC00B4B70320EB940B00DD950B00E1950B00D5
:1049CC003A970B00B0E6032059970B00FCB6032076
:1049DC00F1940B0000A20B00E6950B00EB950B007D
:1049EC002DE9F0410D469AB00446002800F0ED8008
:1049FC00FF2800F0EA807648754E00F0D2FA04F1F8
:104A0C00FF380146734A724807AB00F033FC079934
:104A1C006F48424600F0E7FA0746002800F0D580C0
:104A2C0031460AA800F06EFD6B4A03AB394630469E
:104A3C00FFF72BFD694A02AB39463046FFF759FBAD
:104A4C00674A04AB39463046FFF753FB654A05AB62
:104A5C0039463046FFF74DFB634A06AB39463046C4
:104A6C00FFF747FB029A614961482B46FFF778FB39
:104A7C00132D1BDC092D1DDC6B1E082B71D95D4918
:104A8C005B482A46FFF76CFB01F06CFE002856D001
:104A9C00594B5A4A1B788DF8003008A858493C23CA
:104AAC0002F010F909A8FFF7D7FB48E0A5F11403B1
:104ABC00092BE3E753494E48FFF752FB424607994F
:104ACC000AA800F0D6FF304600F060FA01460AA8AA
:104ADC0000F02AFD0AA8FFF71AFB4B4922460AA848
:104AEC00FFF7EEFD039A3C490AA8FFF703FE3B498A
:104AFC002A460AA8FFF7E4FD049A39490AA8FFF7E9
:104B0C00DFFD059A37490AA8FFF7DAFD069A364900
:104B1C000AA8FFF7D5FD3D4900220AA8FFF7D0FDF2
:104B2C003B4900220AA8FFF7CBFD0AA800F0F6FBD0
:104B3C000AA800F0D7FF37492D48FFF711FB01F009
:104B4C0095F8716801F0C8F801F090F8036800213D
:104B5C00DB6898470AA800F093F901201AB0BDE869
:104B6C00F081424607990AA800F083FF304600F016
:104B7C000DFA01460AA800F0D7FC0AA8FFF7C7FAFD
:104B8C0022460AA82049FFF79BFD039A12490AA85E
:104B9C00FFF7B0FD2A460AA81049FFF791FD049AC9
:104BAC000F490AA8FFF78CFD059A0E490AA8FFF7D2
:104BBC0087FD069A0C490AA8FFF782FD0AA800F0A7
:104BCC00ADFB0AA800F08EFFB9E70020C6E700BFD6
:104BDC00B4B70320EB940B00DD950B00F1940B00A4
:104BEC0000A20B00E6950B00EB950B0083970B00D6
:104BFC00B0E60320CB970B00B0B70320FD970B005A
:104C0C00D7950B00A6970B00E1950B00F0950B00C8
:104C1C00F5950B00BB970B0010B52DED028B4FF4E7
:104C2C00FA6086B001F076FE01F020F80368684C5B
:104C3C001B68984767496848FFF792FA67496648C6
:104C4C00FFF78EFA01F012F801F0C4F800212046AB
:104C5C00FFF718FB62496048FFF782FA4FF468725D
:104C6C006049204600F05BF9204600F0B5FE0021BB
:104C7C002046FFF707FB5C495748FFF771FA00F035
:104C8C00F5FF584901F028F800F0F0FF0368002107
:104C9C00DB689847D4ED027AB8EE678ADFED537A79
:104CAC0028EE278A00F0E2FF01F000F807EE900AE8
:104CBC00F8EEE77AC8EE277A17EE900A04F0B6F908
:104CCC000B4602464A494448FFF74AFA204600F090
:104CDC0043F900F0CBFF014602A800F0EBFF02996C
:104CEC000191084604F0ADFA01990246204600F005
:104CFC0016F902A803F028FD00F0B8FF014602A83F
:104D0C0000F0D8FF029A3B493348FFF729FA02A872
:104D1C0003F01AFD204600F05FFE002851D0364902
:104D2C002D48364CFFF71CFA29480021FFF7AAFA48
:104D3C0033492948FFF714FA2068FFF7C7FD3149BA
:104D4C0002462548FFF70CFA00212148FFF79AFA92
:104D5C000020FFF7A9FB2C491F48FFF701FA206838
:104D6C00FFF7B4FD0446FFF739FA224603462749FC
:104D7C001948FFF7F5F9264B20461968FFF730FE66
:104D8C002046FFF72BFA2246034622491248FFF72A
:104D9C00E7F921491048FFF7E3F9204B2046196841
:104DAC00FFF71EFE00210A48FFF76CFA0020FFF700
:104DBC007BFB1B490848FFF7D3F906B0BDEC028B0F
:104DCC0010BD00F053FF01F005F81649A8E700BF2D
:104DDC00B4B703202B980B00B0E603203A980B00D5
:104DEC0083980B00C8980B00699C0B000000C8420C
:104DFC00A49C0B00049D0B001B9D0B0008B703200B
:104E0C003D9D0B00849D0B009B9D0B00DA9D0B00C0
:104E1C0000B70320059E0B002C9E0B0004B703204B
:104E2C007E9E0B002F9D0B0010B5054B0360037C81
:104E3C0004461BB9406808B101F014FD204610BDB2
:104E4C00DC9E0B0010B50446FFF7EEFF2046142144
:104E5C00FFF71DF9204610BD10B5034B0360044647
:104E6C00FFF7E2FF204610BDFC9E0B0010B5044678
:104E7C00FFF7F2FF20463021FFF709F9204610BD5D
:104E8C0010B5034B03600446FFF7E6FF204610BD48
:104E9C000C9F0B0010B50446FFF7F2FF2046402193
:104EAC00FFF7F5F8204610BD10B5074B0360037CE7
:104EBC0004461BB9406908B101F0D4FC2046FFF749
:104ECC00B3FF204610BD00BFEC9E0B0010B504468E
:104EDC00FFF7EAFF20462C21FFF7D9F8204610BD3A
:104EEC00034A02600022C0E90122C26002747047CA
:104EFC00DC9E0B0038B5037C04460D460BB100203C
:104F0C0038BD406838B101F0B5FC0028F7D0C4E9D1
:104F1C0001050120F4E7084601F09CFCF5E770B5AB
:104F2C00C3680E461546D1184268044672B18268B1
:104F3C008A420BD36068E3682A463146184404F071
:104F4C00DBF8E2682A44E260012070BD2046FFF7DE
:104F5C00D1FF0028EED1F8E743680021C16023B1EE
:104F6C00826812B1184604F0EFB8704710B5C0E96A
:104F7C0001120022C260012202744361024A029BA8
:104F8C000260C36110BD00BFEC9E0B00D0E90503AD
:104F9C00834204D90278022A02D01030F8E70020AC
:104FAC007047D0E90503984204D20378012B18BF4F
:104FBC00002070470020704770B513689D68136817
:104FCC0003F1100414608669B4420AD29B698C68A0
:104FDC00A34201DAAB42F2DDA342CCBF0020012098
:104FEC0000E0002070BD73B501F1100304461646B5
:104FFC00019300250198A36983420BD982688B68C1
:10500C009A4207DAB54206D001AA20460135FFF7CD
:10501C00D3FFEFE7002002B070BD2DE9F341089DEE
:10502C00984601F110030446174601930026019897
:10503C00A36983421AD982688B689A4216DAAE4207
:10504C000BD1386001AA2046FFF7B6FF28B1019BAF
:10505C00C8F8003002B0BDE8F08101AA2046FFF785
:10506C00ABFF20460136FFF7A7FFE0E70020F1E792
:10507C00F0B5013B0024D1E90176F61BA64208DD10
:10508C00A34206DD45683D442D5D02F8015B013409
:10509C00F1E700231370F0BD1FB5144610236A46C8
:1050AC00FFF7E6FF04492246684601F0EBFB431E7E
:1050BC005842584104B010BDFA970B001FB5144666
:1050CC0010236A46FFF7D4FF04492246684601F0D4
:1050DC00D9FB431E5842584104B010BD36970B0003
:1050EC0010B5044600680B4628B103F0F8FBE368E2
:1050FC000133E36010BD60680028F8D0D4E90221C8
:10510C00013A8A4288BF4354F1E703467F2B37B5F7
:10511C000846D9B204D803B0BDE83040FFF7E0BF71
:10512C0001F03F01B3F5006FC3F3871541F0800424
:10513C0007D245F0C0010190FFF7D2FF019821463C
:10514C00E9E71B0B43F0E0010190FFF7C9FF05F005
:10515C003F01019841F08001EEE700002DE9FF4787
:10516C0000244E68DFF8CCA080460F461546A146B9
:10517C00B868B0425ADDD8F80430995D9A19002C01
:10518C004BD0752905D86D2907D862291ED0662900
:10519C001ED02846FFF7A4FF3DE0A1F16E04072CBA
:1051AC00F7D80FF2080C5CF824F000BFE1510B00AB
:1051BC009F510B009F510B009F510B00E5510B00B1
:1051CC009F510B00E9510B00ED510B000821E0E75A
:1051DC000C21DEE70A21DCE70D21DAE70921D8E70B
:1051EC00311D884217DD02A904333344084612F8F6
:1051FC00014F01F8014B9A42F9D101AA51468DF8A1
:10520C000C9001F03FFB012805D1BDF804002946A4
:10521C00FFF77BFF0536002404E05C2904D0284608
:10522C00FFF75EFF0136A3E70124FBE7012004B082
:10523C00BDE8F087D0A10B007FB50C4606460C49A3
:10524C001046154603F022FBD4E90131C91A01318D
:10525C00284603F097FA00236A4621463046CDE9EA
:10526C00013300950393FFF779FF04B070BD00BFC5
:10527C002FA20B002DE9F04389B00546884604A8FF
:10528C0012491646994603F0AAFA002700974B4696
:10529C0003AA41462846FFF7C0FE044670B10399A5
:1052AC0004AA2846FFF7C8FF044608B90137EDE702
:1052BC00314604A803F020FB0028F7D004A803F023
:1052CC0043FA204609B0BDE8F08300BF2FA20B00C3
:1052DC0000230122C3604361028380F82A307047A7
:1052EC0008B50346FFF7FCFD044A1A604FF0FF3285
:1052FC001846DA62FFF7ECFF08BD00BFFC9E0B00FE
:10530C00D0E9022310B593423FBF42685C1CC460D5
:10531C00D15424BF012380F82A3010BD10B5436945
:10532C00044643B100EB4303597E09B1FFF7E8FF94
:10533C006369013B6361D4E90210636888424FF0F2
:10534C0000022ABF5B181A5403F8012C10BD70B56B
:10535C000446D0E9025066682D1A134630440A46BA
:10536C00294601F0A7FA85422DBFE368A368E360E4
:10537C00C01836BF0123E06084F82A3070BD0EB42B
:10538C0003B503AA52F8041B0192FFF7E0FF02B029
:10539C005DF804EB03B070472DE9F84304460E4664
:1053AC00174612B12221FFF7ABFFDFF80C81002565
:1053BC00715D06EB0509002974D0D4E902329A42DA
:1053CC0070D20B0634D501F0F003E02B05F1010986
:1053DC001DD116F8092002F0C003802B39D105F13C
:1053EC00020916F8093003F0C000802831D103F00F
:1053FC003F03920143EA013302F47C621A4392B2F6
:10540C0041462046FFF7BBFF4D460135D0E701F082
:10541C00E003C02B1DD116F8093003F0C002802A1E
:10542C0017D1890101F4F86203F03F031A43E7E74F
:10543C000D290AD807290CD9A1F10803052B08D886
:10544C00DFE803F009231707111D222923D05C295B
:10545C0021D0204604E05C212046FFF751FF622159
:10546C00FFF74EFFD1E75C212046FFF749FF66218D
:10547C00F6E75C212046FFF743FF6E21F0E75C2145
:10548C002046FFF73DFF7221EAE75C212046FFF73B
:10549C0037FF7421E4E75C212046FFF731FF99F8D0
:1054AC000010DDE72FB120462221BDE8F843FFF7BD
:1054BC0027BFBDE8F88300BFCC9E0B00426900EB10
:1054CC0042031A7E12B100221A7670472C21FFF784
:1054DC0017BF73B5436901910133082B16460FD8DA
:1054EC00FFF7ECFF4369019900EB43045A1C0125BB
:1054FC004261A576E676FFF703FF284602B070BD41
:10550C000020FBE710B50446FFF7EAFE054B2360CD
:10551C004FF0FF320023C4E90D232163E3632046DF
:10552C0010BD00BF0C9F0B0070B5436B01330446DC
:10553C000E4629D18D68016B013D4563CB685A1B22
:10554C00826388682844C31A002AE36304DD486830
:10555C004119184403F0DEFD226B616B5268E36B5A
:10556C000A445B1A0125C4E9012320462574FFF780
:10557C00AFFE636903F10C02F368B3FA83F35B09C2
:10558C0004F81230284670BD0020FCE730B5044604
:10559C0015460FCA84E80F002B78032B01BF01F1CD
:1055AC00FF3101326160A260204630BD1FB50A4652
:1055BC00044601466846FFF7E9FF019B581E002888
:1055CC0006DB236B5B681B5C202B05D10138F6E7EF
:1055DC004FF0FF3004B010BD2C2B18BF4FF0FF3034
:1055EC00F8E71FB504460A4601466846FFF7CEFFAA
:1055FC00236B0298DA68824205D95968095C202924
:10560C0001D10130F7E7002807DB5B681B5C2C2B12
:10561C0018BF4FF0FF3004B010BD4FF0FF30FAE769
:10562C002DE9F04F44684FF0010C4FF0FF36D0F8E5
:10563C0000E0964580F0B98111F80E80B8F1000FAA
:10564C0000F0B381B8F13A0F00F0988033D8B8F17C
:10565C00220F00F0A68010D8A8F109085FFA88F88C
:10566C00B8F1170F0DD89F4D0CFA08F818EA050F72
:10567C0007D0056801350560D9E7B8F12C0F00F0AB
:10568C003381D0F8008042450ED911F808505DB135
:10569C003A2D00F269811F2D00F251810A2D00F282
:1056AC006081082D40F25681002B40F0628108F198
:1056BC00FF350560A5E0B8F17B0F37D02ED8B8F1D7
:1056CC005B0F33D0B8F15D0FDBD1002BD1D04FF095
:1056DC0002094568013D03EB0518002D55DBD8F890
:1056EC00047001374DD0D8F808A0BAF1FF3F48D16B
:1056FC0098F800B0CB454BD10EF1010EC0F808A0C4
:10570C00C8F808E003EB051EDEF80470013742D040
:10571C00DEF8087001373ED18560AAE7B8F17D0F3D
:10572C00AFD1002BA5D04FF00109D2E70134002BEB
:10573C009FD04568099FAF424AD905F1010EC0F8C8
:10574C0004E003EB051ECEE901664FEA051A0025BD
:10575C00CEF80C5085686F1C1FBF03EB0519D9F8E8
:10576C000C500135C9F80C50B8F17B0F0CBF01255A
:10577C00022503F80A500568CEF804504568013D2F
:10578C00CAE7013DA8F11008A7E701357FF471AF16
:10579C006FF001041EE0013D6F1CAEF1100EB3D191
:1057AC0067E70EF10109C0F80090D0F8008042457F
:1057BC0040F2938011F80850002D00F08E80222DBD
:1057CC0030D1F3B14568099FAF4206D8C0F800E06C
:1057DC004FF0FF342046BDE8F08F05F1010E4FEA83
:1057EC00051803EB0515C0F804E0C5E901660027B0
:1057FC00EF60D0F800E04FF0030A03F808A0C5E909
:10580C00019E85686F1C04F101043FF432AF002B3C
:10581C003FF42FAF03EB051EDEF80C500135CEF82C
:10582C000C5026E75C2D11D108F10105AA420DD9C7
:10583C0005604D5D752D2BD86D2D0BD8662D27D899
:10584C005B2D1DD8222D01D02F2D21D105680135BE
:10585C000560AAE76E3D072D1AD801A757F825F069
:10586C0059580B009D580B009D580B009D580B0070
:10587C0059580B009D580B0059580B00A3580B009E
:10588C005C3DEDB20CFA05F540F241473D42DDD1ED
:10589C00C0F800E07CE708F1020505604FF0040A4F
:1058AC00D0F80080424503D80568013D0560CDE77E
:1058BC0011F80850002DF7D0A5F1300BBBF1090FF2
:1058CC0004D925F02005413D052DE1D808F101054D
:1058DC00BAF1010A0560E3D1E6E7C0F800E06FF029
:1058EC00020477E713008000002B3FF4C2AE8568FA
:1058FC006F1C3FF4BEAE2D015D5D013D012D7FF6A9
:10590C00B8AE456805F1FF3803EB051EB8F1000F82
:10591C00FFF6AFAE1EF8105C013D012D0AD85EF803
:10592C000C5C013506D05EF8085C013502D1C0F87C
:10593C0008809EE608F1FF38AEF1100EE6E7A5F1FF
:10594C002009244F5FFA89F90CFA09F919EA070FB3
:10595C007FF4AAAE203D5E2D9AD808F101050560B2
:10596C008FE60D2DF6D19FE605F0DF09B9F15D0F3D
:10597C00F8E74568099FAF427FF628AF05F10108AB
:10598C004FEA051903EB0515C0F80480C5E901665B
:10599C000027EF60D0F800804FF0040A03F809A04C
:1059AC00C5E901E80568013D83E6002B3FF412AF21
:1059BC004268511E03EB02130029FFF60BAF53F89C
:1059CC000C2C013203D053F8082C013287D001394A
:1059DC00103BF1E701100004F7B5C268044612B998
:1059EC00002003B0F0BD436900F12006ABB10021EB
:1059FC00C0E908114FF0FF318162C1690091416823
:105A0C003046FFF70DFE431C28D1257C002DE7D135
:105A1C00606900F027FF6561E56100254FF0FF37F5
:105A2C00C4E90855E2686168A76200952B463046C8
:105A3C00FFF7F6FD0028D3DBE06117D0000100F082
:105A4C0009FFE269606103460092C4E90855E26807
:105A5C006168A7623046FFF7E3FD01E00028BFDB79
:105A6C00636903EB0010A0610120BAE76369A361CD
:105A7C00FAE72DE9FF410446006BFFF7B4FA05463F
:105A8C0048B3024621466846FFF780FD294620466A
:105A9C00FFF78CFD294680462046FFF7A2FDB8F1A2
:105AAC00000FDDE9017619DB0028ACBF064647463E
:105ABC00236BDA68921B002AA26304DD58688119F3
:105ACC00384403F027FBA36B226B3B44D360206B61
:105ADC00FFF782FF012004B0BDE8F0810028A8BFC9
:105AEC00461CE5E738B5436B5A1C044618D0826B4C
:105AFC00002A08DD016BE5684868E16B2B44014422
:105B0C00184403F007FBD4E90C23A16B0B44E168A8
:105B1C000B44D360206BFFF75FFF4FF0FF336363E1
:105B2C0038BD000010B5034B0360044600F0C4F907
:105B3C00204610BDEC9F0B0010B50446FFF7F2FF9A
:105B4C0020461021FEF7A3FA204610BD10B500F038
:105B5C00C5FB044620B9034A03490448FEF700FB81
:105B6C00204610BD149F0B00319F0B00B0E60320A4
:105B7C0010B5036804460BB900F058FC2068BDE86A
:105B8C00104000F063BC38B504460430FFF7F0FF5A
:105B9C00606AA16A0368DD68D4E90223A8476068DB
:105BAC0000F05CFC2046BDE8384000F019BC38B56C
:105BBC0004460430FFF7DCFF606AA16A03689D6845
:105BCC00D4E90223A847A2682368D1885B692046E0
:105BDC00984718B9236820469B699847606800F07D
:105BEC003DFC012038BD000010B5044B0360044699
:105BFC00406808B100F022FC204610BDE0A00B006C
:105C0C0010B5034B03600446FFF7EEFF204610BDB2
:105C1C0008A00B0010B50446FFF7F2FF204640F633
:105C2C003C41FEF734FA204610BD000000F12C0177
:105C3C00002281600A4942604FF4416C826180F815
:105C4C002020084A4262C0E903C1C8220221818295
:105C5C0082624FF47A71044AC1610260704700BFDE
:105C6C00609EA92058E6032008A00B0010B5074C35
:105C7C00236843B940F63C40FEF705FA034608B1E9
:105C8C00FFF7D4FF2360206810BD00BF54E603204B
:105C9C0010B5406A00F026F9FFF7E8FF4FF4FA72EE
:105CAC000368C261BDE810405B6818474FF441605F
:105CBC007047000038B504460D46064902F08FFDCA
:105CCC0023464FF440621021284600F059FA204632
:105CDC0038BD00BF2FA20B002DE9F04FADF5217D93
:105CEC0080460C4600F03EFD60B3204603F0A9FA56
:105CFC00DFF8D0B0DFF8D0A0DFF8D0900746002551
:105D0C00BD421FD27E1B40F26D2240F26E239642A2
:105D1C0088BF1E46631900935A46334640F26F21E2
:105D2C0004A800F0B7FD9AF800308DF8003004AAF2
:105D3C003C23494602A800F0C5FF03A8FEF78CFAE5
:105D4C003544DDE723464FF440621021404600F015
:105D5C0095FA074680B300F005FD68B3204603F0C2
:105D6C0070FADFF860B0DFF860A0DFF8649080466E
:105D7C000025454520D2A8EB050640F26D2240F2E5
:105D8C006E23964288BF1E46631900935A463346CB
:105D9C0040F26F2104A800F07DFD9AF800308DF8D8
:105DAC00003004AA3C23494602A800F08BFF03A84C
:105DBC00FEF752FA3544DCE738460DF5217DBDE897
:105DCC00F08F00BF439F0B0050E60320489F0B0051
:105DDC00629F0B0010B5144C144988B0684602F051
:105DEC00FEFC009A12492046FEF7BAF9FFF73EFF77
:105DFC000099FFF771FFFFF739FF03680121DB689A
:105E0C009847FFF733FF014604A8FFF753FF049AA6
:105E1C0008492046FEF7A4F904A802F095FC684650
:105E2C0002F092FC08B010BDB0E603207B9F0B0083
:105E3C00889F0B00A69F0B00F8B51049044610482C
:105E4C00FEF78EF9C82540F6D846606A03682946E5
:105E5C00DF68FF2202230135B847B542F5D1094965
:105E6C000748FEF77DF9204600F0A4FA2046FFF71C
:105E7C00B1FF2046BDE8F84000F0F4B9BC9F0B0020
:105E8C00B0E60320D09F0B00084B012210B51A700E
:105E9C0002F0FCFE064C014600234FF40052204653
:105EAC0000F016F8034B236010BD00BF50E6032032
:105EBC0058E60320EC9F0B00704710B510210446E8
:105ECC00FEF7E5F8204610BD0368C9B29B68184779
:105EDC0030B5034DC0E90223C0E9005130BD00BF0D
:105EEC0034A00B00406801F0E1B810B5044600681E
:105EFC0001F01FF9204610BD2DE9F7430446406818
:105F0C0001900D4616461F4601F00AF9A7B1E1684B
:105F1C00606841F0500101F0FCF8290A6068FFF755
:105F2C00D3FF29466068FFF7CFFF6068002101F0BE
:105F3C00F3F848B1002400E0012401A8FFF7D5FFD5
:105F4C00204603B0BDE8F083202F217B6068B84663
:105F5C0028BF4FF020080123424641F0500101F0C8
:105F6C00C2F802F093FE03681B6998474045E1DBD9
:105F7C0006EB080902F08AFE03685B69984706F88D
:105F8C00010B4E45F6D14544A7EB0807BEE72DE9BA
:105F9C00F74F0446406801900E4690461D4601F0AE
:105FAC00BFF84FF00109B9F1000F2AD04DB3E168E9
:105FBC00606841F0500101F0ACF8310A6068FFF7FD
:105FCC0083FF60683146FFF77FFFA5F11E0A474645
:105FDC00A6EB080B606817F8011B0368013D9B6872
:105FEC00984755450BEB0706B84601D0002DF1D16B
:105FFC006068012101F090F80028D7D04FF000091B
:10600C00D1E701A8FFF771FF484603B0BDE8F08F58
:10601C002DE9F0438BB00E46154680464068019042
:10602C001C4601F07DF8AE4229D2264425448CB1A1
:10603C001E2C2746D8F8003028BF1E27F61BD3F895
:10604C00089002AA3B4631464046ED1BC84748B96A
:10605C00002400E0012401A8FFF747FF20460BB005
:10606C00BDE8F083D8F8003002AAD3F80C9029468A
:10607C003B464046C8470028EAD0E41BD7E7E9D99D
:10608C00002CE7D0D8F800301E2C274628BF1E273E
:10609C00D3F8089002AA3B4631464046C847002830
:1060AC00D6D0D8F8003002AAD3F80C9029463B463B
:1060BC004046C8470028CBD03E443D44E41BDFE7B4
:1060CC0003685B68184710B58369044633B131B176
:1060DC00236820469B6898470023A36110BD00F0FD
:1060EC00D5F9A369C01AE3699842F1D2F6E710B565
:1060FC00C36904461BB100F0C9F9A06110BD036867
:10610C00BDE810409B68184700F0A8B90EB400B564
:10611C008CB00DAA4FF0200C52F8041B0392CDE961
:10612C0000120023016804AA0120CDE904C300F089
:10613C00BDFA0CB05DF804EB03B0704707B513461D
:10614C0039B10022CDE900220A4601681E2000F078
:10615C00BDFA03B05DF804FB10B504460430FFF73C
:10616C0007FD2368E1685B692046984718B92368E6
:10617C0020469B6998476068FFF7C6FF012010BD59
:10618C00F8B50546043014460E461F46FFF7F0FCE2
:10619C00EA68C4F101041444B4420AD3A96838462D
:1061AC00314402F073FB01246868FFF7ADFF204611
:1061BC00F8BD0024F8E70000F0B521F00304184FF7
:1061CC00184E194D0444A0420CD050F8043B7B43AC
:1061DC004FEA734373435A404FEAF24202EB820296
:1061EC002A44F0E701F0030404440023A04204D045
:1061FC0014F8015D45EA0323F8E7094843430948CD
:10620C004FEA73434A4058435040084B80EA1040D1
:10621C005843074B80EA5030584380EA1040F0BD99
:10622C00512D9ECC9335871B646B54E66BCAEB8562
:10623C0035AEB2C2F8B504460430FFF799FCA3683A
:10624C0000229F689A60A668054AF1883046FFF7DD
:10625C00B3FFB76005466068FFF756FF2846F8BDE8
:10626C003F2A1C8570B504468568FFF7E3FFA860DC
:10627C00236820461B69BDE8704018472DE9F041A2
:10628C000446043090460D461F46FFF771FCE26849
:10629C00C8F101031344AB4219D3384602F0D1FFC5
:1062AC00404514D2A66835442946384602F099FF79
:1062BC0058B142460021284602F046FF394628468E
:1062CC0002F099FF2046FFF7CDFF012500E00025E5
:1062DC006068FFF719FF2846BDE8F08173B590F8A8
:1062EC00203004460D46ABB1B1F5805F17D22C4E71
:1062FC000A4630462B49FDF733FFA1682A46304643
:10630C00FFF71CFF00230093274A316801231E204E
:10631C0000F0D4F90B2D02D855BB002026E0A36861
:10632C0022691968914223D19988A28A91421FD17E
:10633C00DA88ABB29A421BD82046FFF77BFFA368E2
:10634C009A688242064614D1E268AA4205D9002115
:10635C005955E2680135AA42FAD8D4E902322046EE
:10636C00DA80A568FFF766FFA860012002B070BD57
:10637C000026A1680A68002ACFD088688B88019013
:10638C00C988009106480949FFF7C0FECDE90056BF
:10639C00A38A226906490248FFF7B8FEBDE700BF91
:1063AC00B0E6032048A00B002EA20B0060A00B004F
:1063BC0091A00B0038B50446C2688068002102F039
:1063CC00C3FEA36822691A60A368A28A9A80D4E9E2
:1063DC0002322046DA80A568FFF72CFFA86038BD92
:1063EC0037B504468568FFF725FFA86094F8203080
:1063FC009BB1A3680A4DDA880A492846FDF7B0FE1E
:10640C00A1682846CA88FFF799FE00230093064A24
:10641C00296801231E2000F051F903B030BD00BFE4
:10642C00B0E60320C2A00B002EA20B0008B5024B55
:10643C001B685B6C019308BD4802030008B5024B56
:10644C001B689B6C019308BD4802030008B5024B06
:10645C001B68DB6C019308BD4802030008B5024BB6
:10646C001B685B6D019308BD4802030008B5024B25
:10647C001B685B68019308BD1802030008B5024B4A
:10648C001B68DB68019308BD1802030008B5024BBA
:10649C001B685B69019308BD1802030008B5024B29
:1064AC001B68DB68019308BD2802030008B5024B8A
:1064BC001B689B69019308BD2802030008B5024BB9
:1064CC001B68DB69019308BD2802030008B5024B69
:1064DC001B681B6A019308BD2802030008B5024B18
:1064EC001B685B6A019308BD2802030008B5024BC8
:1064FC001B689B6A019308BD2802030008B5024B78
:10650C001B68DB6A019308BD2802030008B5024B27
:10651C001B681B6B019308BD2802030008B5024BD6
:10652C001B681B6C019308BD2802030008B5024BC5
:10653C001B689B6C019308BD2802030008B5024B35
:10654C001B68DB6C019308BD2802030008B5024BE5
:10655C001B681B6D019308BD2802030008B5024B94
:10656C001B685B69019308BD6402030008B5024B0C
:10657C001B689B68019308BD6802030008B5024BB9
:10658C001B68DB68019308BD6802030008B5024B69
:10659C001B689B68019308BD3C02030008B5024BC5
:1065AC001B68DB68019308BD3C02030008B5024B75
:1065BC001B681B69019308BD3C02030008B5024B24
:1065CC001B685B69019308BD3C02030008B5024BD4
:1065DC001B689B69019308BD3C02030008B5024B84
:1065EC001B68DB69019308BD3C02030008B5024B34
:1065FC001B689B6A019308BD3C02030008B5024B63
:10660C001B68DB6A019308BD3C02030008B5024B12
:10661C001B681B6C019308BD3C02030008B5024BC0
:10662C001B681B68019308BD4C02030008B5024BA4
:10663C001B685B68019308BD4C02030008B5024B54
:10664C001B689B68019308BD4C02030008B5024B04
:10665C001B681B69019308BD4C02030008B5024B73
:10666C001B685B69019308BD4C02030008B5024B23
:10667C001B689B69019308BD4C02030008B5024BD3
:10668C001B68DB69019308BD4C02030008B5024B83
:10669C001B681B6A019308BD4C02030008B5024B32
:1066AC001B685B6B019308BD6002030008B5024BCD
:1066BC001B685B6D019308BD6002030008B5024BBB
:1066CC001B689B6D019308BD6002030008B5024B6B
:1066DC001B685B6E019308BD6002030008B5024B9A
:1066EC001B68DB6E019308BD6002030008B5024B0A
:1066FC001B681B6F019308BD6002030008B5024BB9
:10670C001B685B68019308BD2002030008B5024BAF
:10671C001B685B69019308BD2002030008B5024B9E
:10672C001B68DB6C019308BD2002030008B5024B0B
:10673C001B685B6D019308BD2002030008B5034B79
:10674C001B68D3F88830019308BD000020020300B9
:10675C0008B5034B1B68D3F89430019308BD0000B7
:10676C002002030008B5024B1B685B69019308BD4E
:10677C004402030008B5024B1B681B6A019308BD59
:10678C004402030008B5024B1B68DB6B019308BD88
:10679C004402030008B5024B1B685B68019308BDFB
:1067AC004002030008B5024B1B689B68019308BDAF
:1067BC004002030008B5024B1B68DB68019308BD5F
:1067CC004002030008B5024B1B681B69019308BD0E
:1067DC004002030008B5024B1B685B69019308BDBE
:1067EC004002030008B5024B1B689B69019308BD6E
:1067FC004002030008B5024B1B68DB69019308BD1E
:10680C004002030008B5024B1B681B6A019308BDCC
:10681C004002030008B5024B1B681B6B019308BDBB
:10682C004002030008B5024B1B685B6B019308BD6B
:10683C004002030008B5024B1B681B6C019308BD9A
:10684C004002030008B5024B1B685B6C019308BD4A
:10685C004002030008B5024B1B681B68019308BD7E
:10686C001C02030008B5024B1B685B68019308BD52
:10687C001C02030008B5024B1B689B68019308BD02
:10688C001C02030008B5024B1B685B69019308BD31
:10689C001C02030008B5024B1B68DB69019308BDA1
:1068AC001C02030008B5024B1B681B6A019308BD50
:1068BC001C02030008B5024B1B685B6A019308BD00
:1068CC001C02030008B5024B1B68DB6A019308BD70
:1068DC001C02030008B5024B1B681B6B019308BD1F
:1068EC001C02030008B5024B1B68DB6B019308BD4F
:1068FC001C02030008B5024B1B681B6C019308BDFE
:10690C001C02030008B5024B1B685B6C019308BDAD
:10691C001C0203000021FFF7F9BE10B58368044682
:10692C000BB902F01BFAC3689847A3681BB103228A
:10693C0021462046984720461021BDE81040FDF71F
:10694C00A6BB10B58368044613B1032201469847D1
:10695C00204610BD10B54368013B0446436063B943
:10696C0003689B689847A368013BA3602BB9236815
:10697C002046DB68BDE81040184710BD70B5D0E963
:10698C000053044605EB0316AE4204D0284601F032
:10699C00DBFE1035F8E72068FFF764FF204670BD7A
:1069AC0013B50B460246D0E900016C4684E803009F
:1069BC0093E8030082E8030094E8030083E80300F3
:1069CC0002B010BD024800230360FFF72FBD00BFCB
:1069DC0068E60320002240681146FFF7F3BE002250
:1069EC0040681146FFF70EBF002240681146FFF7C2
:1069FC0019BF40680022FFF70DBF4068002281F0EC
:106A0C000101FFF7F7BE002340681A461946FFF74D
:106A1C00E9BE002340681A461946FFF7DBBE002288
:106A2C0040681146FFF7BEBE406800220221FFF706
:106A3C00C1BE002340681A46FFF7ACBE084B10B528
:106A4C00282422461846002102F07EFB054B0480C8
:106A5C004FF0FF32426004225A60034A1A6010BDA4
:106A6C0074E603206CE6032004A10B0070470020A1
:106A7C00704710B510210446FDF709FB204610BDE8
:106A8C0008B5FFF7F6FF08BD30B500224FF69C7431
:106A9C00026084808D888C800C68858004600A601C
:106AAC0030BD10B504460068FFF7DCFE204610BD73
:106ABC0038B5C468F4B12378022B03D104F10C006F
:106ACC00FFF7EFFF656835B12846FFF73AFF102155
:106ADC002846FDF7DCFAA56835B12846FFF731FFEB
:106AEC0010212846FDF7D3FA20461421BDE8384082
:106AFC00FDF7CDBA38BD0B6803604B68436013B12A
:106B0C005A6801325A60704737B5044668460D46DC
:106B1C00FFF7F1FF009B019A23606260002301A83C
:106B2C0001930093FDF798FB35B1281DFDF794FBFD
:106B3C0008212846FDF7ABFA204603B030BD826829
:106B4C0010B50AB902F00AF9BDE81040C36818473D
:106B5C0008B5006800F11001FFF7F1FF08BD82686D
:106B6C0010B50AB902F0FAF8BDE81040C36818472E
:106B7C0008B5006800F11001FFF7F1FF08BD000037
:106B8C0038B500230446036010200D46FDF77BFA50
:106B9C0028B10123C0E90133024B0360C5602060BA
:106BAC00204638BD40A10B0038B5002383608B68AC
:106BBC0004460D462BB102229847EB68E360AB68A4
:106BCC00A360204638BD0000F0B589B00468684663
:106BDC00FFF75AFF4FF00203D4E84F2F002A03D1DE
:106BEC00C4E8413F0029F7D125D104F10C056946D1
:106BFC002846FFF749FFBFF35B8F0123637000202A
:106C0C0004F10803BFF35B8F53E8006F43E8000205
:106C1C00002AF9D1BFF35B8F6EB1FFF77FFD78B11E
:106C2C0029463046FFF78BFF3046FFF78AFE1021CE
:106C3C003046FDF72CFA6846FFF733FF09B0F0BD7C
:106C4C00314602A8FFF7B0FFE068B4F9105008B164
:106C5C0002F0DAFA06901020ADF81C50FDF713FA8A
:106C6C000546E8B1002787601820FDF70CFA0446AA
:106C7C0088B10146876002A8FFF792FE049BA268C8
:106C8C00A360059B049206A9E268E36004F110007E
:106C9C000592FFF7F9FE084BEB60084B2C60AB60DC
:106CAC0006A8FFF7FEFE02A8FFF74BFE00222946BE
:106CBC000348FFF73BFDB7E75D6B0B00E16D0B0085
:106CCC0027690B002DE9F04F8BB005469DF850A0BD
:106CDC000F4690469946FFF745FD07AE834638BBF5
:106CEC004FF62E73059005A93046ADF81830FFF716
:106CFC00CBFE1420FDF7C7F9044648B102230370FC
:106D0C000123C0E901BB437031460C30FFF7BCFED8
:106D1C002846214640F8044BFFF732FF3046FFF778
:106D2C00C0FE05A8FFF7BDFE28460BB0BDE8F08FEE
:106D3C000C2300241420CDE908440793FDF7A3F994
:106D4C00014618B1C0E901440470447004A80391D1
:106D5C00FFF716FF1E4B08930820FDF794F9044625
:106D6C0010B103A9FFF7C7FE00965FFA8AF34A46F3
:106D7C00414638460994FFF7FDFCB8B9039B5B7894
:106D8C0003F0FF0293B94FF69C7305A903A8059273
:106D9C00ADF81830FFF718FF05A8FFF782FE05A81D
:106DAC000999FFF7B1FE06A8FDF756FA03A905A845
:106DBC00FFF7A1FE059B069A2B606A60002306A8CC
:106DCC0006930593FDF748FA04A8FDF745FAABE7DF
:106DDC005D6E0B00012AF8B5054603D10B68036004
:106DEC000020F8BD022A10D0032AF9D10468002C27
:106DFC00F6D004F11000FFF754FE2046FFF7A1FD7A
:106E0C0018212046FDF743F9EAE718200E68FDF734
:106E1C003AF9044650B13146FFF7C6FE3069B6F96F
:106E2C00147008B102F0F0F92061A7822C60D7E74A
:106E3C0038B5002383608B6804460D462BB10222C3
:106E4C009847EB68E360AB68A360204638BD000050
:106E5C00F0B589B004460D4601A81146FFF754FE63
:106E6C00A4B124B21DB1284602F0CEF9054601A802
:106E7C0003A90395ADF81040FFF7A6FE03A8FFF792
:106E8C0010FE02A8FDF7E8F909B0F0BD019D012341
:106E9C00D5E84F2F002A03D1C5E8413F0029F7D18F
:106EAC00EFD12B73BFF35B8F6B702B1DBFF35B8F1D
:106EBC0053E8006F43E80042002AF9D1BFF35B8F1F
:106ECC00002EDED02046FFF729FC074660B105F105
:106EDC000C013046FFF743FE3046FFF732FD102120
:106EEC003046FDF7D4F8CCE7314603A8FFF7A0FFF6
:106EFC002B7B8DF81C301020FDF7C5F80546D0B162
:106F0C0087601420FDF7BFF8044678B1876001460E
:106F1C0003A8FFF745FD059BA268A360069B05929D
:106F2C00E268E3609DF81C3006922374064BEB601C
:106F3C00064B2C60AB6003A8FFF703FD002229462B
:106F4C000348FFF7F3FBC7E77D6B0B00616F0B008A
:106F5C0027690B00012A70B5044603D10B68036046
:106F6C00002070BD022A0CD0032AF9D10468002C31
:106F7C00F6D02046FFF7E5FC14212046FDF787F8F4
:106F8C00EEE714200E68FDF77EF8054620B1314679
:106F9C00FFF74EFF337C2B742560E1E7002240683D
:106FAC001146FFF72FBC002240681146FFF73ABC90
:106FBC0040680022FFF72EBC4068002281F00101DE
:106FCC00FFF718BC002340681A461946FFF70ABCA5
:106FDC00002340681A461946FFF7FCBB00224068A4
:106FEC001146FFF7EFBB002240681146FFF7DABBF2
:106FFC00406800220221FFF7DDBB002340681A46DF
:10700C00FFF7C8BB024B03225A60024A1A60704752
:10701C009CE603205CA10B007047F8B506461546AC
:10702C000C468F18BC4206D0336814F8011B9B68C1
:10703C0030469847F6E72846F8BD007C0022FFF75B
:10704C0045BA007C0021FFF749BA007C0021FFF70C
:10705C004DBA007C0021FFF751BA007C0021FFF7EC
:10706C0055BA10B514210446FDF711F8204610BD91
:10707C0038B5044615464FF47A730022C4E901234F
:10708C00094B2174084623602946FFF747FABF30A5
:10709C0008D16B69DB0705D56868FFF7E3FBE86887
:1070AC00FFF7E0FB204638BD98A10B000023007CC5
:1070BC001A461946FFF7F2B97FB500221423CDE921
:1070CC000122ADF804300B788DF808304B6803932F
:1070DC00CB680493007C0B7A059301A9FFF736FA71
:1070EC0007B05DF804FB1FB5003B8DF800104FF0A6
:1070FC006401039118BF0123694601928DF8083091
:10710C00FFF7DAFF05B05DF804FB007C0022FFF707
:10711C00CDB9C9B2FFF7F9BF007C0022FFF7CEB999
:10712C0008B50021007CFFF701FAB0FA80F04009A5
:10713C0008BD08B50021007CFFF700FAB0FA80F01A
:10714C00400908BD704710B518210446FCF79FFF95
:10715C00204610BDF0B5037D062B8DB00E4600F118
:10716C0004074FF0000412D000F1080515F8011DBA
:10717C000A22304601F093FAAF42044419D0002C95
:10718C00F4D02E21304601F07BFA0444EEE72F2395
:10719C006A4639460A208DF80040FFF7DFF9684649
:1071AC0002F04FF833680246DB6869463046984770
:1071BC00044620460DB0F0BD10B5054B0446112217
:1071CC0040F8043B002101F0BFFF204610BD00BF7A
:1071DC00C0A10B000346074A10B543F8042B01F17C
:1071EC00100251F8044B43F8044B9142F9D10A7840
:1071FC001A7010BDC0A10B0010B59DF8084044EAF0
:10720C00032343EA024242EA01610423416003750D
:10721C0010BD000007B5064B0360CB7800938B784C
:10722C004A780978FFF7E8FF03B05DF804FB00BF6C
:10723C00C0A10B0000F11003012213F8101C01294E
:10724C00184608D153F8041C02EB4102013A03F131
:10725C001003F2D17047022904BF53F8041C5218D2
:10726C00F4E70EB4F0B588B000AF07F13405102187
:10727C0055F8042B7A6004462B467818FD60FFF70E
:10728C0019FB0F287A681AD900F1080323F00703B9
:10729C006E46ADEB030D411C2B466846FD60FFF7B7
:1072AC0009FB021E04DD236869469B68204698474B
:1072BC00B5462037BD46BDE8F04003B07047002806
:1072CC00F7D0236802469B6807F1100120469847C7
:1072DC00EFE738B50B6803604D6843689D42044680
:1072EC0008D015B16B6801336B60606808B1FFF7AB
:1072FC0031FB656038BD07B503688DF807109B68D6
:10730C0001220DF10701984703B05DF804FB0B4611
:10731C001146002210B5C0E90022044683600BB967
:10732C00204610BDFFF7D5FFFAE78368EBB11A785A
:10733C00032A1AD8DFE802F00417021B0520704755
:10734C0002685B685268D05C2D2812D0A0F1300323
:10735C00092B0ED974280ED066280CD0A0F16E0320
:10736C00584258417047062070470020704704204F
:10737C007047032070470220704710B50446FFF792
:10738C00D4FF02280ED0C31EDBB2012B14D8226806
:10739C00A36850685B68BDE810400A2200211844BD
:1073AC0002F002B82268A36852685B68D05CA0F156
:1073BC0074035842584110BD0020FCE738B5002337
:1073CC00C0E9003304460E48C4E90203A9B10B78A6
:1073DC00032B06D08BB9136858684B68C35C6E2BB3
:1073EC0007D013684D6858688B6828445B1BA060F5
:1073FC00E36011462046FFF76CFF204638BD00BF06
:10740C002FA20B0038B500250B46C0E90055C0E98A
:10741C000255C0E90455044611464BB11A78012AAD
:10742C0006D103F11002DB6882604361FFF751FF64
:10743C00204638BD10B54369044663B18068E060EE
:10744C00013B1030A0602061636113B1FFF7F2FEC5
:10745C00A060012000E0184610BD10B57D21044647
:10746C00FFF749FF01232371204610BD08B50379AE
:10747C00012B02D0022B04D008BD2C21FFF73BFFBF
:10748C00FAE73A21FAE710B50446FFF7EFFF20467A
:10749C007B21FFF730FF00232371204610BD000035
:1074AC0013B504460191FFF7E1FF2368019ADB68ED
:1074BC0003492046984701232046237102B010BD92
:1074CC00FA970B0013B504460191FFF7CFFF236821
:1074DC00019ADB6803492046984701232046237113
:1074EC0002B010BDCCA10B002DE9F0470D462221B6
:1074FC0090460446FFF7FFFEDFF8A490A8442F4601
:10750C004745BA463DD017F8016B222E06D05C2EAB
:10751C0004D0304601F0E8FD0028F1D12368AAEB35
:10752C0005029B682946204698475C212046FFF7B8
:10753C00E2FE0D2E0AD8072E1CD9A6F10803052B46
:10754C0018D8DFE803F00D0F11171315222E01D0F8
:10755C005C2E0FD131462046FFF7CDFE3D46CFE7DE
:10756C006221F8E77421F6E76E21F4E76621F2E771
:10757C007221F0E723683246DB684946204698477B
:10758C00ECE7BD4205D023687A1B9B682946204650
:10759C00984722212046FFF7AEFEBDE8F08700BFDA
:1075AC00CFA10B0013B50446CDE90021FFF75EFF18
:1075BC002046DDE90021FFF797FF022320462371C7
:1075CC0002B010BD13B50446CDE90021FFF74EFF04
:1075DC002046DDE90021FFF787FF012320462371B8
:1075EC0002B010BD80680368DB6818477047084616
:1075FC0011B10B685B68184770477047704770474C
:10760C00704738B504460D4600682E2101F0DFFDA9
:10761C002368C31A2B6023B1037803B101302368AC
:10762C002060184638BD10B50C210446FCF72FFD20
:10763C00204610BD10B504210446FCF728FD204659
:10764C0010BD10B504210446FCF721FD204610BDE9
:10765C00FEF7FCBE08B501F0C4FDB0FA80F040099D
:10766C0008BD704710B50C4601F032FA844210D0B8
:10767C0001F04CFB844205D101F048FBBDE8104001
:10768C0001F0C1B92CB1236820465B68BDE81040FD
:10769C00184710BD0B6803604B68436013B15A6800
:1076AC0001325A60704713B504460846019101F047
:1076BC00C8FD01990246204602B0BDE81040FFF714
:1076CC0081BF13B504460846019101F0BAFD236849
:1076DC000199DB680246204602B0BDE8104018470D
:1076EC0007B503688DF80710DB6801220DF107015F
:1076FC00984703B05DF804FB0EB403B503AB00214F
:10770C0053F8042B006A019300F0E7FF02B05DF818
:10771C0004EB03B070470A6802604A6842600022BA
:10772C00C0E9022210B502618C688460CC68C46028
:10773C000C698A60CA6004610A6110BD2DE9F74FBB
:10774C00D0E900844FF0140A00930AFB04F4184BA0
:10775C00A41017465C434546002C21DD66100AFB3D
:10776C0006F005EB00093A46B9F804B02858019127
:10777C005F4528BF5A4601F06CFD002801994FF077
:10778C0001030BD15F4503D1009A13703446E3E734
:10779C00FCD9A61B09F11405013EF7E7F9DBF5E767
:1077AC00A5EB08050248AD10684303B0BDE8F08FA7
:1077BC00CDCCCCCC7FB50369057E019103B3F9B177
:1077CC00002600F10C04039603A901A8FFF719FF8A
:1077DC000146A8B10DF10B03039A8DF80B602046FE
:1077EC00FFF7ACFF9DF80B3053B12368142404FB56
:1077FC000034083434F9023C002BA8BFDDB2E3E7B7
:10780C00284604B070BD000010B5094C2378BFF3B6
:10781C005B8FDB0709D42046FCF748FC28B12046D7
:10782C00FCF749FC034801F059FC034810BD00BFAC
:10783C00A8E6032007760B000CB7032010B5094C03
:10784C002378BFF35B8FDB0709D42046FCF72EFCB3
:10785C0028B12046FCF72FFC034801F03FFC0348FD
:10786C0010BD00BFACE603206F760B0010B70320F1
:10787C0038B500250446C0E90055C0E904558560BB
:10788C00856140F8245FFEF7D1FDFFF7BDFFE06195
:10789C00FFF7D4FF25732062204638BD10B50A4C83
:1078AC002378BFF35B8FDB070CD42046FCF7FEFB81
:1078BC0040B10648FFF7DCFF2046FCF7FCFB044810
:1078CC0001F00CFC014810BDA4E60320B4E6032033
:1078DC00FD7D0B00024A034903480023FEF706BF57
:1078EC00E17B0B006D7B0B00ED7A0B0000231A463D
:1078FC0019461846FEF7FABE37B58D680446684639
:10790C00FFF7C8FE6A4629462046FFF77BFD01A813
:10791C00FCF7A2FC204603B030BD37B5CD68044659
:10792C006846FFF7B7FE6A4629462046FFF746FD34
:10793C0001A8FCF791FC204603B030BD37B50D69AA
:10794C0004466846FFF7A6FE6A4629462046FFF71E
:10795C00DEFC01A8FCF780FC204603B030BD000023
:10796C0070B58AB00D46014604A8FFF7C5FF144E4A
:10797C0004A8FFF75FFDE8B104A96846FFF7CDFF47
:10798C0002983146FFF766FE044610B12C1E18BF54
:10799C00012401A8FCF760FC002CE9D004A968467E
:1079AC00FFF7CCFF6846FFF7E8FC286001A8FCF75E
:1079BC0053FCDDE705A8FCF74FFC0AB070BD00BF17
:1079CC00D5A10B0037B50C4620461349154601F0DE
:1079DC0008FC50B901F07CF84FF4165101F068F82E
:1079EC0003B0BDE8304001F073B80C49204601F0FB
:1079FC00F8FB78B94FF4165301A928460193FFF709
:107A0C00AFFF01F083F9019900F0FAFF01F07EF964
:107A1C0003B030BD0020FBE7DAA10B00E1A10B00A5
:107A2C0070B5D0E900531426044606FB0356AE424B
:107A3C0005D005F10800FFF7F3FF1435F7E72068D0
:107A4C00FEF710FF204670BD10B504460C30FFF752
:107A5C00E7FF2046FEF792FF204610BD10B5044B01
:107A6C00044640F8043BFFF7EFFF204610BD00BF73
:107A7C00949E0B0010B50446FFF7F0FF204624211E
:107A8C00FCF705FB204610BD10B5034B0360044604
:107A9C00FFF7E4FF204610BD80A20B0010B5044692
:107AAC00FFF7F2FF20462421FCF7F1FA204610BD27
:107ABC000022C0E9002210B582600C6804604C689A
:107ACC0044608C680A604A6084608A6010BD10B59E
:107ADC00036804461868FEF7C1FC204610BD000080
:107AEC002DE9F04F87B0804603931C4B5B68C3F3C2
:107AFC000803894616466BB9FFF7D0FE044600F121
:107B0C002403406A0593FFF7A3FD237B2BB105A843
:107B1C00FFF7DDFF07B0BDE8F08F01232373D4E935
:107B2C0000535FFA89F905EB830AAA4512D055F880
:107B3C00047B3146381DFFF73DFE8145F5D33B688C
:107B4C00039A0092D3F808B04A4633464146384669
:107B5C00D847EAE700232373D9E700BF00ED00E024
:107B6C002DE9F74F9B461A4B5B68C3F3080380461D
:107B7C00894616466BB9FFF791FE044600F12403C3
:107B8C00406A0193FFF764FD237B2BB101A8FFF73B
:107B9C009EFF03B0BDE8F08F01232373D4E900539B
:107BAC00F6B205EB830A55450ED055F8047B5946C1
:107BBC00381DFFF7FFFD8642F5D33B684A46DB686C
:107BCC00414638469847EEE700232373DEE700BFB3
:107BDC0000ED00E02DE9F341164B5B68C3F308039D
:107BEC0005460F461BBBFFF759FE00F12403044664
:107BFC00406A0193FFF72CFDD4E90063462406EBA1
:107C0C008308B04509D101A8FFF761FFA542B4BFB5
:107C1C000020012002B0BDE8F08156F8040B394673
:107C2C000430FFF7C7FD8442A8BF0446E9E70020F3
:107C3C00F0E700BF00ED00E0F8B5D0E901539D423C
:107C4C0004460E460DDB6F1C002F006804DDB900E6
:107C5C00FEF710FE18B9F8BDFEF704FE00202060F8
:107C6C00A7602768626807EB85019200A2EB85028A
:107C7C00081D01F04FFA47F8256063680133636013
:107C8C000120E8E737B500F124030446406A01936C
:107C9C000D46FFF7DDFCD4E9003203EB8202934280
:107CAC0019460BD00968A94203F10403F7D101A8C6
:107CBC00FFF70DFF0025284603B030BD29462046AE
:107CCC00FFF7BAFF05460028F1D06368012B01D1FC
:107CDC00FFF700FE01A8FFF7FAFEECE770B50446CB
:107CEC00D0E900020B4600EB820282420FD0014623
:107CFC001D6851F8046BAE4207D1521A01F00AFA12
:107D0C006368013B6360012070BD0846EDE700200D
:107D1C00FAE71FB500F124030446406A019103936E
:107D2C00FFF796FC01A92046FFF7D8FF18B163684E
:107D3C000BB9FFF7DBFD03A8FFF7C9FE04B010BDBC
:107D4C0070B5D0E904561823044603FB0656AE4220
:107D5C0015D005F110012046FFF7C0FF63680BB981
:107D6C00FFF7C4FDE06929690368DB689847696916
:107D7C0019B1206A0368DB6898471835E7E7D4E93E
:107D8C000453182606FB0356AE4204D0284600F0D6
:107D9C00DBFC1835F8E70023636170BD73B504464E
:107DAC00FFF7A4FD04F12403606A0193FFF750FC74
:107DBC002046FFF7C5FF01A8FFF789FE606A08B1EE
:107DCC00FEF73CFBD4E90453182606FB0356AE42DF
:107DDC0004D0284600F0B8FC1835F8E72069FEF707
:107DEC0041FD2068FEF73EFD204602B070BD00004C
:107DFC000148FFF7D3BF00BFB4E603208842F8B5B3
:107E0C0004460D46164615D9904214D2A2F114061A
:107E1C00751AA1F114072C44B7421AD01CB1314683
:107E2C002046FFF778FC06F10800FFF7F9FD143E39
:107E3C00143CF1E70DD0B5420BD01CB129462046BD
:107E4C00FFF769FC05F10800FFF7EAFD143514345F
:107E5C00F1E7F8BD8842F8B504460D46164614D92C
:107E6C00904213D2A2F11006751AA1F110072C44FE
:107E7C00B74218D01CB13146204600F0E2FC304627
:107E8C0000F062FC103E103CF2E70CD0B5420AD078
:107E9C001CB12946204600F0D4FC284600F054FCC6
:107EAC0010351034F2E7F8BD70B50E1E054611DD25
:107EBC003001FEF7CFFC044658B1D5E9001201EBB6
:107ECC000212FFF7C7FF2868FEF7CCFC2C60AE60EF
:107EDC00012070BD0024F6E72DE9F04F904695B0D7
:107EEC0000230391D8F804100A9346229942C0E962
:107EFC000033C0E90233C0E90433CDE9083304464A
:107F0C00027623DCD8E90057142303FB0757AF4252
:107F1C003BD029460BA800F094FC0BA90FA8099E96
:107F2C0000F08FFCDDE9091399421BDA089B099AD2
:107F3C0003EB061603EB0212314606F11000FFF7B5
:107F4C0089FFEEB9099B0133099311E008A8FFF7EB
:107F5C00ABFF0028D6D108A8FEF710FD204615B0BF
:107F6C00BDE8F08F013108A8FFF79EFF0028DDD196
:107F7C000FA800F0E9FB0BA800F0E6FB1435C6E7F0
:107F8C000FA9304600F05DFCDCE70026CDE90B665E
:107F9C000D964FF01409DDE908239E427CDA33017B
:107FAC00D35806930BB90136F5E70023079309FB69
:107FBC0006F302930BAD07A906A8FFF722FB824636
:107FCC000028F0D04FF000038DF817300146079AC7
:107FDC000DF117032846FFF7B1FB9DF817700190C0
:107FEC00002F4AD1BDF81C30ADF84030CDE91177E7
:107FFC004FF6FF73CDF83CA0ADF842301397D5E99E
:10800C000132934217DB03F1010ABAF1000F30DDA4
:10801C0009FB0AF0FEF71EFC834660B3D5E900129B
:10802C0009FB0212FFF7EAFE2868FEF71BFCC5F8F5
:10803C0000B0C5F808A02B68019A09FB023A6A68DF
:10804C00514609FB02320AF11400FFF7D7FEBAF1D0
:10805C00000F03D00FA95046FFF75DFB6B6801338F
:10806C006B6011A8FFF7DCFC3FB10BA8FFF7D8FC45
:10807C0071E7BB46D8E70127F3E7019B2D6809FBA5
:10808C000355069B1B782BB9D8F80030029A134481
:10809C001B7CEB8008358EE7216822606268636088
:1080AC00A36809920A9A0A93E368A2600B9A0B934D
:1080BC002369E2600C9A0C93636922610D9A0D930B
:1080CC00039B089162612376CFE70000F0B504466C
:1080DC0087B00D462646194668461746FCF752FBF4
:1080EC000B4B46F8043B694603A8FCF74BFB03AA71
:1080FC0039463046FFF7F0FE03A8FCF7B3F96846A3
:10810C00FCF7B0F9034B23602046256207B0F0BDA5
:10811C00949E0B0068A20B00F0B50F4685B01D496C
:10812C000A9C384616461D4601F05BF8C0B9A4B14E
:10813C00294601A8FFF7BCFC1749242000F00AFED1
:10814C00054630B101AB32462146FFF7BFFF134B5A
:10815C002B6001A8FCF786F92C46204605B0F0BD33
:10816C000F49384601F03DF890B9002CF5D029465E
:10817C0001A8FFF79DFC0849242000F0EBFD054603
:10818C000028E6D001AB32462146FFF79FFFE0E71F
:10819C000024E2E7E9A10B0078A30B0080A20B00FE
:1081AC00EDA10B00014B024A1A607047B0E60320A8
:1081BC00FEA10B002DE9F047089DD0F82090044655
:1081CC000E461746984600F083FC81454CD02B791F
:1081DC00190704D56A6954492046FFF78DFAB8F19E
:1081EC00000F0DD05B212046FFF77AFA414620465E
:1081FC00FFF767FA23684D49DB680222204698474F
:10820C002B79DA0723D5D5F808802F21404601F0C9
:10821C0034F808B100F1010841462046FFF751FA45
:10822C002B799B0708D53A212046FFF759FAEA68C3
:10823C003F492046FFF760FA2A79236812F0040FB1
:10824C00DB6814BF3B493C490222204698472B79F6
:10825C0058071DD529690B461A4613F8010B60B156
:10826C00202808D11946F7E7344800F066F90028B1
:10827C00ADD0BDE8F0872828EED12368521ADB6810
:10828C002046984723682E49DB68042220469847ED
:10829C0000213846FEF722FA01462046FFF711FA74
:1082AC0023682549DB680222204698471EB13146D7
:1082BC002046FFF706FA2B7913F0300F2CD02368E9
:1082CC002049DB680222204698472B79D9060AD52B
:1082DC0023681D49DB68072220469847AA691B4979
:1082EC002046FFF709FA2B799A0611D5DB0605D53E
:1082FC0023681049DB6802222046984723681449FA
:10830C00DB6820460A229847E9692046FFF7D9F92D
:10831C005D212046FFF7E4F923680E49DB6820460F
:10832C000222BDE8F047184702A20B0009A20B007D
:10833C00FA970B000CA20B0011A20B00DCE6032039
:10834C000FA20B0014A20B0017A20B001FA20B0014
:10835C0022A20B002DA20B002DE9F04385B0D0F822
:10836C0020900C9C05460F4690461E4600F0B0FB34
:10837C00814505D1494800F0E0F8002840F08A809A
:10838C002B6A474A01924FF0000901A803938DF81C
:10839C000890FFF778F849464046FEF79FF94149A7
:1083AC008046012201A8FFF7FDF84146FFF77BF953
:1083BC003FB13D49012201A8FFF7F4F83946FFF718
:1083CC0072F93EB13949012201A8FFF7EBF83146A9
:1083DC00FFF769F92379DF070ED5A6682F21304600
:1083EC0000F04BFF00B1461C3149012201A8FFF7F8
:1083FC00D9F83146FFF757F923799E0707D52D4950
:10840C00022201A8FFF7CEF8E168FFF749F82379BB
:10841C00580714D5266933461F4613F8012B2AB189
:10842C00202A01D11E46F7E7282AF5D1224902223B
:10843C0001A8FFF7B7F8BA1B3146FFF7C3F8237949
:10844C00190707D51D49012201A8FFF7ABF861698F
:10845C00FFF738F82379DA0608D5042218490DEB12
:10846C000200FFF79FF8A169FFF71AF823799B0622
:10847C0007D51449062201A8FFF794F8E169FFF724
:10848C0012F901A8FEF7E9FF286A0F4903680222D6
:10849C00DB68984705B0BDE8F08300BFDCE603203D
:1084AC0050A20B00DFA10B0030A20B00E7A30B00C6
:1084BC0032A20B0034A20B0037A20B0081980B00E8
:1084CC003AA20B003FA20B002DA20B000023406828
:1084DC001A46FEF75FB9406800220221FEF76AB91E
:1084EC00002240681146FEF75DB900224068114633
:1084FC00FEF768B9002340681A461946FEF76AB9B8
:10850C00002340681A461946FEF76CB940680021F2
:10851C00FEF790B940680021FEF794B9406800223C
:10852C0081F00101FEF766B940680022FEF772B9CE
:10853C00002240681146FEF775B9002240681146CA
:10854C00FEF760B92DE9F04395B014460D46074689
:10855C00FEF732FE00211C220DA8009100F0F4FD64
:10856C0040230C9320466B460CAA0021FEF706F81C
:10857C00044600284BD1024601216868FEF722F917
:10858C000221804622466868FEF71CF9009E81464F
:10859C002146002E3BD0002939D17368022B03D021
:1085AC000A2B11D0F669F4E7B8F1000FFAD0716913
:1085BC0006A8043107ADFEF72DFE0FCD3C1D0FC4F0
:1085CC002B6823704146EDE7B9F1000FEAD07469CE
:1085DC00102201A800F0B8FD06238DF8143001AD6F
:1085EC0004F108031834186859682A4603C2083382
:1085FC00A3421546F7D101A906A807ADFEF7EAFD7F
:10860C000FCD3C1D0FC42B6823704946CAE7009858
:10861C00FDF7ACFF384615B0BDE8F083024B034ABA
:10862C001A6000225A607047DCE60320C8A20B00D7
:10863C00F8B506460D468F180024BD420CD03368A1
:10864C0015F8011B9B6830469847031E01DB1C4440
:10865C00F3E7002C08BF1C462046F8BD13B50446B2
:10866C00084659B1019100F0ECFD23680199DB68D3
:10867C000246204602B0BDE81040184702B010BDBB
:10868C0003689B68184738B50D210546FFF7F8FFBE
:10869C000A2104462846FFF7F3FF204438BD30B5C5
:1086AC008BB00023012A8DF8243098BF0A2209AC24
:1086BC000D46B1FBF2F101FB125303F0FF03092B42
:1086CC0094BF30333733DBB2AA4204F8013DEFD903
:1086DC002146FFF7C3FF0BB030BD2DE9F04186B04A
:1086EC0000AF05460E46381D142114463B60FEF7BC
:1086FC00E1F813280ED8391D2846FFF7AFFF0446C2
:10870C001EB12846FFF7BFFF044420461837BD466C
:10871C00BDE8F08100F1080323F00703E846ADEB58
:10872C00030D2246411C3B686846FEF7C3F86946B8
:10873C002846FFF793FF0446C546E1E7014B0022AC
:10874C009A607047E4E6032010B504460068FEF713
:10875C0089F8204610BD10B50446006808B1FEF734
:10876C0081F80023C4E90133236010BD38B50446F9
:10877C000D4600680131FEF77DF810B1C4E9000523
:10878C00012038BD10B50368044623B143688B4201
:10879C0001D3012010BD2046FFF7E8FF0028F9D0D7
:1087AC00A368002BF5D122681370F2E737B50D469C
:1087BC00114601920446FFF7E5FF019A28B92046BD
:1087CC00FFF7C9FF204603B030BDA26029462068E0
:1087DC0000F092FC2268A3680021D154F2E7002338
:1087EC0013B5C0E9003304468360037341B10846F6
:1087FC00019100F026FD019902462046FFF7D6FFB5
:10880C00204602B010BD38B5054600680C4670B164
:10881C006A688B689A4208D3096831B100F0EBFCA6
:10882C00A368AB600023A36038BDFEF71BF8236878
:10883C002B6063686B60A368AB600023C4E90033F2
:10884C00F1E710B50023C0E90033044683600373DD
:10885C00FFF7D9FF204610BD884210B5044605D05D
:10886C000B682BB18A681946FFF7A0FF204610BD94
:10887C00FFF771FFFAE710B500230446C0E9003397
:10888C0083600373FFF7E8FF204610BD13B5044661
:10889C0059B10846019100F0D4FC019902462046DA
:1088AC00FFF784FF204602B010BDFFF754FFF9E735
:1088BC0070B505460E4609B9002070BD6AB18468D2
:1088CC0014442146FFF75EFF0028F5D02868AB68FA
:1088DC003146184400F08FFCAC600120EDE707B581
:1088EC000023ADF8043001228DF8041001A9FFF724
:1088FC00DFFF03B05DF804FB08B582683AB921B11B
:10890C000878B0FA80F0400900E0012008BD00684A
:10891C0009B90078F5E700F064FCF2E7054B022298
:10892C001A60054B054A9A600020C3E90000FDF768
:10893C00E5BE00BF00E70320F4E603200000FFFFC4
:10894C00024B1A68024B1A60704700BF14B7032021
:10895C0004E7032070474174704708B5007CFDF7AD
:10896C0045FE20EAE07008BD08B5007CFDF71EFE50
:10897C0020EAE07008BD08B5007CFDF727FE40EA50
:10898C00E07008BD08B5007CFDF718FE40EAE07009
:10899C0008BD007CFDF722BE37B5457C04462DB1E1
:1089AC00207C03B0BDE83040FDF7F8BD007C0191A0
:1089BC00FDF71CFE00280199F2DC284603B030BDFF
:1089CC0010B514210446FBF762FB204610BD0000D5
:1089DC0010B54FF47A730446084611460022C4E9D8
:1089EC000123044B2360012320746374FDF70EFEF6
:1089FC00204610BD20A30B00007C0023FDF7FEBD1C
:108A0C000022FFF7F9BF007CFDF7C0BD4174704731
:108A1C007047704708B50021007CFDF727FE40EA3F
:108A2C00E07008BD08B50121007CFDF71FFE40EA8F
:108A3C00E07008BD08B5007CFDF710FE20EAE07080
:108A4C0008BD08B5007CFDF701FE20EAE07008BD0A
:108A5C0013B50446007C0191FDF700FE0028019936
:108A6C0001DC607C20B1207CFDF708FE20EAE07080
:108A7C0002B010BD007CFDF709BE10B514210446F0
:108A8C00FBF705FB204610BD10B54FF47A73044676
:108A9C0008460021C4E90113044B23600123207410
:108AAC0063741146FDF7BAFD204610BD50A30B00B0
:108ABC00007C0022FDF7BABD007CFDF7BFBD10B5F0
:108ACC0014220446002100F03FFB204610BD00009C
:108ADC0010B50F4C88B003A8FFF7F1FF2178BFF356
:108AEC005B8F11F001010FD120460191FBF7DEFAEB
:108AFC00019948B103AA0748FFF7C6FF2046FBF7C8
:108B0C00DAFA054800F0EAFA024808B010BD00BFD6
:108B1C0008E703200CE703201D8A0B00014B1860AB
:108B2C00704700BF18B7032008B50B4B43B1FFF7D4
:108B3C00CFFF03681B699847002801DDAFF3008065
:108B4C00064B43B100F0E2F803681B699847002814
:108B5C0001DDAFF3008008BD000000000000000044
:108B6C0008B5FFF7E1FFFDF791FC014B186008BD5C
:108B7C0028E703200548064A064908B5121A00F0F2
:108B8C00BBFA054B054A1A6008BD00BF00F4032070
:108B9C0004F4032044A50B0000F403201E1C279AA8
:108BAC0007B5002300931A466FF07701FDF7D0FD4F
:108BBC0003B05DF804FB000007B543880A2B08D00E
:108BCC00502B0BD1094B1B684BB103B05DF804EB78
:108BDC001847FFF7E5FF03B05DF804FB0023009393
:108BEC001A466FF07701FDF7B3FDF4E724E7032095
:108BFC0010B512480021FDF785FE114B1A68114B78
:108C0C009A42114B0CBF012200221A7001D0FFF7BF
:108C1C00B1FFFDF72BFC044600F09EFA0B4B13B191
:108C2C002046AFF3008000210848FDF7ABFDBDE8FE
:108C3C00104007480021FDF781BD00BF298B0B00B8
:108C4C0000F403201E1C279A20E7032000000000DC
:108C5C00C58B0B007047000038B50A4B036001232D
:108C6C00044643610849202000F076F82025606016
:108C7C000549A560284600F06FF8C4E903052046B5
:108C8C0038BD00BF1800010078A30B0030B50E4DA5
:108C9C002978BFF35B8F11F0010487B011D12846FE
:108CAC00FBF704FA68B16846FFF7D6FF6A4621461F
:108CBC000648FEF7DDF92846FBF7FDF9044800F0FD
:108CCC000DFA024807B030BD2CE7032030E7032033
:108CDC00618C0B007047000038B5044614252A46F9
:108CEC00002100F031FA25804025074925812846CE
:108CFC00258200F031F804496060284600F02CF819
:108D0C00E060204638BD00BF78A30B0030B50E4D97
:108D1C002978BFF35B8F11F0010487B011D128467D
:108D2C00FBF7C4F968B101A8FFF7D6FF01AA2146E9
:108D3C000648FFF74DFE2846FBF7BDF9044800F046
:108D4C00CDF9024807B030BD44E7032048E70320C3
:108D5C00E18C0B00FBF797B9FBF797B908B5FDF75A
:108D6C00B1FD000081F0004102E000BF83F0004340
:108D7C0030B54FEA41044FEA430594EA050F08BFAA
:108D8C0090EA020F1FBF54EA000C55EA020C7FEA6E
:108D9C00645C7FEA655C00F0E2804FEA5454D4EBEB
:108DAC005555B8BF6D420CDD2C4480EA020281EAB5
:108DBC00030382EA000083EA010180EA020281EAED
:108DCC000303362D88BF30BD11F0004F4FEA01313F
:108DDC004FF4801C4CEA113102D0404261EB41014E
:108DEC0013F0004F4FEA03334CEA133302D05242D4
:108DFC0063EB430394EA050F00F0A780A4F1010490
:108E0C00D5F1200E0DDB02FA0EFC22FA05F28018C9
:108E1C0041F1000103FA0EF2801843FA05F35941AF
:108E2C000EE0A5F120050EF1200E012A03FA0EFC2E
:108E3C0028BF4CF0020C43FA05F3C01851EBE37158
:108E4C0001F0004507D54FF0000EDCF1000C7EEB75
:108E5C0000006EEB0101B1F5801F1BD3B1F5001FB3
:108E6C000CD349085FEA30004FEA3C0C04F10104D2
:108E7C004FEA445212F5800F80F09A80BCF1004FFB
:108E8C0008BF5FEA500C50F1000041EB045141EA7D
:108E9C00050130BD5FEA4C0C404141EB0101013C46
:108EAC0028BFB1F5801FE9D291F0000F04BF014635
:108EBC000020B1FA81F308BF2033A3F10B03B3F107
:108ECC0020020CDA0C3208DD02F1140CC2F10C0297
:108EDC0001FA0CF021FA02F10CE002F11402D8BFF5
:108EEC00C2F1200C01FA02F120FA0CFCDCBF41EAC1
:108EFC000C019040E41AA2BF01EB0451294330BD90
:108F0C006FEA04041F3C1CDA0C340EDC04F114046C
:108F1C00C4F1200220FA04F001FA02F340EA030043
:108F2C0021FA04F345EA030130BDC4F10C04C4F189
:108F3C00200220FA02F001FA04F340EA0300294669
:108F4C0030BD21FA04F0294630BD94F0000F83F4B3
:108F5C00801306BF81F480110134013D4EE77FEA96
:108F6C00645C18BF7FEA655C29D094EA050F08BFE2
:108F7C0090EA020F05D054EA000C04BF19461046C3
:108F8C0030BD91EA030F1EBF0021002030BD5FEA07
:108F9C00545C05D14000494128BF41F0004130BD2F
:108FAC0014F580043CBF01F5801130BD01F0004583
:108FBC0045F0FE4141F470014FF0000030BD7FEAF6
:108FCC00645C1ABF194610467FEA655C1CBF0B46F1
:108FDC00024650EA013406BF52EA033591EA030F08
:108FEC0041F4002130BD00BF90F0000F04BF002100
:108FFC00704730B54FF4806404F132044FF0000533
:10900C004FF0000150E700BF90F0000F04BF0021AB
:10901C00704730B54FF4806404F1320410F0004511
:10902C0048BF40424FF000013EE700BF42004FEA0C
:10903C00E2014FEA31014FEA02701FBF12F07F4389
:10904C0093F07F4F81F06051704732F07F4208BF40
:10905C00704793F07F4F04BF41F40021704730B547
:10906C004FF4607401F0004521F000411CE700BF93
:10907C0050EA010208BF704730B54FF000050AE016
:10908C0050EA010208BF704730B511F0004502D517
:10909C00404261EB41014FF4806404F132045FEA19
:1090AC00915C3FF4D8AE4FF003025FEADC0C18BFC2
:1090BC0003325FEADC0C18BF033202EBDC02C2F1B4
:1090CC00200300FA03FC20FA02F001FA03FE40EA46
:1090DC000E0021FA02F11444BDE600BF0023014644
:1090EC001A46184600F06AB9024B1844407800F052
:1090FC0097007047E9A30B000A44914200F1FF333B
:10910C0000D1704710B511F8014B03F8014F914293
:10911C00F9D110BD884210B501EB020402D984428A
:10912C00234607D8431EA14208D011F8012B03F89F
:10913C00012FF8E7024401468A4200D110BD13F812
:10914C00014D02F8014DF7E702440346934200D16A
:10915C00704703F8011BF9E738B5104B1D68AB6B72
:10916C000446B3B91820FDF775FB0246A86320B975
:10917C000B4B0C484221FDF7BDFB0B490B4BC0E9D7
:10918C0000130B4B83600B23838100210120C2E968
:10919C000401AB6B00221C615A6138BD18B7032067
:1091AC0079A30B0090A30B000E33CDAB34126DE6FC
:1091BC00ECDE0500C9B2034610F8012B1AB18A4245
:1091CC00F9D118467047002918BF0023F9E710B5EC
:1091DC000446FFF7EFFF18B9204600F032F82044A0
:1091EC0010BD10F8012B11F8013B012A28BF9A423F
:1091FC00F7D0D01A7047034611F8012B03F8012B56
:10920C00002AF9D170470000024B0146186800F0A3
:10921C0003B800BF18B7032037B5044608460D46FF
:10922C0000F00FF8421C114620460192FDF752FB4C
:10923C00044618B1019A2946FFF75EFF204603B099
:10924C0030BD034613F8012B002AFBD1181A013844
:10925C00704710B57AB103460139841813F8010B25
:10926C0011F8012F904201D1A34201D1801A10BDF7
:10927C000028F3D1FAE71046F9E738B503460C4657
:10928C0069B9BDE83840FFF795BF431C0546214638
:10929C001846FFF78FFF0028F7D1284638BD002568
:1092AC00F5E70000012B2DE9F04701D0242B06D95E
:1092BC00FDF718FB162303600020BDE8F087DFF8EC
:1092CC00E4C00D462E4615F8014B14F80C7017F03F
:1092DC000807F7D12D2C32D12C780127B51C002B87
:1092EC005BD0102B09D1302C07D12C7804F0DF0483
:1092FC00582C4DD16C781023023507F1004808F139
:10930C00FF384FF0000CB8FBF3F9664603FB198AE3
:10931C00A4F1300EBEF1090F16D87446A34224DD19
:10932C00BCF1000F1EDBB1451CD301D1A24519DBEA
:10933C0006FB03464FF0010C15F8014BE8E72B2C0C
:10934C0004BF2C78B51CCAE7A4F1410EBEF1190F6D
:10935C0001D8373CE2E7A4F1610EBEF1190F04D835
:10936C00573CDBE74FF0FF3CE6E7BCF1000F05DABA
:10937C0022230360464642B930469EE707B1764247
:10938C00002AF9D0BCF1000F00D0691E1160F3E780
:10939C003024002BB1D10823AFE7302CA5D00A2301
:1093AC00ABE700BFEAA30B0013460A46014602488E
:1093BC000068FFF777BF00BF18B703202DE9F8430B
:1093CC00DFF8B8800646D8F800001F460D469146D7
:1093DC0000F056F8254B1C6834B9254C1C60254B05
:1093EC0013B11B68C4F8883063681F2B07DDD8F8ED
:1093FC00000000F047F84FF0FF30BDE8F8834EB3A3
:10940C00D4F8880088B91C4B23B9D8F8000000F0B8
:10941C0038F8F0E74FF48470FDF71CFA0028F4D00C
:10942C000023C0E94033C4F88800636840F82390F7
:10943C0001229A4000EB8301D0F800311343C0F8AD
:10944C000031022EC1F8807002BFD0F804311343F2
:10945C00C0F804316368D8F800005A1C023362600B
:10946C0044F8235000F00EF80020C6E7E8E703208C
:10947C005CE703200000000061680B007CB7032050
:10948C0070477047704700001D400B0059400B009F
:10949C0081400B0085400B000000000043616C6CA8
:1094AC00206F6E2070757265207669727475616CB0
:1094BC00004F424A45435400747970653D25732032
:1094CC0073746172743D256420656E643D2564205F
:1094DC00746F6B656E733D2564202D202573006EB3
:1094EC006F6465730074797065007072696E74696D
:1094FC006E6720746F6B656E73004F7574657220A8
:10950C006F626A6563742073746172743D256420A4
:10951C00656E643D256420746F6B656E733D2564C8
:10952C00202D2025730074657374202573005465F9
:10953C00737400546F74616C20746F6B656E733D43
:10954C002564202825342E326625252066756C6C02
:10955C00292073746F726167653D2564202825345A
:10956C002E326625252066756C6C2900556E6B6E47
:10957C006F776E2073656E736F72207479706520CF
:10958C00696E2070617273654A6F696E5061796C97
:10959C006F616456616C75657320256400556E6B44
:1095AC006E6F776E2073656E736F72207479706551
:1095BC0020696E2070617273654A6F696E506179B3
:1095CC006C6F616456616C75657300416C65727487
:1095DC0000754944006E6F64650070656E640063CD
:1095EC006F6E74006F63634E006F636347004E6F62
:1095FC0064652025642C20756E697175654944205D
:10960C00256C752C20747970652025642C206F6373
:10961C00637570616E63794E65742025642C206FC0
:10962C0063637570616E637947726F737320256421
:10963C002C207061796C6F6164202825642F25645F
:10964C002F25642F25642920776974682070656E36
:10965C0064696E6720616C65727420256420616E8C
:10966C006420616C65727420636F6E74657874200D
:10967C002564004E6F64652025642C20756E69711D
:10968C007565494420256C752C20747970652025EE
:10969C00642C207061796C6F6164202825642F25FF
:1096AC00642F25642F2564292077697468207065E0
:1096BC006E64696E6720616C65727420256420612C
:1096CC006E6420616C65727420636F6E746578745F
:1096DC0020256400556E6B6E6F776E2073656E730C
:1096EC006F72207479706520696E207072696E7467
:1096FC004E6F64654461746120256400556E6B6E19
:10970C006F776E2073656E736F722074797065203D
:10971C00696E207072696E744E6F64654461746119
:10972C00006E6F64654461746100256C7500466F52
:10973C00756E642074686520756E69717565494431
:10974C002C206E6F6465206F66202564004469646C
:10975C00206E6F742066696E642074686520756E67
:10976C006971756549442C206E6577206E6F646550
:10977C00206F66202564004368616E67696E672000
:10978C0073656E736F7220747970652066726F6D7D
:10979C0020256420746F2025640052656D6F7669F6
:1097AC006E6720617272617920696E646578006100
:1097BC007070656E6420636F6D706C6574650055B8
:1097CC006E61626C6520746F2075706461746520C5
:1097DC00746F206E65772073656E736F7254797039
:1097EC006520696E20736574547970653A20256420
:1097FC0000556E61626C6520746F207570646174C5
:10980C006520746F206E65772073656E736F72546C
:10981C0079706520696E2073657454797065005396
:10982C0074617274696E6720746573747300466931
:10983C0072737420546573742C2077652077696C6F
:10984C006C20636C65617220746865204E6F646572
:10985C0020446174616261736520616E64206C6F79
:10986C006164207468652073616D706C652064613F
:10987C00746120736574004E6F7720746861742076
:10988C00746865206E6F64654461746162617365B0
:10989C0020697320656D7074792C20776520776949
:1098AC006C6C206C6F6164207468652073616D70E2
:1098BC006C65206461746120736574007B226E6F2B
:1098CC00646573223A5B097B226E6F6465223A31C0
:1098DC002C22754944223A323631333437303535FF
:1098EC00392C2274797065223A312C202270223A5C
:1098FC00302C202270656E64223A302C2022636F4B
:10990C006E74223A317D2C097B226E6F6465223A8B
:10991C00322C22754944223A3231323133363033CB
:10992C0034322C2274797065223A312C2022702228
:10993C003A302C202270656E64223A302C2022633F
:10994C006F6E74223A327D2C097B226E6F64652215
:10995C003A332C22754944223A323131333338317F
:10996C003839312C2274797065223A312C202270CE
:10997C00223A302C202270656E64223A302C202240
:10998C00636F6E74223A337D2C097B226E6F646593
:10999C00223A342C22754944223A3232323230394E
:1099AC00303132342C2274797065223A312C2022D9
:1099BC0070223A302C202270656E64223A302C20B2
:1099CC0022636F6E74223A347D2C097B226E6F6495
:1099DC0065223A352C22754944223A3238333936CD
:1099EC0033393631302C2274797065223A312C207F
:1099FC002270223A302C202270656E64223A302C70
:109A0C002022636F6E74223A357D2C097B226E6F97
:109A1C006465223A362C22754944223A393538335A
:109A2C00393936322C2274797065223A312C202245
:109A3C0070223A302C202270656E64223A302C2031
:109A4C0022636F6E74223A367D2C097B226E6F6412
:109A5C0065223A372C22754944223A33383138364C
:109A6C0037383334312C2274797065223A312C20FA
:109A7C002270223A302C202270656E64223A302CEF
:109A8C002022636F6E74223A377D2C097B226E6F15
:109A9C006465223A382C22754944223A32383234E1
:109AAC003033393239392C2274797065223A312CA1
:109ABC00202270223A302C202270656E64223A30BB
:109ACC002C2022636F6E74223A387D2C097B226E17
