:02000002B0004C
:1040000000400B0088AF0B00000006000D00050209
:0840100004016810000000002B
:044018000C9F0B00EE
:10401C0009480A49884208B505D0094A824202D0AB
:10402C00121A05F067FD0748074A0021121A05F01D
:10403C0089FD014808BD00BFB8B60320D8AE0B00FF
:10404C0040B7032040B70320EDE7032070B5074EBF
:10405C00074C05F0CBFAA41BA4080025AC4200D1F8
:10406C0070BD56F8043B98470135F7E780AE0B005E
:10407C00A8AE0B0000F0F2BD08B500F0EDFFBDE8F6
:10408C00084005F06BBA03F0A9B803F0A7B803F029
:10409C00ADB8000008B5034A03490C2002F0A2FF9A
:1040AC00FEE700BFB16D0B00209F0B000078B0FA4B
:1040BC0080F0400970470123037070477047006A15
:1040CC000368DB681847000010B5034B0360044617
:1040DC0001F098F8204610BD98A70B0010B50446C7
:1040EC00FFF7F2FF204642F68C61FFF7D0FF204627
:1040FC0010BD37B51D4601AB044601F069FA20B17D
:10410C0001992A46204601F075F903B030BD7D2295
:10411C007B2101F08CBB00000A4B10B504460360F8
:10412C0004F080F8214604F0B8FA05F0CFF905F058
:10413C00C1F92046044B40F8043B04F049F92046F1
:10414C0010BD00BF80A70B0068A70B0010B504467C
:10415C00FFF7E2FF20462421FFF799FF204610BD10
:10416C000EB400B58CB00DAA4FF0200C52F8041B05
:10417C000392CDE900120023016804AA1E20CDE9A8
:10418C0004C302F037FF0CB05DF804EB03B07047CA
:10419C00F0B5D1E90156ADF2144D0C46416804ABB3
:1041AC00771B3A462944184605F0A4FCE3680749F6
:1041BC000022C255CDE900630290054A05482B4602
:1041CC00FFF7CEFF0DF2144DF0BD00BF3C9F0B006E
:1041DC00359F0B00B0E6032013B504460C4801F0E4
:1041EC008EF80C4A014601AB094801F0F1F901992E
:1041FC000748621E01F0A5F838B10146064A04488A
:10420C006B46FFF776FF9DF8000002B010BD00BFB3
:10421C0078B70320639F0B00699F0B000B78012B71
:10422C0001D1FFF7B5BF7047F0B50139551E002419
:10423C000332012715F8013F07FA03F340FA04F69D
:10424C00013B334001F8013F2B78AA421C44E4B2F5
:10425C00F0D1F0BD38B5046805467CB16368013B0C
:10426C0063605BB9236820469B689847A368013B51
:10427C00A3601BB923682046DB689847284638BDE5
:10428C002DE9F0432DED028B0446ADF2244D0E4684
:10429C0019B13B493B48FFF763FFD4E90559D5E910
:1042AC0001326168D21A194408A805F023FCD5E93B
:1042BC00012308A99B1A0022CA54D5F8088046B1DC
:1042CC000191EB6800936A682F492E484346FFF72B
:1042DC0047FF2E4B2E4A4FF4806108A802F0A6FF30
:1042EC002C4B2D491B788DF8003008AA3C2306A8CE
:1042FC0003F0ACF907A8FFF7ADFF656900274D4542
:10430C000BD26B68002BC4BFEB68FF181EB129469B
:10431C002046FFF783FF1035F1E707EE908AF8EEA1
:10432C00E76AD4ED027A9FED1D8AF8EE677A86EE85
:10433C00A77A67EE087A17EE900A05F075FB07EE80
:10434C00907AF8EEE76AD4ED077ACDF80880F8EEAB
:10435C00677ACDE9040186EEA77A67EE087A17EE44
:10436C00900A05F061FB3A46CDE900010C4905487D
:10437C00FFF7F6FE0DF2244DBDEC028BBDE8F08389
:10438C006E9F0B00B0E603207E9F0B00AA9F0B00D4
:10439C00AF9F0B0070B70320B79F0B000000C84203
:1043AC00BC9F0B0070B5044686B01D46132C4FF015
:1043BC000003CDE90233084616461CD8092C3CD81C
:1043CC00631E082B22D9214921482246FFF7C8FE3B
:1043DC0002F084FE68B11F4B1F4A1B781F498DF8F1
:1043EC00003004A83C2303F031F905A8FFF732FF95
:1043FC00002006B070BDA4F11403092BE3D80623EA
:10440C008DF80C3001238DF80D3002E001238DF86E
:10441C000C3003AA02A9FFF707FF9DF80830337090
:10442C009DF809302B700A9B9DF80A201A700B9B83
:10443C009DF80B201A700120DBE706238DF80C3059
:10444C0001238DF80D308DF80E30E2E7F59F0B004F
:10445C00B0E6032070B7032026A00B0054A00B007D
:10446C0070B5D0E900531426044606FB0356AE4241
:10447C0004D0284604F02CFE1435F8E7206802F02E
:10448C00B5FE204670BD37B51D4601AB044601F0A4
:10449C009FF820B101992A46204600F0BDFF03B0D9
:1044AC0030BD00002DE9F04F0746ADF5377D77485C
:1044BC00764DDFF818A2DFF818B200F020FF744A2E
:1044CC00014614AB714801F083F80026149932466A
:1044DC00284600F036FF0446002800F0AB80014669
:1044EC000DAB52462846FFF7CEFF0CAB5A46214681
:1044FC002846FFF7FEFD674A0EAB21462846FFF71C
:10450C00F8FD654A0FAB21462846FFF7F2FD634ADA
:10451C0010AB21462846FFF7ECFD614A11AB214652
:10452C002846FFF7E6FD5F4A12AB21462846FFF707
:10453C00E0FD0DF12F095C4A13AB214628460DF125
:10454C002E08FFF7D6FD0BAA9DF83C109DF83800FD
:10455C00CDF80490CDF800800DF12D03FFF722FF6C
:10456C000E9A132A1ADC092A1CDC531E082B72D94A
:10457C004E494F48FFF7F4FD02F0B0FD00283CD047
:10458C004C4B4D4A1B788DF8003016A84B493C23F8
:10459C0003F05CF817A8FFF75DFE2EE0A2F1140300
:1045AC00092BE4E73D4A15AB21462846FFF7A1FD50
:1045BC003B4A16AB21462846FFF79BFD139B0993FC
:1045CC00129B089399F80030079398F800300693E3
:1045DC009DF82D3005939DF82C300493169B039376
:1045EC00159B02930E9B01930D9B0093344A0C9BDD
:1045FC0040F26E211AA802F011FE2D481AA9FFF7FD
:10460C00AFFD02F06BFD88B187B12A4B2D491B78A9
:10461C008DF800301AAA3C2316A803F017F817A837
:10462C00FFF718FE4FF47A7002F038FE0136642E54
:10463C007FF44CAF01F0AAFD014616A801F0CAFDAB
:10464C0016991B48FFF78CFD16A804F041FD0DF5DB
:10465C00377DBDE8F08F139B0793129B069399F857
:10466C000030059398F8003004939DF82D30039397
:10467C009DF82C30CDE901230D9B0093124A0C9B25
:10468C0040F26E211AA802F0C9FDB6E778B70320F4
:10469C00639F0B00699F0B0098AB0B0063A00B0092
:1046AC0066A00B0069A00B006EA00B0059A10B00BB
:1046BC00B0E6032070B7032081A10B0054A00B00BF
:1046CC0073A00B00A6A10B00F8A00B005AA00B00C6
:1046DC005EA00B0037B504461546019101F09CF81D
:1046EC0001990122204601F005F820463A2100F0FC
:1046FC00B5FF04492A46204603B0BDE8304000F01F
:10470C00ECBF00BF73A20B0037B5044615460191F0
:10471C0001F082F801990122204600F0EBFF2046BF
:10472C003A2100F09BFF04492A46204603B0BDE81D
:10473C00304000F0D2BF00BFAFA10B008842F8B5EB
:10474C0004460D46164616D9904215D2A2F114060F
:10475C00751AA1F114072C44B7421CD02CB1314668
:10476C00204604F032FD337C2374304604F0B0FC58
:10477C00143E143CF0E70ED0B5420CD02CB12946B7
:10478C00204604F022FD2B7C2374284604F0A0FC68
:10479C0014351434F0E7F8BD2DE9F0410023C0E9DD
:1047AC00003383604F689F4204460E4623DD4FF072
:1047BC00140808FB07F002F011FD0546D8B1D4E946
:1047CC00001208FB0212FFF7B9FF206802F00EFD81
:1047DC002560A760D6E9007308FB0378B84508D0BC
:1047EC003946284604F00BFD3B7C2B7414371435EA
:1047FC00F4E7736863602046BDE8F081F0B52D4B9B
:10480C002D4D8FB001221A700024CDE9024404947E
:10481C0004F05CFE02A9064605A8FFF7BDFF2F4673
:10482C0005A908A8FFF7B8FF244B47F8043B08A9D3
:10483C000BA8FFF7B1FF0BAA1E21384604F010F8A5
:10484C000BA8FFF70DFE08A8FFF70AFE1C4B2B6008
:10485C0005A82E62FFF704FE1A4B2B6004F036FEFF
:10486C004FF4165104F022FE03F0DCFC294603F051
:10487C00CDFE02A8FFF7F4FD134B144A9A60C3E96E
:10488C000044032002F0E6FB114B40F22622A3F673
:10489C002C440092A3F540614FF44062204600F096
:1048AC0013FD0C4B0C490D4823600FB0BDE8F040D4
:1048BC0004F059BC70B7032040B7032068A70B0065
:1048CC00FCAB0B0080A70B0064B703200000FFFFBC
:1048DC00A4C3032098A70B00C7AB0B0004E603206E
:1048EC00F0B597B0002305463B48049300F007FD54
:1048FC003A4A394E3A4F014605AB374800F068FE4C
:10490C0001240599621E304600F01BFD0146D8B10A
:10491C0003AB01903A463046FFF7B5FD039B019976
:10492C00AB420ED12F4A2C4804ABFFF7E2FB049AA2
:10493C002D492E48FFF714FC9DF81040204617B067
:10494C00F0BD0134332CDCD1234906A800F088FFDC
:10495C00224627492548FFF703FC1F4800F0C4FCFA
:10496C00014606A800F0B7FF06A8FFF7D0FB2246C9
:10497C0006A81C49FFF7AEFE2A4606A81849FFF701
:10498C00C3FE1C4B1C491A6806A8FFF7A3FE06A819
:10499C001A490022FFF79EFE06A819490022FFF7CC
:1049AC0099FE06A817490022FFF794FE06A816499F
:1049BC000022FFF78FFE1549002206A8FFF78AFE9A
:1049CC0006A800F059FE06A801F064FA06A8E4B2A5
:1049DC0000F004FCB2E700BF78B70320639F0B0024
:1049EC005AA00B005EA00B00B3A10B00B0E6032095
:1049FC00D2A10B00B8B60320699F0B0098AB0B003B
:104A0C0063A00B0066A00B0069A00B006EA00B004E
:104A1C002DE9F0410D469AB00446002800F0F780CD
:104A2C00FF2800F0F4807B487A4E00F068FC04F11B
:104A3C00FF380146784A774807AB00F0C9FD079963
:104A4C007448424600F07DFC0746002800F0DF80E9
:104A5C0031460AA800F004FF704A03AB39463046D1
:104A6C00FFF711FD6E4A02AB39463046FFF741FBAA
:104A7C006C4A04AB39463046FFF73BFB6A4A05AB40
:104A8C0039463046FFF735FB684A06AB39463046A7
:104A9C00FFF72FFB029A664966482B46FFF760FB2F
:104AAC00132D1BDC092D1DDC6B1E082B71D96249E3
:104ABC0060482A46FFF754FB02F010FB002856D042
:104ACC005E4B5F4A1B788DF8003008A85D493C238B
:104ADC0002F0BCFD09A8FFF7BDFB48E0A5F11403EB
:104AEC00092BE3E758495348FFF73AFB424607992D
:104AFC000AA801F096F9304600F0F6FB01460AA828
:104B0C0000F0E9FE0AA8FFF702FB504922460AA86A
:104B1C00FFF7E0FD039A41490AA8FFF7F5FD40496C
:104B2C002A460AA8FFF7D6FD049A3E490AA8FFF7C1
:104B3C00D1FD474900220AA8FFF7CCFD45490022C8
:104B4C000AA8FFF7C7FD059A37490AA8FFF7C2FD67
:104B5C003649069A0AA8FFF7BDFD0AA800F08CFD9D
:104B6C000AA801F097F93C493248FFF7F9FA01F02D
:104B7C000DFB716801F040FB01F008FB036800219C
:104B8C00DB6898470AA800F029FB01201AB0BDE8A1
:104B9C00F081424607990AA801F043F9304600F02B
:104BAC00A3FB01460AA800F096FE0AA8FFF7AFFA8D
:104BBC0022460AA82549FFF78DFD039A17490AA832
:104BCC00FFF7A2FD2A460AA81549FFF783FD049AB0
:104BDC0014490AA8FFF77EFD0AA81D490022FFF719
:104BEC0079FD0AA81B490022FFF774FD059A0E49AE
:104BFC000AA8FFF76FFD069A0C490AA8FFF76AFD91
:104C0C000AA800F039FD0AA801F044F9AFE700202A
:104C1C00BCE700BF78B70320639F0B005AA00B00C2
:104C2C00699F0B0098AB0B0069A00B006EA00B00EA
:104C3C00FCA10B00B0E6032044A20B0070B70320CC
:104C4C0076A20B0054A00B001FA20B005EA00B0061
:104C5C0063A00B0066A00B0034A20B0070B52DED09
:104C6C00028B4FF4FA6086B002F018FB01F08EFA5A
:104C7C0003681B68984788498848FFF771FA884988
:104C8C008648FFF76DFA01F081FA01F033FB854895
:104C9C000021FFF7F5FA84498048FFF761FA834950
:104CAC008048A12200F0E9FA7E4801F06DF8002856
:104CBC0000F0E6807E497B4C7848FFF751FA0121E1
:104CCC002046FFF7DDFA7B497448FFF749FA01F0FB
:104CDC005DFA764901F090FA01F058FA0368002168
:104CEC00DB689847D4ED027AB8EE678ADFED727A0A
:104CFC0028EE278A01F04AFA01F068FA07EE900ACA
:104D0C00F8EEE77AC8EE277A17EE900A04F08CFEDC
:104D1C000B46024669496148FFF722FA204600F02B
:104D2C00C9FA01F033FA014602A801F053FA0299CC
:104D3C000191084604F0C1FF01990246204600F09B
:104D4C009CFA02A804F0C4F901F020FA014602A86A
:104D5C0001F040FA029A5A495048FFF701FA02A8AA
:104D6C0004F0B6F9204601F00FF8002800F08E8010
:104D7C004F494A48534C544E544DFFF7F1F94948AA
:104D8C000021FFF77DFA52494448FFF7E9F9206802
:104D9C00FFF7A6FD4F4902464048FFF7E1F9002115
:104DAC004048FFF76DFA0020FFF77CFB4A493B486F
:104DBC00FFF7D6F92068FFF793FD0446FFF70CFACE
:104DCC002246034645493548FFF7CAF93168204663
:104DDC00FFF71EFE2046FFF7FFF922460346404927
:104DEC002E48FFF7BDF93F492C48FFF7B9F9296860
:104DFC002046FFF70DFE00212A48FFF741FA00205C
:104E0C00FFF750FB38492548FFF7AAF9374B1868CC
:104E1C00FFF766FD0446FFF7DFF9224603462F49EC
:104E2C001E48FFF79DF931682046FFF7F1FD002081
:104E3C00FFF738FB2046FFF7CFF9224603462849F7
:104E4C001648FFF78DF929682046FFF7E1FD20464B
:104E5C00FFF7C2F92246034621491048FFF780F9B3
:104E6C0010480021FFF70CFA21490C48FFF778F99C
:104E7C0020490A48FFF774F906B0BDEC028B70BDEF
:104E8C0001F084F901F036FA1B4914E701F07EF9C0
:104E9C0001F030FA18496CE7A4A20B00B0E603202D
:104EAC00B3A20B0078B70320FCA20B0041A30B00AC
:104EBC00E3A30B0005A40B000000C84240A40B00A8
:104ECC00A0A40B00C4B60320BCB60320C0B60320BC
:104EDC00B7A40B00FEA40B0015A50B0054A50B00EA
:104EEC007FA50B00A6A50B00F8A50B00C8B60320E8
:104EFC005AA60B00B3A60B00F7A30B0070B5164611
:104F0C0094B00446002841D0FF283FD01D293DDC39
:104F1C001F4D284600F0F3F91E4A014602AB284605
:104F2C0000F056FB621E0299284600F00AFA04466D
:104F3C0060B30146184A01AB2846FFF7DAF8019A2C
:104F4C00164917483346FFF70BF903AB124A2146B3
:104F5C00284600F03DFB294604A800F081FC03998B
:104F6C0004A800F08FFC32460E4904A800F0B5FBF3
:104F7C0004A800F08FFF01F009F9696801F03CF911
:104F8C0004A800F02BF9012014B070BD0020FBE741
:104F9C0078B70320639F0B0063A00B00EFA60B00F8
:104FAC00B0E6032073A20B0070B5164694B004460D
:104FBC00002842D0FF2840D00A3909293DD8204D7D
:104FCC00284600F09CF91F4A014602AB284600F027
:104FDC00FFFA621E0299284600F0B3F9044660B34A
:104FEC000146194A01AB2846FFF783F8019A174985
:104FFC0017483346FFF7B4F803AB134A214628464B
:10500C0000F0E6FA294604A800F02AFC039904A84B
:10501C0000F038FC32460F4904A800F05EFB04A8EF
:10502C0000F038FF01F0B2F8696801F0E5F804A867
:10503C0000F0D4F8012014B070BD0020FBE700BFD5
:10504C0078B70320639F0B0066A00B0016A70B001C
:10505C00B0E6032073A20B00F0B5454F9FB04FF4A0
:10506C00FA6002F01BF93C680E21B4FBF1F301FB72
:10507C00134404F053F904F06DFD3E4B0FAE53F89E
:10508C002410304601F046FD611C3046C9B201F0D7
:10509C0051FD0A21304601F04FFD04F089FD40F22C
:1050AC00E93490FBF4F101FB140189B2304601F0B4
:1050BC0048FD04F07DFD90FBF4F101FB140189B275
:1050CC00304601F03CFD01F097FD12AD84460FCD4A
:1050DC006C460FC40FCD0FC495E80F0084E80F0089
:1050EC00604696E80E0001F0F3FD00F0CFFF01F0F2
:1050FC006DF9044600F0CAFF01F06DF90D9000F057
:10510C00C5FF01F077F9054600F0C0FF01F077F913
:10511C000D9940EA05222046FFF7F0FE044600F008
:10512C00B5FF01F053F9054600F0B0FF01F053F95B
:10513C000D9000F0ABFF01F053F9064600F0A6FF0E
:10514C0001F053F90D9940EA06222846FFF72CFF8F
:10515C0004B118B908490948FFF702F808480121B9
:10516C00FFF78EF83B6801333B601FB0F0BD00BF0A
:10517C0074B70320A0A70B003DA70B00B0E60320DB
:10518C0078B7032010B5054B0360037C04461BB9AC
:10519C00406808B102F02AF8204610BDE8A70B00C1
:1051AC0010B50446FFF7EEFF20461421FEF76FFF03
:1051BC00204610BD10B5034B03600446FFF7E2FF19
:1051CC00204610BD08A80B0010B50446FFF7F2FFEF
:1051DC0020463021FEF75BFF204610BD10B5034B77
:1051EC0003600446FFF7E6FF204610BD18A80B002D
:1051FC0010B50446FFF7F2FF20464021FEF747FFAB
:10520C00204610BD10B5074B0360037C04461BB948
:10521C00406908B101F0EAFF2046FFF7B3FF2046D2
:10522C0010BD00BFF8A70B0010B50446FFF7EAFF4E
:10523C0020462C21FEF72BFF204610BD034A0260AE
:10524C000022C0E90122C26002747047E8A70B007B
:10525C0038B5037C04460D460BB1002038BD4068C0
:10526C0038B101F0CBFF0028F7D0C4E901050120CB
:10527C00F4E7084601F0B2FFF5E770B5C3680E46D7
:10528C001546D1184268044672B182688A420BD323
:10529C006068E3682A463146184404F02BFCE26847
:1052AC002A44E260012070BD2046FFF7D1FF0028A0
:1052BC00EED1F8E743680021C16023B1826812B1D6
:1052CC00184604F03FBC704710B5C0E9011200222B
:1052DC00C260012202744361024A029B0260C361F4
:1052EC0010BD00BFF8A70B00D0E90503834204D919
:1052FC000278022A02D01030F8E700207047D0E97B
:10530C000503984204D20378012B18BF0020704784
:10531C000020704770B513689D68136803F1100482
:10532C0014608669B4420AD29B698C68A34201DA84
:10533C00AB42F2DDA342CCBF0020012000E00020F4
:10534C0070BD73B501F11003044616460193002598
:10535C000198A36983420BD982688B689A4207DA59
:10536C00B54206D001AA20460135FFF7D3FFEFE77F
:10537C00002002B070BD2DE9F341089D984601F163
:10538C00100304461746019300260198A369834233
:10539C001AD982688B689A4216DAAE420BD1386001
:1053AC0001AA2046FFF7B6FF28B1019BC8F80030D0
:1053BC0002B0BDE8F08101AA2046FFF7ABFF204602
:1053CC000136FFF7A7FFE0E70020F1E7F0B5013B5E
:1053DC000024D1E90176F61BA64208DDA34206DDC6
:1053EC0045683D442D5D02F8015B0134F1E7002373
:1053FC001370F0BD1FB5144610236A46FFF7E6FF85
:10540C0004492246684601F001FF431E58425841A8
:10541C0004B010BD73A20B001FB5144610236A46CE
:10542C00FFF7D4FF04492246684601F0EFFE431E05
:10543C005842584104B010BDAFA10B0010B5044642
:10544C0000680B4628B103F00EFFE3680133E360FC
:10545C0010BD60680028F8D0D4E90221013A8A42D4
:10546C0088BF4354F1E703467F2B37B50846D9B2C2
:10547C0004D803B0BDE83040FFF7E0BF01F03F01B6
:10548C00B3F5006FC3F3871541F0800407D245F0E4
:10549C00C0010190FFF7D2FF01982146E9E71B0BF1
:1054AC0043F0E0010190FFF7C9FF05F03F010198BF
:1054BC0041F08001EEE700002DE9FF4700244E6823
:1054CC00DFF8CCA080460F461546A146B868B0421E
:1054DC005ADDD8F80430995D9A19002C4BD07529F7
:1054EC0005D86D2907D862291ED066291ED02846FA
:1054FC00FFF7A4FF3DE0A1F16E04072CF7D80FF2E3
:10550C00080C5CF824F000BF3D550B00FB540B005D
:10551C00FB540B00FB540B0041550B00FB540B00D0
:10552C0045550B0049550B000821E0E70C21DEE73F
:10553C000A21DCE70D21DAE70921D8E7311D884281
:10554C0017DD02A904333344084612F8014F01F861
:10555C00014B9A42F9D101AA51468DF80C9001F0F9
:10556C0055FE012805D1BDF804002946FFF77BFF45
:10557C000536002404E05C2904D02846FFF75EFFC2
:10558C000136A3E70124FBE7012004B0BDE8F08756
:10559C0068AB0B007FB50C4606460C491046154609
:1055AC0003F038FED4E90131C91A0131284603F061
:1055BC00ADFD00236A4621463046CDE90133009506
:1055CC000393FFF779FF04B070BD00BFC7AB0B00AE
:1055DC002DE9F04389B00546884604A812491646C1
:1055EC00994603F0C0FD002700974B4603AA41469D
:1055FC002846FFF7C0FE044670B1039904AA28465A
:10560C00FFF7C8FF044608B90137EDE7314604A897
:10561C0003F036FE0028F7D004A803F059FD20460D
:10562C0009B0BDE8F08300BFC7AB0B00002301221B
:10563C00C3604361028380F82A30704708B5034683
:10564C00FFF7FCFD044A1A604FF0FF321846DA628D
:10565C00FFF7ECFF08BD00BF08A80B00D0E9022340
:10566C0010B593423FBF42685C1CC460D15424BF48
:10567C00012380F82A3010BD10B54369044643B1AC
:10568C0000EB4303597E09B1FFF7E8FF6369013B67
:10569C006361D4E90210636888424FF000022ABFAC
:1056AC005B181A5403F8012C10BD70B50446D0E9F0
:1056BC00025066682D1A134630440A46294601F0FA
:1056CC00BDFD85422DBFE368A368E360C01836BFFB
:1056DC000123E06084F82A3070BD0EB403B503AA30
:1056EC0052F8041B0192FFF7E0FF02B05DF804EBE7
:1056FC0003B070472DE9F84304460E46174612B125
:10570C002221FFF7ABFFDFF80C810025715D06EB62
:10571C000509002974D0D4E902329A4270D20B06E2
:10572C0034D501F0F003E02B05F101091DD116F879
:10573C00092002F0C003802B39D105F1020916F8BB
:10574C00093003F0C000802831D103F03F039201EF
:10575C0043EA013302F47C621A4392B2414620467A
:10576C00FFF7BBFF4D460135D0E701F0E003C02B3E
:10577C001DD116F8093003F0C002802A17D1890117
:10578C0001F4F86203F03F031A43E7E70D290AD846
:10579C0007290CD9A1F10803052B08D8DFE803F081
:1057AC0009231707111D222923D05C2921D020465B
:1057BC0004E05C212046FFF751FF6221FFF74EFF0A
:1057CC00D1E75C212046FFF749FF6621F6E75C2113
:1057DC002046FFF743FF6E21F0E75C212046FFF7E0
:1057EC003DFF7221EAE75C212046FFF737FF742169
:1057FC00E4E75C212046FFF731FF99F80010DDE764
:10580C002FB120462221BDE8F843FFF727BFBDE8A2
:10581C00F88300BFD8A70B00426900EB42031A7E45
:10582C0012B100221A7670472C21FFF717BF73B5FF
:10583C00436901910133082B16460FD8FFF7ECFF93
:10584C004369019900EB43045A1C01254261A5767A
:10585C00E676FFF703FF284602B070BD0020FBE799
:10586C0010B50446FFF7EAFE054B23604FF0FF32FC
:10587C000023C4E90D232163E363204610BD00BF60
:10588C0018A80B0070B5436B0133044621D1056B8E
:10589C004B684363EB6888681A1AA263AE6830449D
:1058AC00C31A002AE36305DD68688968014418445B
:1058BC0004F02EF9226B616B5268E36B0A445B1A9D
:1058CC0001212046C4E901232174FFF7AFFE0846ED
:1058DC0070BD0020FCE770B5436B013304460E46E7
:1058EC0029D18D68016B013D4563CB685A1B8263DE
:1058FC0088682844C31A002AE36304DD4868411908
:10590C00184404F005F9226B616B5268E36B0A448E
:10591C005B1A0125C4E9012320462574FFF786FE96
:10592C00636903F10C02F368B3FA83F35B0904F8BF
:10593C001230284670BD0020FCE730B504461546F1
:10594C000FCA84E80F002B78032B01BF01F1FF3144
:10595C0001326160A260204630BD1FB50A46044684
:10596C0001466846FFF7E9FF019B581E002806DB3D
:10597C00236B5B681B5C202B05D10138F6E74FF0DD
:10598C00FF3004B010BD2C2B18BF4FF0FF30F8E7E0
:10599C001FB504460A4601466846FFF7CEFF236B47
:1059AC000298DA68824205D95968095C202901D12C
:1059BC000130F7E7002807DB5B681B5C2C2B18BF5A
:1059CC004FF0FF3004B010BD4FF0FF30FAE700008D
:1059DC002DE9F04F44684FF0010C4FF0FF36D0F832
:1059EC0000E0964580F0B98111F80E80B8F1000FF7
:1059FC0000F0B381B8F13A0F00F0988033D8B8F1C9
:105A0C00220F00F0A68010D8A8F109085FFA88F8D8
:105A1C00B8F1170F0DD89F4D0CFA08F818EA050FBE
:105A2C0007D0056801350560D9E7B8F12C0F00F0F7
:105A3C003381D0F8008042450ED911F808505DB181
:105A4C003A2D00F269811F2D00F251810A2D00F2CE
:105A5C006081082D40F25681002B40F0628108F1E4
:105A6C00FF350560A5E0B8F17B0F37D02ED8B8F123
:105A7C005B0F33D0B8F15D0FDBD1002BD1D04FF0E1
:105A8C0002094568013D03EB0518002D55DBD8F8DC
:105A9C00047001374DD0D8F808A0BAF1FF3F48D1B7
:105AAC0098F800B0CB454BD10EF1010EC0F808A010
:105ABC00C8F808E003EB051EDEF80470013742D08D
:105ACC00DEF8087001373ED18560AAE7B8F17D0F8A
:105ADC00AFD1002BA5D04FF00109D2E70134002B38
:105AEC009FD04568099FAF424AD905F1010EC0F815
:105AFC0004E003EB051ECEE901664FEA051A00250A
:105B0C00CEF80C5085686F1C1FBF03EB0519D9F834
:105B1C000C500135C9F80C50B8F17B0F0CBF0125A6
:105B2C00022503F80A500568CEF804504568013D7B
:105B3C00CAE7013DA8F11008A7E701357FF471AF62
:105B4C006FF001041EE0013D6F1CAEF1100EB3D1DD
:105B5C0067E70EF10109C0F80090D0F800804245CB
:105B6C0040F2938011F80850002D00F08E80222D09
:105B7C0030D1F3B14568099FAF4206D8C0F800E0B8
:105B8C004FF0FF342046BDE8F08F05F1010E4FEACF
:105B9C00051803EB0515C0F804E0C5E901660027FC
:105BAC00EF60D0F800E04FF0030A03F808A0C5E955
:105BBC00019E85686F1C04F101043FF432AF002B89
:105BCC003FF42FAF03EB051EDEF80C500135CEF879
:105BDC000C5026E75C2D11D108F10105AA420DD914
:105BEC0005604D5D752D2BD86D2D0BD8662D27D8E6
:105BFC005B2D1DD8222D01D02F2D21D1056801350B
:105C0C000560AAE76E3D072D1AD801A757F825F0B5
:105C1C00095C0B004D5C0B004D5C0B004D5C0B00EC
:105C2C00095C0B004D5C0B00095C0B00535C0B001A
:105C3C005C3DEDB20CFA05F540F241473D42DDD139
:105C4C00C0F800E07CE708F1020505604FF0040A9B
:105C5C00D0F80080424503D80568013D0560CDE7CA
:105C6C0011F80850002DF7D0A5F1300BBBF1090F3E
:105C7C0004D925F02005413D052DE1D808F1010599
:105C8C00BAF1010A0560E3D1E6E7C0F800E06FF075
:105C9C00020477E713008000002B3FF4C2AE856846
:105CAC006F1C3FF4BEAE2D015D5D013D012D7FF6F5
:105CBC00B8AE456805F1FF3803EB051EB8F1000FCF
:105CCC00FFF6AFAE1EF8105C013D012D0AD85EF850
:105CDC000C5C013506D05EF8085C013502D1C0F8C9
:105CEC0008809EE608F1FF38AEF1100EE6E7A5F14C
:105CFC002009244F5FFA89F90CFA09F919EA070F00
:105D0C007FF4AAAE203D5E2D9AD808F101050560FE
:105D1C008FE60D2DF6D19FE605F0DF09B9F15D0F89
:105D2C00F8E74568099FAF427FF628AF05F10108F7
:105D3C004FEA051903EB0515C0F80480C5E90166A7
:105D4C000027EF60D0F800804FF0040A03F809A098
:105D5C00C5E901E80568013D83E6002B3FF412AF6D
:105D6C004268511E03EB02130029FFF60BAF53F8E8
:105D7C000C2C013203D053F8082C013287D0013996
:105D8C00103BF1E701100004F7B5C268044612B9E4
:105D9C00002003B0F0BD436900F12006ABB1002137
:105DAC00C0E908114FF0FF318162C169009141686F
:105DBC003046FFF70DFE431C28D1257C002DE7D182
:105DCC00606901F013FA6561E56100254FF0FF375A
:105DDC00C4E90855E2686168A76200952B46304615
:105DEC00FFF7F6FD0028D3DBE06117D0000101F0CE
:105DFC00F5F9E269606103460092C4E90855E2686E
:105E0C006168A7623046FFF7E3FD01E00028BFDBC5
:105E1C00636903EB0010A0610120BAE76369A36119
:105E2C00FAE72DE9FF410446006BFFF78AFA0546B5
:105E3C0048B3024621466846FFF77FFD29462046B7
:105E4C00FFF78BFD294680462046FFF7A1FDB8F1F0
:105E5C00000FDDE9017619DB0028ACBF064647468A
:105E6C00236BDA68921B002AA26304DD586881193F
:105E7C00384403F04DFEA36B226B3B44D360206B84
:105E8C00FFF782FF012004B0BDE8F0810028A8BF15
:105E9C00461CE5E738B5436B5A1C044618D0826B98
:105EAC00002A08DD016BE5684868E16B2B4401446E
:105EBC00184403F02DFED4E90C23A16B0B44E168CC
:105ECC000B44D360206BFFF75FFF4FF0FF3363632E
:105EDC0038BD000010B5034B0360044600F060FBB6
:105EEC00204610BD10A90B0010B50446FFF7F2FFB9
:105EFC0020461021FEF7CBF8204610BD10B500F05F
:105F0C0061FD044620B9034A03490448FEF728F909
:105F1C00204610BD20A80B002AA80B00B0E60320D9
:105F2C0010B5044600F0BAFD04480549FEF718F90F
:105F3C002046BDE8104000F009BD00BFB0E60320CC
:105F4C003DA80B0010B500F03DFD044620B9034AF6
:105F5C0003490448FEF704F9204610BD20A80B00A5
:105F6C0056A80B00B0E6032010B5036804460BB925
:105F7C0000F0F0FE2068BDE8104000F0FBBE38B524
:105F8C0004460430FFF7F0FF606AA16A0368DD681D
:105F9C00D4E90223A847606800F0F4FE2046BDE86F
:105FAC00384000F091BD38B504460430FFF7DCFFF3
:105FBC00606AA16A03689D68D4E90223A847A268B5
:105FCC002368D1885B692046984718B92368204616
:105FDC009B699847606800F0D5FE012038BD000031
:105FEC0010B5044B03600446406808B100F0BAFEDB
:105FFC00204610BD30AA0B0010B5034B03600446BD
:10600C00FFF7EEFF204610BD58A90B0010B5044653
:10601C00FFF7F2FF20466021FEF739F8204610BD4D
:10602C0010B5034B03600446FFF7DAFF204610BDA2
:10603C002CA90B0010B50446FFF7F2FF204640F6E2
:10604C003C41FEF724F8204610BD000000F12C0165
:10605C00002281600A4942604FF0340C826180F862
:10606C002020084A4262C0E903C1642203218182D4
:10607C0082624FF47A71044AC1610260704700BFBA
:10608C00809EA92020E6032058A90B0010B5064CD1
:10609C0023683BB96020FDF7F6FF034608B1FFF714
:1060AC00D5FF2360206810BD1CE6032010B5406AA4
:1060BC0000F08CFAFFF7EAFF4FF4FA720368C26142
:1060CC00BDE810405B68184738B504460430FFF74C
:1060DC004BFFE3686068043B172B86BFA3689D6980
:1060EC00002500F04FFE284638BD38B50446043074
:1060FC000D46FFF739FFE368043B172B07D9A3685C
:10610C009A69954203D09D61204600F01FFC60689F
:10611C00BDE8384000F036BE38B5044604300D46B4
:10612C00FFF722FFE368013B242B09D9A36893F9FD
:10613C002520AA4204D083F82550204600F006FC06
:10614C006068BDE8384000F01DBE000000F12C0175
:10615C00002281600A4942604FF4416C826180F8F0
:10616C002020084A4262C0E903C1C8220221818270
:10617C0082624FF47A71044AC1610260704700BFB9
:10618C00609EA92020E603202CA90B0010B5074C1B
:10619C00236843B940F63C40FDF775FF034608B150
:1061AC00FFF7D4FF2360206810BD00BF18E6032062
:1061BC0010B5406A00F00AFAFFF7E8FF4FF4FA72E4
:1061CC000368C261BDE810405B6818474FF441603A
:1061DC007047000038B504460D46064902F0C3FF6F
:1061EC0023464FF440621021284600F03DFB204628
:1061FC0038BD00BFC7AB0B002DE9F04FADF5217DCD
:10620C0080460C4600F06AFF60B3204603F055FD53
:10621C00DFF8D0B0DFF8D0A0DFF8D090074600252B
:10622C00BD421FD27E1B40F26D2240F26E2396427D
:10623C0088BF1E46631900935A46334640F26F21BD
:10624C0004A800F0EBFF9AF800308DF8003004AA97
:10625C003C23494602A801F0F9F903A8FDF7FAFF1F
:10626C003544DDE723464FF440621021404600F0F0
:10627C0079FB074680B300F031FF68B3204603F08A
:10628C001CFDDFF860B0DFF860A0DFF8649080469A
:10629C000025454520D2A8EB050640F26D2240F2C0
:1062AC006E23964288BF1E46631900935A463346A6
:1062BC0040F26F2104A800F0B1FF9AF800308DF87D
:1062CC00003004AA3C23494602A801F0BFF903A8F8
:1062DC00FDF7C0FF3544DCE738460DF5217DBDE800
:1062EC00F08F00BF68A80B0014E603206DA80B000C
:1062FC0087A80B0010B5144C144988B0684602F0FE
:10630C0032FF009A12492046FDF72AFFFFF73EFFA5
:10631C000099FFF771FFFFF739FF03680121DB6874
:10632C009847FFF733FF014604A8FFF753FF049A81
:10633C0008492046FDF714FF04A802F0C9FE684680
:10634C0002F0C6FE08B010BDB0E60320A0A80B00FA
:10635C00ADA80B00CBA80B00F8B5104904461048AB
:10636C00FDF7FEFEC82540F6D846606A036829464C
:10637C00DF68FF2202230135B847B542F5D1094940
:10638C000748FDF7EDFE204600F088FB2046FFF79E
:10639C00B1FF2046BDE8F84000F0D8BAE1A80B00E8
:1063AC00B0E60320F5A80B0038B5044604300D46C2
:1063BC00FFF7DAFDE3686068013BAB4226BFA368D8
:1063CC005D5D002500F0DEFC284638BD08B51021C7
:1063DC00FFF7EAFF08BD08B51421FFF7E5FF08BD7C
:1063EC0008B51C21FFF7E0FF08BD08B51D21FFF71C
:1063FC00DBFF08BD08B51E21FFF7D6FF08BD08B5A9
:10640C001F21FFF7D1FF08BD70B5044604300D46BF
:10641C001646FFF7A9FDE368013BAB4207D3A3681F
:10642C005A5DB24203D05E55204600F08FFA606888
:10643C00BDE8704000F0A6BC08B50A461421FFF771
:10644C00E3FF08BD08B50A461C21FFF7DDFF08BDB8
:10645C0008B50A461D21FFF7D7FF08BD08B50A4647
:10646C001E21FFF7D1FF08BD08B50A461F21FFF713
:10647C00CBFF08BD08B50A462021FFF7C5FF08BDB4
:10648C0008B50A462121FFF7BFFF08BD08B50A462B
:10649C002221FFF7B9FF08BD08B50A462321FFF7F3
:1064AC00B3FF08BD08B50A462421FFF7ADFF08BDB0
:1064BC0008B50A462621FFF7A7FF08BD08B50A460E
:1064CC002721FFF7A1FF08BD08B50A462C21FFF7CD
:1064DC009BFF08BD08B50A463021FFF795FF08BDA4
:1064EC0008B50A463121FFF78FFF08BD70B5044689
:1064FC0004300D461646FFF737FDE368023BAB420E
:10650C0007D3A3685A5BB24203D05E53204600F017
:10651C001DFA6068BDE8704000F034BC08B50A464E
:10652C001221FFF7E3FF08BD70B5044604300D4699
:10653C001646FFF719FDE368023BAB4207D3A3688D
:10654C005A5FB24203D05E53204600F0FFF96068F8
:10655C00BDE8704000F016BC08B50A462821FFF7CC
:10656C00E3FF08BD08B50A462A21FFF7DDFF08BD89
:10657C00084B012210B51A7003F086F8064C014640
:10658C0000234FF40052204600F016F8034B236012
:10659C0010BD00BF14E6032020E6032010A90B0059
:1065AC00704710B510210446FDF771FD204610BD53
:1065BC000368C9B29B68184730B5034DC0E9022384
:1065CC00C0E9005130BD00BF84A90B00406801F048
:1065DC0031BA10B50446006801F06FFA204610BDC0
:1065EC002DE9F7430446406801900D4616461F46B8
:1065FC0001F05AFAA7B1E168606841F0500101F06E
:10660C004CFA290A6068FFF7D3FF29466068FFF748
:10661C00CFFF6068002101F043FA48B1002400E08C
:10662C00012401A8FFF7D5FF204603B0BDE8F08395
:10663C00202F217B6068B84628BF4FF0200801232B
:10664C00424641F0500101F012FA03F01DF80368C4
:10665C001B6998474045E1DB06EB080903F014F889
:10666C0003685B69984706F8010B4E45F6D1454423
:10667C00A7EB0807BEE72DE9F74F044640680190E9
:10668C000E4690461D4601F00FFA4FF00109B9F184
:10669C00000F2AD04DB3E168606841F0500101F061
:1066AC00FCF9310A6068FFF783FF60683146FFF739
:1066BC007FFFA5F11E0A4746A6EB080B606817F88A
:1066CC00011B0368013D9B68984755450BEB07067A
:1066DC00B84601D0002DF1D16068012101F0E0F93C
:1066EC000028D7D04FF00009D1E701A8FFF771FFC0
:1066FC00484603B0BDE8F08F2DE9F0438BB00E4651
:10670C0015468046406801901C4601F0CDF9AE421A
:10671C0029D2264425448CB11E2C2746D8F80030AB
:10672C0028BF1E27F61BD3F8089002AA3B46314619
:10673C004046ED1BC84748B9002400E0012401A8DD
:10674C00FFF747FF20460BB0BDE8F083D8F80030C8
:10675C0002AAD3F80C9029463B464046C84700286D
:10676C00EAD0E41BD7E7E9D9002CE7D0D8F8003001
:10677C001E2C274628BF1E27D3F8089002AA3B469A
:10678C0031464046C8470028D6D0D8F8003002AA77
:10679C00D3F80C9029463B464046C8470028CBD03E
:1067AC003E443D44E41BDFE703685B68184710B5C3
:1067BC008369044633B131B1236820469B689847FE
:1067CC000023A36110BD00F0F5FAA369C01AE369B8
:1067DC009842F1D2F6E710B5C36904461BB100F03C
:1067EC00E9FAA06110BD0368BDE810409B6818472A
:1067FC0000F0C8BA0EB400B58CB00DAA4FF0200C46
:10680C0052F8041B0392CDE900120023016804AA7C
:10681C000120CDE904C300F0EDFB0CB05DF804EBF6
:10682C0003B0704707B5134639B10022CDE90022F9
:10683C000A4601681E2000F0EDFB03B05DF804FB76
:10684C0010B504460430FFF78FFB2368E1685B69E1
:10685C002046984718B9236820469B69984760687A
:10686C00FFF7C6FF012010BDF8B5054604301446ED
:10687C000E461F46FFF778FBEA68C4F10104144486
:10688C00B4420AD3A9683846314402F0C3FC01244F
:10689C006868FFF7ADFF2046F8BD0024F8E700005C
:1068AC00F0B521F00304184F184E194D0444A042C2
:1068BC000CD050F8043B7B434FEA734373435A406C
:1068CC004FEAF24202EB82022A44F0E701F00304A1
:1068DC0004440023A04204D014F8015D45EA0323CC
:1068EC00F8E70948434309484FEA73434A40584381
:1068FC005040084B80EA10405843074B80EA503018
:10690C00584380EA1040F0BD512D9ECC9335871B27
:10691C00646B54E66BCAEB8535AEB2C2F8B504466F
:10692C000430FFF721FBA36800229F689A60A668D9
:10693C00054AF1883046FFF7B3FFB760054660683B
:10694C00FFF756FF2846F8BD3F2A1C8570B5044654
:10695C008568FFF7E3FFA860236820461B69BDE844
:10696C00704018472DE9F0410446043090460D461E
:10697C001F46FFF7F9FAE268C8F101031344AB4272
:10698C0019D3384603F099F9404514D2A66835441A
:10699C002946384603F061F958B142460021284691
:1069AC0003F0D0F83946284603F061F92046FFF78A
:1069BC00CDFF012500E000256068FFF719FF284690
:1069CC00BDE8F08173B590F8203004460D46ABB1AC
:1069DC00B1F5805F17D22C4E0A4630462B49FDF795
:1069EC00BFFBA1682A463046FFF71CFF002300932B
:1069FC00274A316801231E2000F004FB0B2D02D81E
:106A0C0055BB002026E0A36822691968914223D166
:106A1C009988A28A91421FD1DA88ABB29A421BD8CC
:106A2C002046FFF77BFFA3689A688242064614D182
:106A3C00E268AA4205D900215955E2680135AA42FB
:106A4C00FAD8D4E902322046DA80A568FFF766FF4F
:106A5C00A860012002B070BD0026A1680A68002A57
:106A6C00CFD088688B880190C98800910648094965
:106A7C00FFF7C0FECDE90056A38A226906490248F9
:106A8C00FFF7B8FEBDE700BFB0E6032098A90B00E6
:106A9C00C6AB0B00B0A90B00E1A90B0038B504463E
:106AAC00C2688068002103F04DF8A36822691A605F
:106ABC00A368A28A9A80D4E902322046DA80A568BB
:106ACC00FFF72CFFA86038BD37B504468568FFF783
:106ADC0025FFA86094F820309BB1A3680A4DDA8892
:106AEC000A492846FDF73CFBA1682846CA88FFF7EF
:106AFC0099FE00230093064A296801231E2000F00A
:106B0C0081FA03B030BD00BFB0E6032012AA0B001F
:106B1C00C6AB0B0010B5002243F23904C0E90912D0
:106B2C00C0E90B2282838277048480F8222042639E
:106B3C00028710BD8177704780F82210704701855D
:106B4C007047418570471B2A4CD9838B1B0A0B70ED
:106B5C00838B4B70837F8B70038C1B0ACB70038CE5
:106B6C000B7190F822304B7190F827308B71C38CDD
:106B7C00CB71436A1B0A0B72436A4B72038D1B0A5F
:106B8C008B72038DCB72438D1B0A0B73438D4B732E
:106B9C0090F82C308B7390F82D30CB7390F82E30FE
:106BAC000B7490F82F304B7490F830308B7490F845
:106BBC003130CB7490F832300B7590F833304B7514
:106BCC00838E1B0A8B75838ECB75C38E1B0A0B763B
:106BDC00C38E4B7690F838308B7690F83930CB7674
:106BEC000120704700207047704710B504210446FF
:106BFC00FDF74DFA204610BD10B5064C236833B98D
:106C0C000420FDF740FA08B1034B036020602068B4
:106C1C0010BD00BF30E603208CAA0B0010B52B4C26
:106C2C00FFF734FAA17AFFF70DFCFFF72FFAE17AA0
:106C3C00FFF70EFCFFF72AFA217BFFF70FFCFFF79B
:106C4C0025FA617BFFF710FCFFF720FAA17BFFF719
:106C5C0011FCFFF71BFAE17BFFF712FCFFF716FAAA
:106C6C00217CFFF713FCFFF711FA617CFFF714FC92
:106C7C00FFF70CFAA17CFFF715FCFFF707FA94F964
:106C8C001310FFF749FAFFF701FA217DFFF710FC0B
:106C9C00FFF7FCF9617DFFF711FCFFF7F7F9E18ACB
:106CAC00C9BAFFF759FCFFF7F1F9218BC9BAFFF705
:106CBC0059FCFFF7EBF9A17EFFF70CFCFFF7E6F9A7
:106CCC00E17EBDE81040FFF70BBC00BF34E60320AB
:106CDC0084B013B51C4C05A880E80E003222214666
:106CEC00FFF731FFFFF7D2F90021FFF7EDFBFFF7BC
:106CFC00CDF9B4F8031049BA89B2FFF70FFCFFF7CE
:106D0C00C5F96179FFF798FBFFF7C0F9D4F80610C5
:106D1C0009BAFFF7EAF9FFF7B9F9FFF757FB01904A
:106D2C00FFF7B4F9FFF7D0F9019A08490346084870
:106D3C00FDF716FAFFF760FFFFF770FF02B0BDE832
:106D4C00104004B0704700BF34E603204CAA0B007F
:106D5C00B0E6032008B5024B1B685B6C019308BDC1
:106D6C004802030008B5024B1B689B6C019308BDDD
:106D7C004802030008B5024B1B68DB6C019308BD8D
:106D8C004802030008B5024B1B685B6D019308BDFC
:106D9C004802030008B5024B1B685B68019308BDF1
:106DAC001802030008B5024B1B68DB68019308BD91
:106DBC001802030008B5024B1B685B69019308BD00
:106DCC001802030008B5024B1B689B6D019308BDAC
:106DDC001802030008B5024B1B685B6E019308BDDB
:106DEC001802030008B5024B1B68DB68019308BD51
:106DFC002802030008B5024B1B689B69019308BD70
:106E0C002802030008B5024B1B68DB69019308BD1F
:106E1C002802030008B5024B1B681B6A019308BDCE
:106E2C002802030008B5024B1B685B6A019308BD7E
:106E3C002802030008B5024B1B689B6A019308BD2E
:106E4C002802030008B5024B1B68DB6A019308BDDE
:106E5C002802030008B5024B1B681B6B019308BD8D
:106E6C002802030008B5024B1B681B6C019308BD7C
:106E7C002802030008B5024B1B689B6C019308BDEC
:106E8C002802030008B5024B1B68DB6C019308BD9C
:106E9C002802030008B5024B1B681B6D019308BD4B
:106EAC002802030008B5024B1B685B69019308BDFF
:106EBC006402030008B5024B1B689B68019308BD74
:106ECC006802030008B5024B1B68DB68019308BD20
:106EDC006802030008B5024B1B689B68019308BD50
:106EEC003C02030008B5024B1B68DB68019308BD2C
:106EFC003C02030008B5024B1B681B69019308BDDB
:106F0C003C02030008B5024B1B685B69019308BD8A
:106F1C003C02030008B5024B1B689B69019308BD3A
:106F2C003C02030008B5024B1B68DB69019308BDEA
:106F3C003C02030008B5024B1B689B6A019308BD19
:106F4C003C02030008B5024B1B68DB6A019308BDC9
:106F5C003C02030008B5024B1B681B6C019308BD77
:106F6C003C02030008B5024B1B681B68019308BD6B
:106F7C004C02030008B5024B1B685B68019308BD0B
:106F8C004C02030008B5024B1B689B68019308BDBB
:106F9C004C02030008B5024B1B681B69019308BD2A
:106FAC004C02030008B5024B1B685B69019308BDDA
:106FBC004C02030008B5024B1B689B69019308BD8A
:106FCC004C02030008B5024B1B68DB69019308BD3A
:106FDC004C02030008B5024B1B681B6A019308BDE9
:106FEC004C02030008B5024B1B685B6B019308BD98
:106FFC006002030008B5024B1B685B6D019308BD72
:10700C006002030008B5024B1B689B6D019308BD21
:10701C006002030008B5024B1B685B6E019308BD50
:10702C006002030008B5024B1B68DB6E019308BDC0
:10703C006002030008B5024B1B681B6F019308BD6F
:10704C006002030008B5024B1B681B68019308BD66
:10705C002002030008B5024B1B685B68019308BD56
:10706C002002030008B5024B1B685B69019308BD45
:10707C002002030008B5024B1B68DB6C019308BDB2
:10708C002002030008B5024B1B685B6D019308BD21
:10709C002002030008B5024B1B689B6D019308BDD1
:1070AC002002030008B5034B1B68D3F8883001930A
:1070BC0008BD00002002030008B5034B1B68D3F881
:1070CC009430019308BD00002002030008B5024B68
:1070DC001B689B68019308BD4402030008B5024B72
:1070EC001B685B69019308BD4402030008B5024BA1
:1070FC001B681B6A019308BD4402030008B5024BD0
:10710C001B681B6B019308BD4402030008B5024BBE
:10711C001B68DB6B019308BD4402030008B5024BEE
:10712C001B685B68019308BD4002030008B5024B65
:10713C001B689B68019308BD4002030008B5024B15
:10714C001B68DB68019308BD4002030008B5024BC5
:10715C001B681B69019308BD4002030008B5024B74
:10716C001B685B69019308BD4002030008B5024B24
:10717C001B689B69019308BD4002030008B5024BD4
:10718C001B68DB69019308BD4002030008B5024B84
:10719C001B681B6A019308BD4002030008B5024B33
:1071AC001B681B6B019308BD4002030008B5024B22
:1071BC001B685B6B019308BD4002030008B5024BD2
:1071CC001B681B6C019308BD4002030008B5024B01
:1071DC001B685B6C019308BD4002030008B5024BB1
:1071EC001B681B68019308BD1C02030008B5024B09
:1071FC001B685B68019308BD1C02030008B5024BB9
:10720C001B689B68019308BD1C02030008B5024B68
:10721C001B685B69019308BD1C02030008B5024B97
:10722C001B68DB69019308BD1C02030008B5024B07
:10723C001B681B6A019308BD1C02030008B5024BB6
:10724C001B685B6A019308BD1C02030008B5024B66
:10725C001B68DB6A019308BD1C02030008B5024BD6
:10726C001B681B6B019308BD1C02030008B5024B85
:10727C001B68DB6B019308BD1C02030008B5024BB5
:10728C001B681B6C019308BD1C02030008B5024B64
:10729C001B685B6C019308BD1C0203000021FFF707
:1072AC00E1BE10B5836804460BB902F055FAC36809
:1072BC009847A3681BB103222146204698472046D5
:1072CC001021BDE81040FCF7E2BE10B583680446FF
:1072DC0013B1032201469847204610BD10B54368F0
:1072EC00013B0446436063B903689B689847A368F5
:1072FC00013BA3602BB923682046DB68BDE8104036
:10730C00184710BD70B5D0E90053044605EB0316C1
:10731C00AE4204D0284601F0DBFE1035F8E72068B9
:10732C00FFF764FF204670BD13B50B460246D0E94B
:10733C0000016C4684E8030093E8030082E8030034
:10734C0094E8030083E8030002B010BD0248002358
:10735C000360FFF7FFBC00BF68E603200022406813
:10736C001146FFF7F3BE002240681146FFF70EBF2F
:10737C00002240681146FFF719BF40680022FFF752
:10738C000DBF4068002281F00101FFF7F7BE00231A
:10739C0040681A461946FFF7E9BE002340681A46B2
:1073AC001946FFF7DBBE002240681146FFF7BEBE50
:1073BC00406800220221FFF7C1BE002340681A4634
:1073CC00FFF7ACBE084B10B5282422461846002106
:1073DC0002F0B8FB054B04804FF0FF3242600422F0
:1073EC005A60034A1A6010BD74E603206CE6032051
:1073FC009CAA0B0070470020704710B51021044662
:10740C00FCF745FE204610BD08B5FFF7F6FF08BD9A
:10741C0030B500224FF69C74026084808D888C807D
:10742C000C68858004600A6030BD10B504460068A5
:10743C00FFF7DCFE204610BD38B5C468F4B12378E4
:10744C00022B03D104F10C00FFF7EFFF656835B197
:10745C002846FFF73AFF10212846FCF718FEA568CE
:10746C0035B12846FFF731FF10212846FCF70FFEF7
:10747C0020461421BDE83840FCF709BE38BD0B6826
:10748C0003604B68436013B15A6801325A6070470D
:10749C0037B5044668460D46FFF7F1FF009B019A8D
:1074AC0023606260002301A801930093FCF7D2FED5
:1074BC0035B1281DFCF7CEFE08212846FCF7E7FD68
:1074CC00204603B030BD826810B50AB902F044F909
:1074DC00BDE81040C368184708B5006800F11001FA
:1074EC00FFF7F1FF08BD826810B50AB902F034F954
:1074FC00BDE81040C368184708B5006800F11001DA
:10750C00FFF7F1FF08BD000038B500230446036007
:10751C0010200D46FCF7B7FD28B10123C0E901335B
:10752C00024B0360C5602060204638BDD8AA0B0012
:10753C0038B5002383608B6804460D462BB10222BC
:10754C009847EB68E360AB68A360204638BD000049
:10755C00F0B589B004686846FFF75AFF4FF0020394
:10756C00D4E84F2F002A03D1C4E8413F0029F7D1BA
:10757C0025D104F10C0569462846FFF749FFBFF3F6
:10758C005B8F01236370002004F10803BFF35B8F52
:10759C0053E8006F43E80002002AF9D1BFF35B8F78
:1075AC006EB1FFF767FD78B129463046FFF78BFFC8
:1075BC003046FFF78AFE10213046FCF768FD68461E
:1075CC00FFF733FF09B0F0BD314602A8FFF7B0FF5B
:1075DC00E068B4F9105008B102F052FB069010208C
:1075EC00ADF81C50FCF74FFD0546E8B1002787604D
:1075FC001820FCF748FD044688B10146876002A8B4
:10760C00FFF792FE049BA268A360059B049206A957
:10761C00E268E36004F110000592FFF7F9FE084BF5
:10762C00EB60084B2C60AB6006A8FFF7FEFE02A8CF
:10763C00FFF74BFE002229460348FFF723FDB7E76F
:10764C00E5740B0069770B00AF720B002DE9F04F5E
:10765C008BB005469DF850A00F4690469946FFF713
:10766C003DFD07AE834638BB4FF62E73059005A93A
:10767C003046ADF81830FFF7CBFE1420FCF703FDB5
:10768C00044648B1022303700123C0E901BB4370D7
:10769C0031460C30FFF7BCFE2846214640F8044B1F
:1076AC00FFF732FF3046FFF7C0FE05A8FFF7BDFE1F
:1076BC0028460BB0BDE8F08F0C2300241420CDE934
:1076CC0008440793FCF7DFFC014618B1C0E90144FC
:1076DC000470447004A80391FFF716FF1E4B089327
:1076EC000820FCF7D0FC044610B103A9FFF7C7FE35
:1076FC0000965FFA8AF34A46414638460994FFF7EA
:10770C00F5FCB8B9039B5B7803F0FF0293B94FF615
:10771C009C7305A903A80592ADF81830FFF718FF64
:10772C0005A8FFF782FE05A80999FFF7B1FE06A888
:10773C00FCF790FD03A905A8FFF7A1FE059B069A8F
:10774C002B606A60002306A806930593FCF782FD64
:10775C0004A8FCF77FFDABE7E5770B00012AF8B531
:10776C00054603D10B6803600020F8BD022A10D037
:10777C00032AF9D10468002CF6D004F11000FFF7AD
:10778C0054FE2046FFF7A1FD18212046FCF77FFC94
:10779C00EAE718200E68FCF776FC044650B1314637
:1077AC00FFF7C6FE3069B6F9147008B102F068FA3A
:1077BC002061A7822C60D7E738B5002383608B68E3
:1077CC0004460D462BB102229847EB68E360AB6888
:1077DC00A360204638BD0000F0B589B004460D46C4
:1077EC0001A81146FFF754FEA4B124B21DB12846DE
:1077FC0002F046FA054601A803A90395ADF810401E
:10780C00FFF7A6FE03A8FFF710FE02A8FCF722FD67
:10781C0009B0F0BD019D0123D5E84F2F002A03D1FB
:10782C00C5E8413F0029F7D1EFD12B73BFF35B8F34
:10783C006B702B1DBFF35B8F53E8006F43E8004266
:10784C00002AF9D1BFF35B8F002EDED02046FFF764
:10785C0011FC074660B105F10C013046FFF743FE01
:10786C003046FFF732FD10213046FCF710FCCCE718
:10787C00314603A8FFF7A0FF2B7B8DF81C3010209E
:10788C00FCF701FC0546D0B187601420FCF7FBFB2C
:10789C00044678B18760014603A8FFF745FD059BB8
:1078AC00A268A360069B0592E268E3609DF81C3019
:1078BC0006922374064BEB60064B2C60AB6003A85E
:1078CC00FFF703FD002229460348FFF7DBFBC7E760
:1078DC0005750B00E9780B00AF720B00012A70B52F
:1078EC00044603D10B680360002070BD022A0CD043
:1078FC00032AF9D10468002CF6D02046FFF7E5FCEA
:10790C0014212046FCF7C3FBEEE714200E68FCF7AD
:10791C00BAFB054620B13146FFF74EFF337C2B7482
:10792C002560E1E7002240681146FFF72FBC0022DA
:10793C0040681146FFF73ABC40680022FFF72EBCA6
:10794C004068002281F00101FFF718BC0023406859
:10795C001A461946FFF70ABC002340681A46194616
:10796C00FFF7FCBB002240681146FFF7EFBB00227B
:10797C0040681146FFF7DABB406800220221FFF78E
:10798C00DDBB002340681A46FFF7C8BB024B03223D
:10799C005A60024A1A6070479CE60320F4AA0B0056
:1079AC007047F8B5064615460C468F18BC4206D0F3
:1079BC00336814F8011B9B6830469847F6E7284655
:1079CC00F8BD007C0022FFF725BA007C0021FFF7F0
:1079DC0029BA007C0021FFF72DBA007C0021FFF7AB
:1079EC0031BA007C0021FFF735BA10B514210446DA
:1079FC00FCF74DFB204610BD38B5044615464FF438
:107A0C007A730022C4E90123094B217408462360D0
:107A1C002946FFF727FABF3008D16B69DB0705D57C
:107A2C006868FFF7E3FBE868FFF7E0FB204638BD2A
:107A3C0030AB0B000023007C1A461946FFF7D2B975
:107A4C007FB500221423CDE90122ADF804300B7868
:107A5C008DF808304B680393CB680493007C0B7A49
:107A6C00059301A9FFF716FA07B05DF804FB1FB5E3
:107A7C00003B8DF800104FF06401039118BF0123F7
:107A8C00694601928DF80830FFF7DAFF05B05DF812
:107A9C0004FB007C0022FFF7ADB9C9B2FFF7F9BFB8
:107AAC00007C0022FFF7AEB908B50021007CFFF77F
:107ABC00E1F9B0FA80F0400908BD08B50021007C5E
:107ACC00FFF7E0F9B0FA80F0400908BD704710B537
:107ADC0018210446FCF7DBFA204610BDF0B5037DF7
:107AEC00062B8DB00E4600F104074FF0000412D0A7
:107AFC0000F1080515F8011D0A22304601F093FA31
:107B0C00AF42044419D0002CF4D02E21304601F0A1
:107B1C007BFA0444EEE72F236A4639460A208DF897
:107B2C000040FFF7BFF9684602F0C7F83368024619
:107B3C00DB68694630469847044620460DB0F0BDD8
:107B4C0010B5054B0446112240F8043B002101F00E
:107B5C00F9FF204610BD00BF58AB0B000346074A87
:107B6C0010B543F8042B01F1100251F8044B43F803
:107B7C00044B9142F9D10A781A7010BD58AB0B0026
:107B8C0010B59DF8084044EA032343EA024242EA56
:107B9C00016104234160037510BD000007B5064B5D
:107BAC000360CB7800938B784A780978FFF7E8FF6D
:107BBC0003B05DF804FB00BF58AB0B0000F11003E1
:107BCC00012213F8101C0129184608D153F8041C83
:107BDC0002EB4102013A03F11003F2D17047022982
:107BEC0004BF53F8041C5218F4E70EB4F0B588B077
:107BFC0000AF07F13405102155F8042B7A600446C8
:107C0C002B467818FD60FFF719FB0F287A681AD9F4
:107C1C0000F1080323F007036E46ADEB030D411C86
:107C2C002B466846FD60FFF709FB021E04DD236846
:107C3C0069469B6820469847B5462037BD46BDE847
:107C4C00F04003B070470028F7D0236802469B68C9
:107C5C0007F1100120469847EFE738B50B68036031
:107C6C004D6843689D42044608D015B16B680133DA
:107C7C006B60606808B1FFF731FB656038BD07B514
:107C8C0003688DF807109B6801220DF107019847D6
:107C9C0003B05DF804FB0B461146002210B5C0E999
:107CAC000022044683600BB9204610BDFFF7D5FFB8
:107CBC00FAE78368EBB11A78032A1AD8DFE802F0E6
:107CCC000417021B0520704702685B685268D05C81
:107CDC002D2812D0A0F13003092B0ED974280ED008
:107CEC0066280CD0A0F16E0358425841704706200C
:107CFC007047002070470420704703207047022013
:107D0C00704710B50446FFF7D4FF02280ED0C31EEF
:107D1C00DBB2012B14D82268A36850685B68BDE8FD
:107D2C0010400A220021184402F07AB82268A36895
:107D3C0052685B68D05CA0F174035842584110BD86
:107D4C000020FCE738B50023C0E9003304460E4898
:107D5C00C4E90203A9B10B78032B06D08BB91368C5
:107D6C0058684B68C35C6E2B07D013684D68586815
:107D7C008B6828445B1BA060E36011462046FFF72C
:107D8C006CFF204638BD00BFC7AB0B0038B50025D3
:107D9C000B46C0E90055C0E90255C0E9045504463C
:107DAC0011464BB11A78012A06D103F11002DB6897
:107DBC0082604361FFF751FF204638BD10B543691F
:107DCC00044663B18068E060013B1030A060206124
:107DDC00636113B1FFF7F2FEA060012000E01846CA
:107DEC0010BD10B57D210446FFF749FF0123237117
:107DFC00204610BD08B50379012B02D0022B04D00C
:107E0C0008BD2C21FFF73BFFFAE73A21FAE710B542
:107E1C000446FFF7EFFF20467B21FFF730FF0023DE
:107E2C002371204610BD000013B504460191FFF7E5
:107E3C00E1FF2368019ADB68034920469847012338
:107E4C002046237102B010BD73A20B0013B504467B
:107E5C000191FFF7CFFF2368019ADB6803492046A5
:107E6C00984701232046237102B010BD64AB0B0070
:107E7C002DE9F0470D46222190460446FFF7FFFE00
:107E8C00DFF8A490A8442F464745BA463DD017F8D2
:107E9C00016B222E06D05C2E04D0304601F022FE5F
:107EAC000028F1D12368AAEB05029B6829462046DD
:107EBC0098475C212046FFF7E2FE0D2E0AD8072ECC
:107ECC001CD9A6F10803052B18D8DFE803F00D0F19
:107EDC0011171315222E01D05C2E0FD131462046DE
:107EEC00FFF7CDFE3D46CFE76221F8E77421F6E7B8
:107EFC006E21F4E76621F2E77221F0E7236832463F
:107F0C00DB68494620469847ECE7BD4205D023681C
:107F1C007A1B9B6829462046984722212046FFF76A
:107F2C00AEFEBDE8F08700BF67AB0B0013B504468F
:107F3C00CDE90021FFF75EFF2046DDE90021FFF7C8
:107F4C0097FF02232046237102B010BD13B50446DF
:107F5C00CDE90021FFF74EFF2046DDE90021FFF7B8
:107F6C0087FF01232046237102B010BD806803688F
:107F7C00DB6818477047084611B10B685B681847F7
:107F8C007047704770477047704738B504460D46C8
:107F9C0000682E2101F057FE2368C31A2B6023B111
:107FAC00037803B1013023682060184638BD10B542
:107FBC000C210446FCF76BF8204610BD10B50421CB
:107FCC000446FCF764F8204610BD10B504210446A5
:107FDC00FCF75DF8204610BDFEF7CCBE08B501F0ED
:107FEC003CFEB0FA80F0400908BD704710B50C4655
:107FFC0001F06CFA844210D001F086FB844205D16A
:10800C0001F082FBBDE8104001F0FBB92CB12368F4
:10801C0020465B68BDE81040184710BD0B68036034
:10802C004B68436013B15A6801325A60704713B5FC
:10803C0004460846019101F040FE01990246204693
:10804C0002B0BDE81040FFF781BF13B504460846E7
:10805C00019101F032FE23680199DB68024620464B
:10806C0002B0BDE81040184707B503688DF807103B
:10807C00DB6801220DF10701984703B05DF804FBA2
:10808C000EB403B503AB002153F8042B006A019323
:10809C0000F0E7FF02B05DF804EB03B070470A682C
:1080AC0002604A6842600022C0E9022210B50261F7
:1080BC008C688460CC68C4600C698A60CA60046196
:1080CC000A6110BD2DE9F74FD0E900844FF0140A76
:1080DC0000930AFB04F4184BA41017465C43454666
:1080EC00002C21DD66100AFB06F005EB00093A4670
:1080FC00B9F804B0285801915F4528BF5A4601F0E1
:10810C00E4FD002801994FF001030BD15F4503D129
:10811C00009A13703446E3E7FCD9A61B09F1140549
:10812C00013EF7E7F9DBF5E7A5EB08050248AD10D2
:10813C00684303B0BDE8F08FCDCCCCCC7FB50369E0
:10814C00057E019103B3F9B1002600F10C040396EE
:10815C0003A901A8FFF719FF0146A8B10DF10B0304
:10816C00039A8DF80B602046FFF7ACFF9DF80B309F
:10817C0053B12368142404FB0034083434F9023C52
:10818C00002BA8BFDDB2E3E7284604B070BD0000A9
:10819C0010B5094C2378BFF35B8FDB0709D420465D
:1081AC00FBF784FF28B12046FBF785FF034801F05D
:1081BC0093FC034810BD00BFA8E603208F7F0B0083
:1081CC00CCB6032010B5094C2378BFF35B8FDB07CB
:1081DC0009D42046FBF76AFF28B12046FBF76BFF5A
:1081EC00034801F079FC034810BD00BFACE6032046
:1081FC00F77F0B00D0B6032038B500250446C0E944
:10820C000055C0E904558560856140F8245FFEF790
:10821C00A1FDFFF7BDFFE061FFF7D4FF25732062DE
:10822C00204638BD10B50A4C2378BFF35B8FDB07B3
:10823C000CD42046FBF73AFF40B10648FFF7DCFFB1
:10824C002046FBF738FF044801F046FC014810BDFE
:10825C00A4E60320B4E6032085870B00024A0349F9
:10826C0003480023FEF7E6BE69850B00F5840B007E
:10827C0075840B0000231A4619461846FEF7DABE21
:10828C0037B58D6804466846FFF7C8FE6A4629462E
:10829C002046FFF77BFD01A8FBF7DCFF204603B06F
:1082AC0030BD37B5CD6804466846FFF7B7FE6A4661
:1082BC0029462046FFF746FD01A8FBF7CBFF2046D9
:1082CC0003B030BD37B50D6904466846FFF7A6FE0E
:1082DC006A4629462046FFF7DEFC01A8FBF7BAFFE9
:1082EC00204603B030BD000070B58AB00D46014683
:1082FC0004A8FFF7C5FF144E04A8FFF75FFDE8B113
:10830C0004A96846FFF7CDFF02983146FFF766FED9
:10831C00044610B12C1E18BF012401A8FBF79AFFCC
:10832C00002CE9D004A96846FFF7CCFF6846FFF79C
:10833C00E8FC286001A8FBF78DFFDDE705A8FBF73B
:10834C0089FF0AB070BD00BF6DAB0B0037B50C4692
:10835C0020461349154601F080FC50B901F0B6F8DF
:10836C004FF4165101F0A2F803B0BDE8304001F013
:10837C00ADB80C49204601F070FC78B94FF4165397
:10838C0001A928460193FFF7AFFF01F0BDF9019950
:10839C0001F034F801F0B8F903B030BD0020FBE770
:1083AC0072AB0B0079AB0B0070B5D0E900531426FF
:1083BC00044606FB0356AE4205D005F10800FFF754
:1083CC00F3FF1435F7E72068FEF710FF204670BD69
:1083DC0010B504460C30FFF7E7FF2046FEF792FF7E
:1083EC00204610BD10B5044B044640F8043BFFF783
:1083FC00EFFF204610BD00BF68A70B0010B5044668
:10840C00FFF7F0FF20462421FBF741FE204610BD6C
:10841C0010B5034B03600446FFF7E4FF204610BD84
:10842C0014AC0B0010B50446FFF7F2FF20462421D4
:10843C00FBF72DFE204610BD0022C0E9002210B52E
:10844C0082600C6804604C6844608C680A604A6006
:10845C0084608A6010BD10B5036804461868FEF786
:10846C0091FC204610BD00002DE9F04F87B08046EE
:10847C0003931C4B5B68C3F30803894616466BB920
:10848C00FFF7D0FE044600F12403406A0593FFF782
:10849C00A3FD237B2BB105A8FFF7DDFF07B0BDE8DB
:1084AC00F08F01232373D4E900535FFA89F905EBAC
:1084BC00830AAA4512D055F8047B3146381DFFF7C4
:1084CC003DFE8145F5D33B68039A0092D3F808B082
:1084DC004A46334641463846D847EAE700232373D9
:1084EC00D9E700BF00ED00E02DE9F74F9B461A4B92
:1084FC005B68C3F308038046894616466BB9FFF7E1
:10850C0091FE044600F12403406A0193FFF764FDD9
:10851C00237B2BB101A8FFF79EFF03B0BDE8F08FC2
:10852C0001232373D4E90053F6B205EB830A5545B6
:10853C000ED055F8047B5946381DFFF7FFFD8642D7
:10854C00F5D33B684A46DB68414638469847EEE728
:10855C0000232373DEE700BF00ED00E02DE9F341BB
:10856C00164B5B68C3F3080305460F461BBBFFF7AE
:10857C0059FE00F124030446406A0193FFF72CFDD9
:10858C00D4E90063462406EB8308B04509D101A861
:10859C00FFF761FFA542B4BF0020012002B0BDE887
:1085AC00F08156F8040B39460430FFF7C7FD8442BE
:1085BC00A8BF0446E9E70020F0E700BF00ED00E0AB
:1085CC00F8B5D0E901539D4204460E460DDB6F1CF5
:1085DC00002F006804DDB900FEF710FE18B9F8BDD5
:1085EC00FEF704FE00202060A7602768626807EB96
:1085FC0085019200A2EB8502081D01F089FA47F86B
:10860C0025606368013363600120E8E737B500F14A
:10861C0024030446406A01930D46FFF7DDFCD4E9C0
:10862C00003203EB8202934219460BD00968A9422F
:10863C0003F10403F7D101A8FFF70DFF002528462D
:10864C0003B030BD29462046FFF7BAFF0546002887
:10865C00F1D06368012B01D1FFF700FE01A8FFF7F1
:10866C00FAFEECE770B50446D0E900020B4600EBCD
:10867C00820282420FD001461D6851F8046BAE4253
:10868C0007D1521A01F044FA6368013B6360012080
:10869C0070BD0846EDE70020FAE71FB500F1240392
:1086AC000446406A01910393FFF796FC01A920460A
:1086BC00FFF7D8FF18B163680BB9FFF7DBFD03A810
:1086CC00FFF7C9FE04B010BD70B5D0E904561823ED
:1086DC00044603FB0656AE4215D005F110012046A8
:1086EC00FFF7C0FF63680BB9FFF7C4FDE0692969A8
:1086FC000368DB689847696919B1206A0368DB680D
:10870C0098471835E7E7D4E90453182606FB0356B7
:10871C00AE4204D0284600F0DBFC1835F8E7002305
:10872C00636170BD73B50446FFF7A4FD04F1240327
:10873C00606A0193FFF750FC2046FFF7C5FF01A8C4
:10874C00FFF789FE606A08B1FEF70CFBD4E904530D
:10875C00182606FB0356AE4204D0284600F0B8FC9F
:10876C001835F8E72069FEF741FD2068FEF73EFD5D
:10877C00204602B070BD00000148FFF7D3BF00BF18
:10878C00B4E603208842F8B504460D46164615D9C2
:10879C00904214D2A2F11406751AA1F114072C44BC
:1087AC00B7421AD01CB131462046FFF778FC06F1CF
:1087BC000800FFF7F9FD143E143CF1E70DD0B5426B
:1087CC000BD01CB129462046FFF769FC05F10800C7
:1087DC00FFF7EAFD14351434F1E7F8BD8842F8B51B
:1087EC0004460D46164614D9904213D2A2F1100637
:1087FC00751AA1F110072C44B74218D01CB13146A0
:10880C00204600F0E2FC304600F062FC103E103CCA
:10881C00F2E70CD0B5420AD01CB12946204600F034
:10882C00D4FC284600F054FC10351034F2E7F8BDA7
:10883C0070B50E1E054611DD3001FEF7CFFC044667
:10884C0058B1D5E9001201EB0212FFF7C7FF2868F7
:10885C00FEF7CCFC2C60AE60012070BD0024F6E766
:10886C002DE9F04F904695B000230391D8F80410F1
:10887C000A9346229942C0E90033C0E90233C0E9A9
:10888C000433CDE908330446027623DCD8E90057DB
:10889C00142303FB0757AF423BD029460BA800F02B
:1088AC0094FC0BA90FA8099E00F08FFCDDE90913BD
:1088BC0099421BDA089B099A03EB061603EB02128A
:1088CC00314606F11000FFF789FFEEB9099B013321
:1088DC00099311E008A8FFF7ABFF0028D6D108A830
:1088EC00FEF710FD204615B0BDE8F08F013108A849
:1088FC00FFF79EFF0028DDD10FA800F0E9FB0BA8C5
:10890C0000F0E6FB1435C6E70FA9304600F05DFC1D
:10891C00DCE70026CDE90B660D964FF01409DDE976
:10892C0008239E427CDA3301D35806930BB90136E7
:10893C00F5E70023079309FB06F302930BAD07A998
:10894C0006A8FFF722FB82460028F0D04FF0000368
:10895C008DF817300146079A0DF117032846FFF7DB
:10896C00B1FB9DF817700190002F4AD1BDF81C3057
:10897C00ADF84030CDE911774FF6FF73CDF83CA040
:10898C00ADF842301397D5E90132934217DB03F16E
:10899C00010ABAF1000F30DD09FB0AF0FEF71EFCEC
:1089AC00834660B3D5E9001209FB0212FFF7EAFE19
:1089BC002868FEF71BFCC5F800B0C5F808A02B68AA
:1089CC00019A09FB023A6A68514609FB02320AF124
:1089DC001400FFF7D7FEBAF1000F03D00FA95046D1
:1089EC00FFF75DFB6B6801336B6011A8FFF7DCFCD4
:1089FC003FB10BA8FFF7D8FC71E7BB46D8E70127BE
:108A0C00F3E7019B2D6809FB0355069B1B782BB9DB
:108A1C00D8F80030029A13441B7CEB8008358EE7A3
:108A2C002168226062686360A36809920A9A0A93BB
:108A3C00E368A2600B9A0B932369E2600C9A0C9387
:108A4C00636922610D9A0D93039B089162612376F1
:108A5C00CFE70000F0B5044687B00D462646194610
:108A6C0068461746FBF798FE0B4B46F8043B6946E5
:108A7C0003A8FBF791FE03AA39463046FFF7F0FE38
:108A8C0003A8FBF7EDFC6846FBF7EAFC034B2360FD
:108A9C002046256207B0F0BD68A70B00FCAB0B00AD
:108AAC00F0B50F4685B01D490A9C384616461D4642
:108ABC0001F0D3F8C0B9A4B1294601A8FFF7BCFC5A
:108ACC001749242000F044FE054630B101AB324674
:108ADC002146FFF7BFFF134B2B6001A8FBF7C0FC2F
:108AEC002C46204605B0F0BD0F49384601F0B5F8CC
:108AFC0090B9002CF5D0294601A8FFF79DFC084938
:108B0C00242000F025FE05460028E6D001AB3246B5
:108B1C002146FFF79FFFE0E70024E2E781AB0B0063
:108B2C000CAD0B0014AC0B0085AB0B00014B024AD7
:108B3C001A607047B0E6032096AB0B002DE9F047A6
:108B4C00089DD0F8209004460E461746984600F033
:108B5C00BDFC81454CD02B79190704D56A69544961
:108B6C002046FFF78DFAB8F1000F0DD05B2120469F
:108B7C00FFF77AFA41462046FFF767FA23684D491A
:108B8C00DB680222204698472B79DA0723D5D5F8E3
:108B9C0008802F21404601F0ACF808B100F1010823
:108BAC0041462046FFF751FA2B799B0708D53A210D
:108BBC002046FFF759FAEA683F492046FFF760FA6A
:108BCC002A79236812F0040FDB6814BF3B493C4937
:108BDC000222204698472B7958071DD529690B4648
:108BEC001A4613F8010B60B1202808D11946F7E793
:108BFC00344800F066F90028ADD0BDE8F08728288D
:108C0C00EED12368521ADB682046984723682E4918
:108C1C00DB6804222046984700213846FEF702FA0A
:108C2C0001462046FFF711FA23682549DB6802222A
:108C3C00204698471EB131462046FFF706FA2B799D
:108C4C0013F0300F2CD023682049DB680222204619
:108C5C0098472B79D9060AD523681D49DB6807226A
:108C6C0020469847AA691B492046FFF709FA2B7939
:108C7C009A0611D5DB0605D523681049DB6802225C
:108C8C002046984723681449DB6820460A229847F7
:108C9C00E9692046FFF7D9F95D212046FFF7E4F991
:108CAC0023680E49DB6820460222BDE8F0471847CE
:108CBC009AAB0B00A1AB0B0073A20B00A4AB0B0087
:108CCC00A9AB0B00DCE60320A7AB0B00ACAB0B0095
:108CDC00AFAB0B00B7AB0B00BAAB0B00C5AB0B00CB
:108CEC002DE9F04385B0D0F820900C9C05460F463A
:108CFC0090461E4600F0EAFB814505D1494800F03C
:108D0C00E0F8002840F08A802B6A474A01924FF025
:108D1C00000901A803938DF80890FFF778F84946ED
:108D2C004046FEF77FF941498046012201A8FFF732
:108D3C00FDF84146FFF77BF93FB13D49012201A8FF
:108D4C00FFF7F4F83946FFF772F93EB139490122C1
:108D5C0001A8FFF7EBF83146FFF769F92379DF0734
:108D6C000ED5A6682F21304600F0C3FF00B1461C7B
:108D7C003149012201A8FFF7D9F83146FFF757F91D
:108D8C0023799E0707D52D49022201A8FFF7CEF8BB
:108D9C00E168FFF749F82379580714D5266933465B
:108DAC001F4613F8012B2AB1202A01D11E46F7E7E2
:108DBC00282AF5D12249022201A8FFF7B7F8BA1BDD
:108DCC003146FFF7C3F82379190707D51D4901224E
:108DDC0001A8FFF7ABF86169FFF738F82379DA06D9
:108DEC0008D5042218490DEB0200FFF79FF8A16982
:108DFC00FFF71AF823799B0607D51449062201A818
:108E0C00FFF794F8E169FFF712F901A8FEF7E9FF03
:108E1C00286A0F4903680222DB68984705B0BDE851
:108E2C00F08300BFDCE60320E4AB0B0077AB0B0058
:108E3C00C8AB0B007BAD0B00CAAB0B00CCAB0B0073
:108E4C00CFAB0B00FAA20B00AEA60B00D2AB0B0003
:108E5C00C5AB0B00002340681A46FEF75FB94068AB
:108E6C0000220221FEF76AB9002240681146FEF783
:108E7C005DB9002240681146FEF768B900234068CE
:108E8C001A461946FEF76AB9002340681A46194675
:108E9C00FEF76CB940680021FEF790B940680021DC
:108EAC00FEF794B94068002281F00101FEF766B923
:108EBC0040680022FEF772B9002240681146FEF7A6
:108ECC0075B9002240681146FEF760B92DE9F043F0
:108EDC0095B014460D460746FEF732FE00211C22C3
:108EEC000DA8009100F02EFE40230C9320466B46FB
:108EFC000CAA0021FDF7E6FF044600284BD10246E0
:108F0C0001216868FEF722F9022180462246686832
:108F1C00FEF71CF9009E81462146002E3BD000290D
:108F2C0039D17368022B03D00A2B11D0F669F4E700
:108F3C00B8F1000FFAD0716906A8043107ADFEF73D
:108F4C002DFE0FCD3C1D0FC42B6823704146EDE761
:108F5C00B9F1000FEAD07469102201A800F0F2FDFB
:108F6C0006238DF8143001AD04F108031834186889
:108F7C0059682A4603C20833A3421546F7D101A902
:108F8C0006A807ADFEF7EAFD0FCD3C1D0FC42B68FC
:108F9C0023704946CAE70098FDF78CFF384615B098
:108FAC00BDE8F083024B034A1A6000225A607047F6
:108FBC00DCE603205CAC0B00F8B506460D468F18BA
:108FCC000024BD420CD0336815F8011B9B68304659
:108FDC009847031E01DB1C44F3E7002C08BF1C461A
:108FEC002046F8BD13B50446084659B1019100F06E
:108FFC0064FE23680199DB680246204602B0BDE896
:10900C001040184702B010BD03689B68184738B56C
:10901C000D210546FFF7F8FF0A2104462846FFF705
:10902C00F3FF204438BD30B58BB00023012A8DF8F6
:10903C00243098BF0A2209AC0D46B1FBF2F101FBBA
:10904C00125303F0FF03092B94BF30333733DBB2D9
:10905C00AA4204F8013DEFD92146FFF7C3FF0BB03C
:10906C0030BD2DE9F04186B000AF05460E46381DE7
:10907C00142114463B60FEF7E1F813280ED8391D75
:10908C002846FFF7AFFF04461EB12846FFF7BFFF87
:10909C00044420461837BD46BDE8F08100F10803B2
:1090AC0023F00703E846ADEB030D2246411C3B6859
:1090BC006846FEF7C3F869462846FFF793FF044657
:1090CC00C546E1E7014B00229A607047E4E60320B5
:1090DC0010B504460068FEF789F8204610BD10B59F
:1090EC000446006808B1FEF781F80023C4E9013397
:1090FC00236010BD38B504460D4600680131FEF7FB
:10910C007DF810B1C4E90005012038BD10B5036825
:10911C00044623B143688B4201D3012010BD204685
:10912C00FFF7E8FF0028F9D0A368002BF5D12268DF
:10913C001370F2E737B50D46114601920446FFF75E
:10914C00E5FF019A28B92046FFF7C9FF204603B076
:10915C0030BDA2602946206800F0CCFC2268A368D0
:10916C000021D154F2E7002313B5C0E900330446C3
:10917C008360037341B10846019100F09EFD019993
:10918C0002462046FFF7D6FF204602B010BD38B588
:10919C00054600680C4670B16A688B689A4208D321
:1091AC00096831B100F063FDA368AB600023A360D4
:1091BC0038BDFEF71BF823682B6063686B60A368EF
:1091CC00AB600023C4E90033F1E710B50023C0E91C
:1091DC000033044683600373FFF7D9FF204610BDAC
:1091EC00884210B5044605D00B682BB18A68194625
:1091FC00FFF7A0FF204610BDFFF771FFFAE710B58F
:10920C0000230446C0E9003383600373FFF7E8FFD3
:10921C00204610BD13B5044659B10846019100F023
:10922C004CFD019902462046FFF784FF204602B010
:10923C0010BDFFF754FFF9E770B505460E4609B9A6
:10924C00002070BD6AB1846814442146FFF75EFFAC
:10925C000028F5D02868AB683146184400F007FDAB
:10926C00AC600120EDE707B50023ADF80430012216
:10927C008DF8041001A9FFF7DFFF03B05DF804FBC4
:10928C0008B582683AB921B10878B0FA80F0400983
:10929C0000E0012008BD006809B90078F5E700F08E
:1092AC00DCFCF2E7054B02221A60054B054A9A607A
:1092BC000020C3E90000FDF7CDBE00BF00E703208E
:1092CC00F4E603200000FFFF08B50020FDF716FFB1
:1092DC0028B1FDF703FF80F00100C0B208BD0120EA
:1092EC00FCE710B50020FDF76DFD0446A0B9FDF7B5
:1092FC00A9FE012810D12046FDF7CCFE60B9FFF77E
:10930C00E3FF10B9FDF7E2FEF9E7FFF7DDFFBDE87B
:10931C0010400020FDF756BD204610BD1FB5FFF7CD
:10932C00E0FF10220021684600F00CFC002168468A
:10933C00FDF750FD009805B05DF804FB024B1A6870
:10934C00024B1A60704700BFD4B6032004E7032019
:10935C0070474174704708B5007CFDF7EBFD20EABF
:10936C00E07008BD08B5007CFDF7C4FD20EAE07094
:10937C0008BD08B5007CFDF7CDFD40EAE07008BDE6
:10938C0008B5007CFDF7BEFD40EAE07008BD007C2E
:10939C00FDF7C8BD37B5457C04462DB1207C03B024
:1093AC00BDE83040FDF79EBD007C0191FDF7C2FD8C
:1093BC0000280199F2DC284603B030BD10B5142109
:1093CC000446FAF764FE204610BD000010B54FF4B9
:1093DC007A730446084611460022C4E90123044B63
:1093EC002360012320746374FDF7B4FD204610BD87
:1093FC00B4AC0B00007C0023FDF7A4BD0022FFF7EA
:10940C00F9BF007CFDF766BD41747047704770472B
:10941C0008B50021007CFDF7CDFD40EAE07008BDE9
:10942C0008B50121007CFDF7C5FD40EAE07008BDE0
:10943C0008B5007CFDF7B6FD20EAE07008BD08B564
:10944C00007CFDF7A7FD20EAE07008BD13B50446CB
:10945C00007C0191FDF7A6FD0028019901DC607CE0
:10946C0020B1207CFDF7AEFD20EAE07002B010BD0B
:10947C00007CFDF7AFBD10B514210446FAF707FECA
:10948C00204610BD10B54FF47A73044608460021EF
:10949C00C4E90113044B2360012320746374114647
:1094AC00FDF760FD204610BDE4AC0B00007C0022F3
:1094BC00FDF760BD007CFDF765BD10B514220446B8
:1094CC00002100F03FFB204610BD000010B50F4CF2
:1094DC0088B003A8FFF7F1FF2178BFF35B8F11F081
:1094EC0001010FD120460191FAF7E0FD019948B135
:1094FC0003AA0748FFF7C6FF2046FAF7DCFD05482C
:10950C0000F0EAFA024808B010BD00BF08E70320DB
:10951C000CE7032019940B00014B1860704700BF37
:10952C00D8B6032008B50B4B43B1FFF7CFFF036848
:10953C001B699847002801DDAFF30080064B43B14F
:10954C0000F0E2F803681B699847002801DDAFF3CF
:10955C00008008BD000000000000000008B5FFF707
:10956C00E1FFFDF727FC014B186008BD28E703203D
:10957C000548064A064908B5121A00F0BBFA054B15
:10958C00054A1A6008BD00BF00F4032004F4032050
:10959C00D4AE0B0000F403201E1C279A07B5002341
:1095AC0000931A466FF07701FDF786FD03B05DF866
:1095BC0004FB000007B543880A2B08D0502B0BD1B5
:1095CC00094B1B684BB103B05DF804EB1847FFF770
:1095DC00E5FF03B05DF804FB002300931A466FF01F
:1095EC007701FDF769FDF4E724E7032010B5124875
:1095FC000021FDF74BFE114B1A68114B9A42114B8F
:10960C000CBF012200221A7001D0FFF7B1FFFDF749
:10961C00C1FB044600F09EFA0B4B13B12046AFF38E
:10962C00008000210848FDF771FDBDE81040074897
:10963C000021FDF737BD00BF25950B0000F403207A
:10964C001E1C279A20E7032000000000C1950B0088
:10965C007047000038B50A4B036001230446436190
:10966C000849202000F076F8202560600549A560A7
:10967C00284600F06FF8C4E90305204638BD00BF4A
:10968C00180001000CAD0B0030B50E4D2978BFF35E
:10969C005B8F11F0010487B011D12846FAF706FD53
:1096AC0068B16846FFF7D6FF6A4621460648FEF7C2
:1096BC00A3F92846FAF7FFFC044800F00DFA02481B
:1096CC0007B030BD2CE7032030E703205D960B007C
:1096DC007047000038B5044614252A46002100F0D6
:1096EC0031FA25804025074925812846258200F03E
:1096FC0031F804496060284600F02CF8E060204600
:10970C0038BD00BF0CAD0B0030B50E4D2978BFF342
:10971C005B8F11F0010487B011D12846FAF7C6FC13
:10972C0068B101A8FFF7D6FF01AA21460648FFF74A
:10973C004DFE2846FAF7BFFC044800F0CDF902486C
:10974C0007B030BD44E7032048E70320DD960B004B
:10975C00FAF799BCFAF799BC08B5FDF777FD00004C
:10976C0081F0004102E000BF83F0004330B54FEAC6
:10977C0041044FEA430594EA050F08BF90EA020F33
:10978C001FBF54EA000C55EA020C7FEA645C7FEAC6
:10979C00655C00F0E2804FEA5454D4EB5555B8BFE9
:1097AC006D420CDD2C4480EA020281EA030382EA5A
:1097BC00000083EA010180EA020281EA0303362DEC
:1097CC0088BF30BD11F0004F4FEA01314FF4801CBF
:1097DC004CEA113102D0404261EB410113F0004FD1
:1097EC004FEA03334CEA133302D0524263EB430388
:1097FC0094EA050F00F0A780A4F10104D5F1200E26
:10980C000DDB02FA0EFC22FA05F2801841F1000180
:10981C0003FA0EF2801843FA05F359410EE0A5F154
:10982C0020050EF1200E012A03FA0EFC28BF4CF085
:10983C00020C43FA05F3C01851EBE37101F000453B
:10984C0007D54FF0000EDCF1000C7EEB00006EEB48
:10985C000101B1F5801F1BD3B1F5001F0CD34908D2
:10986C005FEA30004FEA3C0C04F101044FEA445229
:10987C0012F5800F80F09A80BCF1004F08BF5FEAB0
:10988C00500C50F1000041EB045141EA050130BD90
:10989C005FEA4C0C404141EB0101013C28BFB1F5A2
:1098AC00801FE9D291F0000F04BF01460020B1FAED
:1098BC0081F308BF2033A3F10B03B3F120020CDAC0
:1098CC000C3208DD02F1140CC2F10C0201FA0CF09E
:1098DC0021FA02F10CE002F11402D8BFC2F1200C03
:1098EC0001FA02F120FA0CFCDCBF41EA0C019040B9
:1098FC00E41AA2BF01EB0451294330BD6FEA040402
:10990C001F3C1CDA0C340EDC04F11404C4F12002EC
:10991C0020FA04F001FA02F340EA030021FA04F3FE
:10992C0045EA030130BDC4F10C04C4F1200220FA55
:10993C0002F001FA04F340EA0300294630BD21FA93
:10994C0004F0294630BD94F0000F83F4801306BF59
:10995C0081F480110134013D4EE77FEA645C18BF4D
:10996C007FEA655C29D094EA050F08BF90EA020FE4
:10997C0005D054EA000C04BF1946104630BD91EADC
:10998C00030F1EBF0021002030BD5FEA545C05D1DF
:10999C004000494128BF41F0004130BD14F580041E
:1099AC003CBF01F5801130BD01F0004545F0FE4192
:1099BC0041F470014FF0000030BD7FEA645C1ABFC7
:1099CC00194610467FEA655C1CBF0B46024650EAFE
:1099DC00013406BF52EA033591EA030F41F400212A
:1099EC0030BD00BF90F0000F04BF0021704730B5B0
:1099FC004FF4806404F132044FF000054FF0000185
:109A0C0050E700BF90F0000F04BF0021704730B545
:109A1C004FF4806404F1320410F0004548BF40421A
:109A2C004FF000013EE700BF42004FEAE2014FEA6F
:109A3C0031014FEA02701FBF12F07F4393F07F4F4A
:109A4C0081F06051704732F07F4208BF704793F04D
:109A5C007F4F04BF41F40021704730B54FF4607460
:109A6C0001F0004521F000411CE700BF50EA010263
:109A7C0008BF704730B54FF000050AE050EA01020C
:109A8C0008BF704730B511F0004502D5404261EB7C
:109A9C0041014FF4806404F132045FEA915C3FF4BD
:109AAC00D8AE4FF003025FEADC0C18BF03325FEA5A
:109ABC00DC0C18BF033202EBDC02C2F1200300FA0B
:109ACC0003FC20FA02F001FA03FE40EA0E0021FA30
