:02000002B0004C
:1040000000400B00AC9C0B00000006000D000502F8
:0840100004016810000000002B
:04401800188E0B00F3
:10401C0009480A49884208B505D0094A824202D0AB
:10402C00121A04F02BFD0748074A0021121A04F05B
:10403C004DFD014808BD00BF08B70320089C0B00CC
:10404C0084B7032084B70320EDE7032070B5074E37
:10405C00074C04F08FFAA41BA4080025AC4200D135
:10406C0070BD56F8043B98470135F7E7B09B0B0041
:10407C00D89B0B0000F044BB08B500F0A9F8BDE8D4
:10408C00084004F02FBA02F0AFB802F0ADB802F05D
:10409C00B3B8000008B5034A03490C2001F0C8FF6F
:1040AC00FEE700BF1D5E0B002C8E0B000078B0FAF3
:1040BC0080F0400970470123037070477047006A15
:1040CC000368DB681847000010B5034B0360044617
:1040DC0000F022FC204610BD88950B0010B504465C
:1040EC00FFF7F2FF204642F68C61FFF7D0FF204627
:1040FC0010BD37B51D4601AB044600F0F3FD20B1F1
:10410C0001992A46204600F0FFFC03B030BD0000A8
:10411C000A4B10B50446036003F082F8214603F005
:10412C00BAFA04F097F904F089F92046044B40F8E8
:10413C00043B03F04BF9204610BD00BF70950B00FB
:10414C0058950B0010B50446FFF7E2FF20462421DA
:10415C00FFF79DFF204610BD0EB400B58CB00DAA24
:10416C004FF0200C52F8041B0392CDE900120023EF
:10417C00016804AA1E20CDE904C301F061FF0CB054
:10418C005DF804EB03B07047F0B5D1E90156ADF220
:10419C00144D0C46416804AB771B3A46294418462B
:1041AC0004F06CFCE36807490022C255CDE90063BA
:1041BC000290054A05482B46FFF7CEFF0DF2144D31
:1041CC00F0BD00BF488E0B00418E0B00B0E6032003
:1041DC0070470B78012B01D1FFF7D6BF7047000059
:1041EC002DE9F0432DED028B0446ADF21C4D0E462D
:1041FC0019B131493148FFF7AFFFD4E9055960686F
:10420C006968AA6806AB521A0144184604F036FCD9
:10421C00D5E90112521A00218154D5F8088046B113
:10422C000190EB6800936A68254924484346FFF7E0
:10423C0093FF656900274D450BD26B68002BC4BFFB
:10424C00EB68FF181EB129462046FFF7C2FF103558
:10425C00F1E707EE908AF8EEE76AD4ED027A9FED6B
:10426C00198AF8EE677A86EEA77A67EE087A17EE67
:10427C00900A04F09DFB07EE907AF8EEE76AD4ED15
:10428C00077ACDF80880F8EE677ACDE9040186EE5E
:10429C00A77A67EE087A17EE900A04F089FB3A4683
:1042AC00CDE9000108490548FFF756FF0DF21C4DFA
:1042BC00BDEC028BBDE8F0837A8E0B00B0E60320D8
:1042CC008A8E0B000000C842B68E0B0070B5D0E988
:1042DC0000531426044606FB0356AE4204D028466F
:1042EC0003F0F4FE1435F8E7206801F085FF204652
:1042FC0070BD37B51D4601AB044600F0F3FC20B190
:10430C0001992A46204600F011FC03B030BD000094
:10431C00F0B52E492E482F4C2F4F304EB1B0FFF731
:10432C001BFF2C4800F075FB2D4A01460FAB2948AA
:10433C0000F0D8FC00250F992A46204600F08BFB94
:10434C00014630B9274922482A46FFF705FF31B00C
:10435C00F0BD09AB3A4607902046FFF7CAFE079915
:10436C000AAB32462046FFF7C4FF1F4A07990BAB36
:10437C002046FFF7BEFE1D4A07990CAB2046FFF7FF
:10438C00B8FE1B4A07990DAB2046FFF7B2FE194A3F
:10439C0007990EAB2046FFF7ACFE0E9B04930D9BCA
:1043AC0003930C9B02930B9B01930A9B124A009361
:1043BC008021099B10A801F037FF0135044810A992
:1043CC00FFF7CAFE322DB6D1C1E700BFF38E0B004A
:1043DC00B0E60320B4B70320368F0B00EF8E0B0032
:1043EC006F8E0B00178F0B00758E0B00C4980B0093
:1043FC003B8F0B00408F0B00458F0B0037B50446ED
:10440C001546019100F092FD01990122204600F021
:10441C00FBFC20463A2100F0ABFC04492A4620461E
:10442C0003B0BDE8304000F0E2BC00BF3C950B008F
:10443C008842F8B504460D46164616D9904215D258
:10444C00A2F11406751AA1F114072C44B7421CD022
:10445C002CB13146204603F0B6FE337C2374304633
:10446C0003F034FE143E143CF0E70ED0B5420CD0F1
:10447C002CB12946204603F0A6FE2B7C237428463B
:10448C0003F024FE14351434F0E7F8BD2DE9F041A7
:10449C000023C0E9003383604F689F4204460E46F8
:1044AC0023DD4FF0140808FB07F001F09DFE0546D4
:1044BC00D8B1D4E9001208FB0212FFF7B9FF20684B
:1044CC0001F09AFE2560A760D6E9007308FB03781B
:1044DC00B84508D03946284603F08FFE3B7C2B7438
:1044EC0014371435F4E7736863602046BDE8F08137
:1044FC00F0B58FB00024CDE90244049403F0AAFF78
:10450C00284D064602A905A8FFF7C0FF2F4605A9AE
:10451C0008A8FFF7BBFF244B47F8043B08A90BA8DE
:10452C00FFF7B4FF0BAA1E21384603F097F90BA82E
:10453C00FFF7CCFE08A8FFF7C9FE1C4B2B6005A8A3
:10454C002E62FFF7C3FE1A4B2B6003F083FF4FF470
:10455C00165103F06FFF02F063FE294603F054F886
:10456C0002A8FFF7B3FE134B134A9A60C3E9004449
:10457C00032001F08DFD114B40F22622A3F62C44B2
:10458C000092A3F540614FF44062204600F026FAF9
:10459C000B4B0C490C4823600FB0BDE8F04003F006
:1045AC00E0BD00BF84B7032058950B002C990B007D
:1045BC0070950B00A8B703200000FFFFE0C3032099
:1045CC0088950B00F3980B0040E60320F0B597B0EC
:1045DC00002305463D48049300F01BFA3C4A3B4E31
:1045EC003C4F014605AB394800F07CFB0124059992
:1045FC00621E304600F02FFA0146D8B103AB019091
:10460C003A463046FFF775FE039B0199AB420ED13B
:10461C00314A2E4804ABFFF76CFD049A2F49304801
:10462C00FFF79AFD9DF81040204617B0F0BD0134FD
:10463C00332CDCD1254906A800F09CFC22462949E4
:10464C002748FFF789FD214800F0D8F9014606A854
:10465C0000F0A2FC7D227B2106A800F072FC224611
:10466C001D4906A8FFF7CAFE06A800F05FFC012250
:10467C0006A8184900F0C8FB06A83A2100F078FB00
:10468C002A4606A8184900F0B2FB184B18491A68BC
:10469C0006A8FFF7B3FE06A816490022FFF7AEFEE8
:1046AC0006A815490022FFF7A9FE1449002206A806
:1046BC00FFF7A4FE06A800F069FB06A800F0C7FEF1
:1046CC0006A8E4B200F014F9AEE700BFB4B70320BB
:1046DC006F8E0B00EF8E0B00368F0B00828F0B0052
:1046EC00B0E60320A18F0B00CB8F0B0008B7032083
:1046FC00758E0B00C4980B003B8F0B00408F0B008A
:10470C0010B52DED028B4FF4FA6086B001F0C4FDAC
:10471C0000F060FF0368504C1B6898474F495048A5
:10472C00FFF71AFD4F494E48FFF716FD00F052FFF8
:10473C0001F01AF800212046FFF752FD4A4948487B
:10474C00FFF70AFD4FF468724849204600F01FF944
:10475C00204600F02FFE00212046FFF741FD444982
:10476C003F48FFF7F9FC00F035FF404900F07EFFB1
:10477C0000F030FF03680021DB689847D4ED027A23
:10478C00B8EE678ADFED3B7A28EE278A00F022FF2D
:10479C0000F040FF07EE900AF8EEE77AC8EE277AB1
:1047AC0017EE900A04F004F90B46024632492C48E5
:1047BC00FFF7D2FC204600F007F900F00BFF014692
:1047CC0002A800F02BFF02990191084604F0FBF9B6
:1047DC0001990246204600F0DAF802A803F076FCB4
:1047EC0000F0F8FE014602A800F018FF029A2349D7
:1047FC001B48FFF7B1FC02A803F068FC204600F050
:10480C00D9FD10B31E491648FFF7A6FC124800212B
:10481C00FFF7E6FC1B491248FFF79EFC1A4B186881
:10482C00FFF7D4FE194902460D48FFF795FC0A48DC
:10483C000021FFF7D5FCFFF76BFD15490848FFF782
:10484C008BFC06B0BDEC028B10BD00F0C3FE00F07B
:10485C008BFF1049D7E700BFB4B70320CF8F0B00F5
:10486C00B0E60320DE8F0B0027900B006C900B0042
:10487C000D940B000000C84248940B00A8940B0048
:10488C00BF940B00E1940B000CB7032028950B0090
:10489C003F950B00D3940B0010B5054B0360037CC4
:1048AC0004461BB9406808B101F0A6FC204610BDB7
:1048BC00A0950B0010B50446FFF7EEFF204614211F
:1048CC00FFF7E5FB204610BD10B5034B0360044613
:1048DC00FFF7E2FF204610BDC0950B0010B5044653
:1048EC00FFF7F2FF20463021FFF7D1FB204610BD29
:1048FC0010B5034B03600446FFF7E6FF204610BDDE
:10490C00D0950B0010B50446FFF7F2FF204640216E
:10491C00FFF7BDFB204610BD10B5074B0360037CB1
:10492C0004461BB9406908B101F066FC2046FFF74C
:10493C00B3FF204610BD00BFB0950B0010B5044668
:10494C00FFF7EAFF20462C21FFF7A1FB204610BD04
:10495C00034A02600022C0E90122C260027470475F
:10496C00A0950B0038B5037C04460D460BB1002016
:10497C0038BD406838B101F047FC0028F7D0C4E9D5
:10498C0001050120F4E7084601F02EFCF5E770B5AF
:10499C00C3680E461546D1184268044672B1826847
:1049AC008A420BD36068E3682A463146184404F007
:1049BC0065F8E2682A44E260012070BD2046FFF7EA
:1049CC00D1FF0028EED1F8E743680021C16023B184
:1049DC00826812B1184604F079B8704710B5C0E976
:1049EC0001120022C260012202744361024A029B3E
:1049FC000260C36110BD00BFB0950B00D0E9050388
:104A0C00834204D90278022A02D01030F8E7002041
:104A1C007047D0E90503984204D20378012B18BFE4
:104A2C00002070470020704770B513689D681368AC
:104A3C0003F1100414608669B4420AD29B698C6835
:104A4C00A34201DAAB42F2DDA342CCBF002001202D
:104A5C0000E0002070BD73B501F11003044616464A
:104A6C00019300250198A36983420BD982688B6856
:104A7C009A4207DAB54206D001AA20460135FFF763
:104A8C00D3FFEFE7002002B070BD2DE9F341089D84
:104A9C00984601F11003044617460193002601982D
:104AAC00A36983421AD982688B689A4216DAAE429D
:104ABC000BD1386001AA2046FFF7B6FF28B1019B45
:104ACC00C8F8003002B0BDE8F08101AA2046FFF71B
:104ADC00ABFF20460136FFF7A7FFE0E70020F1E728
:104AEC00F0B5013B0024D1E90176F61BA64208DDA6
:104AFC00A34206DD45683D442D5D02F8015B01349F
:104B0C00F1E700231370F0BD1FB5144610236A465D
:104B1C00FFF7E6FF04492246684601F07DFB431E81
:104B2C005842584104B010BD3C950B001FB51446BB
:104B3C0010236A46FFF7D4FF04492246684601F069
:104B4C006BFB431E5842584104B010BDCB8F0B0079
:104B5C0010B5044600680B4628B103F082FBE368ED
:104B6C000133E36010BD60680028F8D0D4E902215D
:104B7C00013A8A4288BF4354F1E703467F2B37B58D
:104B8C000846D9B204D803B0BDE83040FFF7E0BF07
:104B9C0001F03F01B3F5006FC3F3871541F08004BA
:104BAC0007D245F0C0010190FFF7D2FF01982146D2
:104BBC00E9E71B0B43F0E0010190FFF7C9FF05F09B
:104BCC003F01019841F08001EEE700002DE9FF471D
:104BDC0000244E68DFF8CCA080460F461546A1464F
:104BEC00B868B0425ADDD8F80430995D9A19002C97
:104BFC004BD0752905D86D2907D862291ED0662996
:104C0C001ED02846FFF7A4FF3DE0A1F16E04072C4F
:104C1C00F7D80FF2080C5CF824F000BF514C0B00D5
:104C2C000F4C0B000F4C0B000F4C0B00554C0B009A
:104C3C000F4C0B00594C0B005D4C0B000821E0E7AE
:104C4C000C21DEE70A21DCE70D21DAE70921D8E7A0
:104C5C00311D884217DD02A904333344084612F88B
:104C6C00014F01F8014B9A42F9D101AA51468DF836
:104C7C000C9001F0D1FA012805D1BDF804002946A9
:104C8C00FFF77BFF0536002404E05C2904D028469E
:104C9C00FFF75EFF0136A3E70124FBE7012004B018
:104CAC00BDE8F08794980B007FB50C4606460C497E
:104CBC001046154603F0ACFAD4E90131C91A01319A
:104CCC00284603F021FA00236A4621463046CDE9F6
:104CDC00013300950393FFF779FF04B070BD00BF5B
:104CEC00F3980B002DE9F04389B00546884604A8DB
:104CFC0012491646994603F034FA002700974B46A2
:104D0C0003AA41462846FFF7C0FE044670B103993A
:104D1C0004AA2846FFF7C8FF044608B90137EDE797
:104D2C00314604A803F0AAFA0028F7D004A803F02F
:104D3C00CDF9204609B0BDE8F08300BFF3980B0015
:104D4C0000230122C3604361028380F82A3070473C
:104D5C0008B50346FFF7FCFD044A1A604FF0FF321A
:104D6C001846DA62FFF7ECFF08BD00BFC0950B00D8
:104D7C00D0E9022310B593423FBF42685C1CC4606B
:104D8C00D15424BF012380F82A3010BD10B54369DB
:104D9C00044643B100EB4303597E09B1FFF7E8FF2A
:104DAC006369013B6361D4E90210636888424FF088
:104DBC0000022ABF5B181A5403F8012C10BD70B501
:104DCC000446D0E9025066682D1A134630440A4650
:104DDC00294601F031FA85422DBFE368A368E360F0
:104DEC00C01836BF0123E06084F82A3070BD0EB4C1
:104DFC0003B503AA52F8041B0192FFF7E0FF02B0BF
:104E0C005DF804EB03B070472DE9F84304460E46F9
:104E1C00174612B12221FFF7ABFFDFF80C810025FA
:104E2C00715D06EB0509002974D0D4E902329A426F
:104E3C0070D20B0634D501F0F003E02B05F101091B
:104E4C001DD116F8092002F0C003802B39D105F1D1
:104E5C00020916F8093003F0C000802831D103F0A4
:104E6C003F03920143EA013302F47C621A4392B28B
:104E7C0041462046FFF7BBFF4D460135D0E701F018
:104E8C00E003C02B1DD116F8093003F0C002802AB4
:104E9C0017D1890101F4F86203F03F031A43E7E7E5
:104EAC000D290AD807290CD9A1F10803052B08D81C
:104EBC00DFE803F009231707111D222923D05C29F1
:104ECC0021D0204604E05C212046FFF751FF6221EF
:104EDC00FFF74EFFD1E75C212046FFF749FF662123
:104EEC00F6E75C212046FFF743FF6E21F0E75C21DB
:104EFC002046FFF73DFF7221EAE75C212046FFF7D1
:104F0C0037FF7421E4E75C212046FFF731FF99F865
:104F1C000010DDE72FB120462221BDE8F843FFF752
:104F2C0027BFBDE8F88300BF90950B00426900EBEA
:104F3C0042031A7E12B100221A7670472C21FFF719
:104F4C0017BF73B5436901910133082B16460FD86F
:104F5C00FFF7ECFF4369019900EB43045A1C012550
:104F6C004261A576E676FFF703FF284602B070BDD6
:104F7C000020FBE710B50446FFF7EAFE054B236063
:104F8C004FF0FF320023C4E90D232163E363204675
:104F9C0010BD00BFD0950B0070B5436B01330446B8
:104FAC000E4629D18D68016B013D4563CB685A1BB8
:104FBC00826388682844C31A002AE36304DD4868C6
:104FCC004119184403F068FD226B616B5268E36B66
:104FDC000A445B1A0125C4E9012320462574FFF716
:104FEC00AFFE636903F10C02F368B3FA83F35B0958
:104FFC0004F81230284670BD0020FCE72DE9F04F74
:10500C0044684FF0010C4FF0FF36D0F800E09645A5
:10501C0080F0B98111F80E80B8F1000F00F0B38167
:10502C00B8F13A0F00F0988033D8B8F1220F00F0A5
:10503C00A68010D8A8F109085FFA88F8B8F1170F04
:10504C000DD89F4D0CFA08F818EA050F07D0056823
:10505C0001350560D9E7B8F12C0F00F03381D0F899
:10506C00008042450ED911F808505DB13A2D00F27E
:10507C0069811F2D00F251810A2D00F26081082DEB
:10508C0040F25681002B40F0628108F1FF3505603B
:10509C00A5E0B8F17B0F37D02ED8B8F15B0F33D029
:1050AC00B8F15D0FDBD1002BD1D04FF00209456870
:1050BC00013D03EB0518002D55DBD8F804700137C2
:1050CC004DD0D8F808A0BAF1FF3F48D198F800B0FD
:1050DC00CB454BD10EF1010EC0F808A0C8F808E082
:1050EC0003EB051EDEF80470013742D0DEF80870C1
:1050FC0001373ED18560AAE7B8F17D0FAFD1002B07
:10510C00A5D04FF00109D2E70134002B9FD04568A0
:10511C00099FAF424AD905F1010EC0F804E003EB38
:10512C00051ECEE901664FEA051A0025CEF80C5093
:10513C0085686F1C1FBF03EB0519D9F80C5001359E
:10514C00C9F80C50B8F17B0F0CBF0125022503F8F0
:10515C000A500568CEF804504568013DCAE7013D88
:10516C00A8F11008A7E701357FF471AF6FF00104C7
:10517C001EE0013D6F1CAEF1100EB3D167E70EF1CE
:10518C000109C0F80090D0F80080424540F29380AD
:10519C0011F80850002D00F08E80222D30D1F3B183
:1051AC004568099FAF4206D8C0F800E04FF0FF34C5
:1051BC002046BDE8F08F05F1010E4FEA051803EB10
:1051CC000515C0F804E0C5E901660027EF60D0F8CA
:1051DC0000E04FF0030A03F808A0C5E9019E8568BA
:1051EC006F1C04F101043FF432AF002B3FF42FAFDE
:1051FC0003EB051EDEF80C500135CEF80C5026E7FB
:10520C005C2D11D108F10105AA420DD905604D5D47
:10521C00752D2BD86D2D0BD8662D27D85B2D1DD851
:10522C00222D01D02F2D21D1056801350560AAE76B
:10523C006E3D072D1AD801A757F825F035520B00F3
:10524C0079520B0079520B0079520B0035520B003E
:10525C0079520B0035520B007F520B005C3DEDB2C6
:10526C000CFA05F540F241473D42DDD1C0F800E0B3
:10527C007CE708F1020505604FF0040AD0F80080C5
:10528C00424503D80568013D0560CDE711F808508B
:10529C00002DF7D0A5F1300BBBF1090F04D925F087
:1052AC002005413D052DE1D808F10105BAF1010AAF
:1052BC000560E3D1E6E7C0F800E06FF0020477E7A1
:1052CC0013008000002B3FF4C2AE85686F1C3FF4C6
:1052DC00BEAE2D015D5D013D012D7FF6B8AE45687A
:1052EC0005F1FF3803EB051EB8F1000FFFF6AFAE6A
:1052FC001EF8105C013D012D0AD85EF80C5C0135DE
:10530C0006D05EF8085C013502D1C0F808809EE634
:10531C0008F1FF38AEF1100EE6E7A5F12009244F95
:10532C005FFA89F90CFA09F919EA070F7FF4AAAEAA
:10533C00203D5E2D9AD808F1010505608FE60D2DF4
:10534C00F6D19FE605F0DF09B9F15D0FF8E7456886
:10535C00099FAF427FF628AF05F101084FEA051906
:10536C0003EB0515C0F80480C5E901660027EF6062
:10537C00D0F800804FF0040A03F809A0C5E901E851
:10538C000568013D83E6002B3FF412AF4268511EC5
:10539C0003EB02130029FFF60BAF53F80C2C013270
:1053AC0003D053F8082C013287D00139103BF1E7B8
:1053BC0001100004F7B5C268044612B9002003B00E
:1053CC00F0BD436900F12006ABB10021C0E9081122
:1053DC004FF0FF318162C169009141683046FFF79F
:1053EC000DFE431C28D1257C002DE7D1606900F00F
:1053FC0003FF6561E56100254FF0FF37C4E90855EF
:10540C00E2686168A76200952B463046FFF7F6FD0F
:10541C000028D3DBE06117D0000100F0E5FEE26963
:10542C00606103460092C4E90855E2686168A762AE
:10543C003046FFF7E3FD01E00028BFDB636903EBB7
:10544C000010A0610120BAE76369A361FAE738B5DF
:10545C00436B5A1C044618D0826B002A08DD016B82
:10546C00E5684868E16B2B440144184403F014FBD5
:10547C00D4E90C23A16B0B44E1680B44D360206B83
:10548C00FFF798FF4FF0FF33636338BD10B5034B44
:10549C000360044600F0DAF9204610BDB0960B000C
:1054AC0010B50446FFF7F2FF20461021FEF7EFFD82
:1054BC00204610BD10B500F0DBFB044620B9034AB2
:1054CC0003490448FEF748FE204610BDD8950B0052
:1054DC00F5950B00B0E6032010B5036804460BB934
:1054EC0000F06EFC2068BDE8104000F079BC38B5C7
:1054FC0004460430FFF7F0FF606AA16A0368DD68B8
:10550C00D4E90223A847606800F072FC2046BDE88D
:10551C00384000F02FBC38B504460430FFF7DCFFF0
:10552C00606AA16A03689D68D4E90223A847A2684F
:10553C002368D1885B692046984718B923682046B0
:10554C009B699847606800F053FC012038BD00004F
:10555C0010B5044B03600446406808B100F038FCF9
:10556C00204610BDA4970B0010B5034B03600446F6
:10557C00FFF7EEFF204610BDCC960B0010B504468D
:10558C00FFF7F2FF204640F63C41FEF780FD204637
:10559C0010BD000000F12C01002281600A4942601C
:1055AC004FF4416C826180F82020084A4262C0E9C5
:1055BC0003C1C8220221818282624FF47A71044AAB
:1055CC00C1610260704700BF609EA92058E60320AD
:1055DC00CC960B0010B5074C236843B940F63C4001
:1055EC00FEF751FD034608B1FFF7D4FF2360206896
:1055FC0010BD00BF54E6032010B5406A00F03CF922
:10560C00FFF7E8FF4FF4FA720368C261BDE810407F
:10561C005B6818474FF441607047000038B504468A
:10562C000D46064902F09DFD23464FF440621021C1
:10563C00284600F06FFA204638BD00BFF3980B00E7
:10564C0038B5046805467CB16368013B63605BB99F
:10565C00236820469B689847A368013BA3601BB94D
:10566C0023682046DB689847284638BD2DE9F04F63
:10567C00ADF5217D80460C4600F03EFD60B3204622
:10568C0003F0A1FADFF8D0B0DFF8D0A0DFF8D090AB
:10569C0007460025BD421FD27E1B40F26D2240F210
:1056AC006E23964288BF1E46631900935A463346B2
:1056BC0040F26F2104A800F0B7FD9AF800308DF885
:1056CC00003004AA3C23494602A800F0BDFF03A801
:1056DC00FFF7B6FF3544DDE723464FF44062102157
:1056EC00404600F095FA074680B300F005FD68B31C
:1056FC00204603F068FADFF860B0DFF860A0DFF84E
:10570C00649080460025454520D2A8EB050640F262
:10571C006D2240F26E23964288BF1E466319009399
:10572C005A46334640F26F2104A800F07DFD9AF8EA
:10573C0000308DF8003004AA3C23494602A800F042
:10574C0083FF03A8FFF77CFF3544DCE738460DF5F3
:10575C00217DBDE8F08F00BF07960B0050E60320BB
:10576C000C960B0026960B0010B5144C144988B0FF
:10577C00684602F0F6FC009A12492046FEF7ECFC53
:10578C00FFF728FF0099FFF771FFFFF723FF03686E
:10579C000121DB689847FFF71DFF014604A8FFF7BE
:1057AC003DFF049A08492046FEF7D6FC04A802F0F7
:1057BC008DFC684602F08AFC08B010BDB0E60320F0
:1057CC003F960B004C960B006A960B00F8B51049EF
:1057DC0004461048FEF7C0FCC82540F6D846606A5F
:1057EC0003682946DF68FF2202230135B847B5421A
:1057FC00F5D109490748FEF7AFFC204600F0A4FAA2
:10580C002046FFF7B1FF2046BDE8F84000F0F4B9A0
:10581C0080960B00B0E6032094960B00084B0122F7
:10582C0010B51A7002F0F4FE064C014600234FF43A
:10583C000052204600F016F8034B236010BD00BF49
:10584C0050E6032058E60320B0960B00704710B5C5
:10585C0010210446FEF71BFC204610BD0368C9B29C
:10586C009B68184730B5034DC0E90223C0E90051CD
:10587C0030BD00BFF8960B00406801F0D9B810B5E8
:10588C000446006801F017F9204610BD2DE9F743D6
:10589C000446406801900D4616461F4601F002F979
:1058AC00A7B1E168606841F0500101F0F4F8290AF1
:1058BC006068FFF7D3FF29466068FFF7CFFF606889
:1058CC00002101F0EBF848B1002400E0012401A80C
:1058DC00FFF7D5FF204603B0BDE8F083202F217BD6
:1058EC006068B84628BF4FF020080123424641F0BB
:1058FC00500101F0BAF802F08BFE03681B6998475F
:10590C004045E1DB06EB080902F082FE03685B69A7
:10591C00984706F8010B4E45F6D14544A7EB08070E
:10592C00BEE72DE9F74F0446406801900E469046BD
:10593C001D4601F0B7F84FF00109B9F1000F2AD05C
:10594C004DB3E168606841F0500101F0A4F8310AF0
:10595C006068FFF783FF60683146FFF77FFFA5F1B2
:10596C001E0A4746A6EB080B606817F8011B036874
:10597C00013D9B68984755450BEB0706B84601D08F
:10598C00002DF1D16068012101F088F80028D7D0F2
:10599C004FF00009D1E701A8FFF771FF484603B0AB
:1059AC00BDE8F08F2DE9F0438BB00E4615468046CE
:1059BC00406801901C4601F075F8AE4229D226448D
:1059CC0025448CB11E2C2746D8F8003028BF1E2742
:1059DC00F61BD3F8089002AA3B4631464046ED1B15
:1059EC00C84748B9002400E0012401A8FFF747FF8D
:1059FC0020460BB0BDE8F083D8F8003002AAD3F8EB
:105A0C000C9029463B464046C8470028EAD0E41B88
:105A1C00D7E7E9D9002CE7D0D8F800301E2C274660
:105A2C0028BF1E27D3F8089002AA3B4631464046B1
:105A3C00C8470028D6D0D8F8003002AAD3F80C906A
:105A4C0029463B464046C8470028CBD03E443D44FF
:105A5C00E41BDFE703685B68184710B583690446ED
:105A6C0033B131B1236820469B6898470023A3616A
:105A7C0010BD00F0D5F9A369C01AE3699842F1D2C0
:105A8C00F6E710B5C36904461BB100F0C9F9A06173
:105A9C0010BD0368BDE810409B68184700F0A8B91A
:105AAC000EB400B58CB00DAA4FF0200C52F8041BAC
:105ABC000392CDE900120023016804AA0120CDE96C
:105ACC0004C300F0BDFA0CB05DF804EB03B07047F2
:105ADC0007B5134639B10022CDE900220A46016808
:105AEC001E2000F0BDFA03B05DF804FB10B50446AF
:105AFC000430FFF7F1FC2368E1685B6920469847A6
:105B0C0018B9236820469B6998476068FFF7C6FF61
:105B1C00012010BDF8B50546043014460E461F464C
:105B2C00FFF7DAFCEA68C4F101041444B4420AD366
:105B3C00A9683846314402F06BFB01246868FFF712
:105B4C00ADFF2046F8BD0024F8E70000F0B521F0C9
:105B5C000304184F184E194D0444A0420CD050F8B1
:105B6C00043B7B434FEA734373435A404FEAF24280
:105B7C0002EB82022A44F0E701F003040444002300
:105B8C00A04204D014F8015D45EA0323F8E7094864
:105B9C00434309484FEA73434A4058435040084B2B
:105BAC0080EA10405843074B80EA5030584380EA53
:105BBC001040F0BD512D9ECC9335871B646B54E681
:105BCC006BCAEB8535AEB2C2F8B504460430FFF7AC
:105BDC0083FCA36800229F689A60A668054AF18836
:105BEC003046FFF7B3FFB76005466068FFF756FF16
:105BFC002846F8BD3F2A1C8570B504468568FFF71A
:105C0C00E3FFA860236820461B69BDE87040184775
:105C1C002DE9F0410446043090460D461F46FFF72F
:105C2C005BFCE268C8F101031344AB4219D338465C
:105C3C0002F0C9FF404514D2A668354429463846BF
:105C4C0002F091FF58B142460021284602F03EFF77
:105C5C003946284602F091FF2046FFF7CDFF01257B
:105C6C0000E000256068FFF719FF2846BDE8F081C9
:105C7C0073B590F8203004460D46ABB1B1F5805F9A
:105C8C0017D22C4E0A4630462B49FEF765FAA1680E
:105C9C002A463046FFF71CFF00230093274A316841
:105CAC0001231E2000F0D4F90B2D02D855BB002087
:105CBC0026E0A36822691968914223D19988A28AA7
:105CCC0091421FD1DA88ABB29A421BD82046FFF71B
:105CDC007BFFA3689A688242064614D1E268AA4206
:105CEC0005D900215955E2680135AA42FAD8D4E900
:105CFC0002322046DA80A568FFF766FFA860012013
:105D0C0002B070BD0026A1680A68002ACFD088684E
:105D1C008B880190C988009106480949FFF7C0FE9D
:105D2C00CDE90056A38A226906490248FFF7B8FE5E
:105D3C00BDE700BFB0E603200C970B00F2980B00F8
:105D4C0024970B0055970B0038B50446C268806841
:105D5C00002102F0BBFEA36822691A60A368A28A24
:105D6C009A80D4E902322046DA80A568FFF72CFF2E
:105D7C00A86038BD37B504468568FFF725FFA860D5
:105D8C0094F820309BB1A3680A4DDA880A4928465A
:105D9C00FEF7E2F9A1682846CA88FFF799FE0023AE
:105DAC000093064A296801231E2000F051F903B024
:105DBC0030BD00BFB0E6032086970B00F2980B00B5
:105DCC0008B5024B1B685B6C019308BD48020300CD
:105DDC0008B5024B1B689B6C019308BD480203007D
:105DEC0008B5024B1B68DB6C019308BD480203002D
:105DFC0008B5024B1B685B6D019308BD480203009C
:105E0C0008B5024B1B685B68019308BD18020300C0
:105E1C0008B5024B1B68DB68019308BD1802030030
:105E2C0008B5024B1B685B69019308BD180203009F
:105E3C0008B5024B1B68DB68019308BD2802030000
:105E4C0008B5024B1B689B69019308BD280203002F
:105E5C0008B5024B1B68DB69019308BD28020300DF
:105E6C0008B5024B1B681B6A019308BD280203008E
:105E7C0008B5024B1B685B6A019308BD280203003E
:105E8C0008B5024B1B689B6A019308BD28020300EE
:105E9C0008B5024B1B68DB6A019308BD280203009E
:105EAC0008B5024B1B681B6B019308BD280203004D
:105EBC0008B5024B1B681B6C019308BD280203003C
:105ECC0008B5024B1B689B6C019308BD28020300AC
:105EDC0008B5024B1B68DB6C019308BD280203005C
:105EEC0008B5024B1B681B6D019308BD280203000B
:105EFC0008B5024B1B685B69019308BD6402030083
:105F0C0008B5024B1B689B68019308BD680203002F
:105F1C0008B5024B1B68DB68019308BD68020300DF
:105F2C0008B5024B1B689B68019308BD3C0203003B
:105F3C0008B5024B1B68DB68019308BD3C020300EB
:105F4C0008B5024B1B681B69019308BD3C0203009A
:105F5C0008B5024B1B685B69019308BD3C0203004A
:105F6C0008B5024B1B689B69019308BD3C020300FA
:105F7C0008B5024B1B68DB69019308BD3C020300AA
:105F8C0008B5024B1B689B6A019308BD3C020300D9
:105F9C0008B5024B1B68DB6A019308BD3C02030089
:105FAC0008B5024B1B681B6C019308BD3C02030037
:105FBC0008B5024B1B681B68019308BD4C0203001B
:105FCC0008B5024B1B685B68019308BD4C020300CB
:105FDC0008B5024B1B689B68019308BD4C0203007B
:105FEC0008B5024B1B681B69019308BD4C020300EA
:105FFC0008B5024B1B685B69019308BD4C0203009A
:10600C0008B5024B1B689B69019308BD4C02030049
:10601C0008B5024B1B68DB69019308BD4C020300F9
:10602C0008B5024B1B681B6A019308BD4C020300A8
:10603C0008B5024B1B685B6B019308BD6002030043
:10604C0008B5024B1B685B6D019308BD6002030031
:10605C0008B5024B1B689B6D019308BD60020300E1
:10606C0008B5024B1B685B6E019308BD6002030010
:10607C0008B5024B1B68DB6E019308BD6002030080
:10608C0008B5024B1B681B6F019308BD600203002F
:10609C0008B5024B1B685B68019308BD2002030026
:1060AC0008B5024B1B685B69019308BD2002030015
:1060BC0008B5024B1B68DB6C019308BD2002030082
:1060CC0008B5024B1B685B6D019308BD20020300F1
:1060DC0008B5034B1B68D3F88830019308BD00004A
:1060EC002002030008B5034B1B68D3F894300193CE
:1060FC0008BD00002002030008B5024B1B685B6959
:10610C00019308BD4402030008B5024B1B681B6ACF
:10611C00019308BD4402030008B5024B1B68DB6BFE
:10612C00019308BD4402030008B5024B1B685B6871
:10613C00019308BD4002030008B5024B1B689B6825
:10614C00019308BD4002030008B5024B1B68DB68D5
:10615C00019308BD4002030008B5024B1B681B6984
:10616C00019308BD4002030008B5024B1B685B6934
:10617C00019308BD4002030008B5024B1B689B69E4
:10618C00019308BD4002030008B5024B1B68DB6994
:10619C00019308BD4002030008B5024B1B681B6A43
:1061AC00019308BD4002030008B5024B1B681B6B32
:1061BC00019308BD4002030008B5024B1B685B6BE2
:1061CC00019308BD4002030008B5024B1B681B6C11
:1061DC00019308BD4002030008B5024B1B685B6CC1
:1061EC00019308BD4002030008B5024B1B681B68F5
:1061FC00019308BD1C02030008B5024B1B685B68C9
:10620C00019308BD1C02030008B5024B1B689B6878
:10621C00019308BD1C02030008B5024B1B685B69A7
:10622C00019308BD1C02030008B5024B1B68DB6917
:10623C00019308BD1C02030008B5024B1B685B6A86
:10624C00019308BD1C02030008B5024B1B68DB6AF6
:10625C00019308BD1C02030008B5024B1B681B6BA5
:10626C00019308BD1C02030008B5024B1B68DB6BD5
:10627C00019308BD1C02030008B5024B1B681B6C84
:10628C00019308BD1C02030008B5024B1B685B6C34
:10629C00019308BD1C0203000021FFF701BF10B5DC
:1062AC00836804460BB902F01BFAC3689847A368CD
:1062BC001BB1032221462046984720461021BDE8F9
:1062CC001040FDF7E4BE10B58368044613B10322F9
:1062DC0001469847204610BD10B54368013B044663
:1062EC00436063B903689B689847A368013BA3604C
:1062FC002BB923682046DB68BDE81040184710BD59
:10630C0070B5D0E90053044605EB0316AE4204D039
:10631C00284601F0DBFE1035F8E72068FFF76CFF2C
:10632C00204670BD13B50B460246D0E900016C4601
:10633C0084E8030093E8030082E8030094E8030078
:10634C0083E8030002B010BD024800230360FFF78E
:10635C0037BD00BF68E60320002240681146FFF7F6
:10636C00FBBE002240681146FFF716BF00224068B2
:10637C001146FFF721BF40680022FFF715BF4068A8
:10638C00002281F00101FFF7FFBE002340681A468E
:10639C001946FFF7F1BE002340681A461946FFF76D
:1063AC00E3BE002240681146FFF7C6BE40680022DB
:1063BC000221FFF7C9BE002340681A46FFF7B4BE9E
:1063CC00084B10B5282422461846002102F07EFB0B
:1063DC00054B04804FF0FF32426004225A60034A9E
:1063EC001A6010BD74E603206CE60320C8970B00FE
:1063FC0070470020704710B510210446FDF747FE8A
:10640C00204610BD08B5FFF7F6FF08BD30B50022D9
:10641C004FF69C74026084808D888C800C6885801B
:10642C0004600A6030BD10B504460068FFF7E4FE56
:10643C00204610BD38B5C468F4B12378022B03D1C3
:10644C0004F10C00FFF7EFFF656835B12846FFF744
:10645C003AFF10212846FDF71AFEA56835B12846EB
:10646C00FFF731FF10212846FDF711FE20461421BD
:10647C00BDE83840FDF70BBE38BD0B6803604B68B8
:10648C00436013B15A6801325A60704737B50446FD
:10649C0068460D46FFF7F1FF009B019A236062608E
:1064AC00002301A801930093FFF7CAF835B1281D0A
:1064BC00FFF7C6F808212846FDF7E9FD204603B092
:1064CC0030BD826810B50AB902F00AF9BDE8104077
:1064DC00C368184708B5006800F11001FFF7F1FF19
:1064EC0008BD826810B50AB902F0FAF8BDE8104090
:1064FC00C368184708B5006800F11001FFF7F1FFF9
:10650C0008BD000038B500230446036010200D467A
:10651C00FDF7B9FD28B10123C0E90133024B03603B
:10652C00C5602060204638BD04980B0038B50023A8
:10653C0083608B6804460D462BB102229847EB68AA
:10654C00E360AB68A360204638BD0000F0B589B0AD
:10655C0004686846FFF75AFF4FF00203D4E84F2F48
:10656C00002A03D1C4E8413F0029F7D125D104F119
:10657C000C0569462846FFF749FFBFF35B8F0123E3
:10658C006370002004F10803BFF35B8F53E8006FC6
:10659C0043E80002002AF9D1BFF35B8F6EB1FFF71D
:1065AC0087FD78B129463046FFF78BFF3046FFF761
:1065BC008AFE10213046FDF76AFD6846FFF733FF6F
:1065CC0009B0F0BD314602A8FFF7B0FFE068B4F99E
:1065DC00105008B102F0DAFA06901020ADF81C50F9
:1065EC00FDF751FD0546E8B1002787601820FDF73F
:1065FC004AFD044688B10146876002A8FFF792FE67
:10660C00049BA268A360059B049206A9E268E36060
:10661C0004F110000592FFF7F9FE084BEB60084BF4
:10662C002C60AB6006A8FFF7FEFE02A8FFF74BFE3E
:10663C00002229460348FFF743FDB7E7E1640B004E
:10664C0065670B00AB620B002DE9F04F8BB0054674
:10665C009DF850A00F4690469946FFF74DFD07AEAA
:10666C00834638BB4FF62E73059005A93046ADF81E
:10667C001830FFF7CBFE1420FDF705FD044648B19A
:10668C00022303700123C0E901BB437031460C3077
:10669C00FFF7BCFE2846214640F8044BFFF732FFBB
:1066AC003046FFF7C0FE05A8FFF7BDFE28460BB02D
:1066BC00BDE8F08F0C2300241420CDE90844079387
:1066CC00FDF7E1FC014618B1C0E9014404704470C7
:1066DC0004A80391FFF716FF1E4B08930820FDF743
:1066EC00D2FC044610B103A9FFF7C7FE00965FFA6F
:1066FC008AF34A46414638460994FFF705FDB8B976
:10670C00039B5B7803F0FF0293B94FF69C7305A9CA
:10671C0003A80592ADF81830FFF718FF05A8FFF78E
:10672C0082FE05A80999FFF7B1FE06A8FEF788FFBF
:10673C0003A905A8FFF7A1FE059B069A2B606A60CA
:10674C00002306A806930593FEF77AFF04A8FEF72C
:10675C0077FFABE7E1670B00012AF8B5054603D1DB
:10676C000B6803600020F8BD022A10D0032AF9D16F
:10677C000468002CF6D004F11000FFF754FE2046FC
:10678C00FFF7A1FD18212046FDF781FCEAE7182050
:10679C000E68FDF778FC044650B13146FFF7C6FE93
:1067AC003069B6F9147008B102F0F0F92061A782D3
:1067BC002C60D7E738B5002383608B6804460D4600
:1067CC002BB102229847EB68E360AB68A3602046CC
:1067DC0038BD0000F0B589B004460D4601A811463D
:1067EC00FFF754FEA4B124B21DB1284602F0CEF935
:1067FC00054601A803A90395ADF81040FFF7A6FEC6
:10680C0003A8FFF710FE02A8FEF71AFF09B0F0BDAF
:10681C00019D0123D5E84F2F002A03D1C5E8413F44
:10682C000029F7D1EFD12B73BFF35B8F6B702B1D4E
:10683C00BFF35B8F53E8006F43E80042002AF9D1A5
:10684C00BFF35B8F002EDED02046FFF731FC0746EE
:10685C0060B105F10C013046FFF743FE3046FFF7FF
:10686C0032FD10213046FDF712FCCCE7314603A86F
:10687C00FFF7A0FF2B7B8DF81C301020FDF703FCDD
:10688C000546D0B187601420FDF7FDFB044678B1B6
:10689C008760014603A8FFF745FD059BA268A3602E
:1068AC00069B0592E268E3609DF81C300692237407
:1068BC00064BEB60064B2C60AB6003A8FFF703FDA7
:1068CC00002229460348FFF7FBFBC7E701650B00D5
:1068DC00E5680B00AB620B00012A70B5044603D1CE
:1068EC000B680360002070BD022A0CD0032AF9D17A
:1068FC000468002CF6D02046FFF7E5FC1421204656
:10690C00FDF7C5FBEEE714200E68FDF7BCFB054652
:10691C0020B13146FFF74EFF337C2B742560E1E745
:10692C00002240681146FFF737BC00224068114630
:10693C00FFF742BC40680022FFF736BC40680022DB
:10694C0081F00101FFF720BC002340681A4619466C
:10695C00FFF712BC002340681A461946FFF704BC27
:10696C00002240681146FFF7F7BB00224068114631
:10697C00FFF7E2BB406800220221FFF7E5BB0023D2
:10698C0040681A46FFF7D0BB024B03225A60024AFA
:10699C001A6070479CE6032020980B007047F8B5EE
:1069AC00064615460C468F18BC4206D0336814F8C0
:1069BC00011B9B6830469847F6E72846F8BD007CDB
:1069CC000022FFF74DBA007C0021FFF751BA007C82
:1069DC000021FFF755BA007C0021FFF759BA007C63
:1069EC000021FFF75DBA10B514210446FDF74FFBEB
:1069FC00204610BD38B5044615464FF47A73002274
:106A0C00C4E90123094B2174084623602946FFF78A
:106A1C004FFABF3008D16B69DB0705D56868FFF703
:106A2C00EBFBE868FFF7E8FB204638BD5C980B00F1
:106A3C000023007C1A461946FFF7FAB97FB50022ED
:106A4C001423CDE90122ADF804300B788DF8083011
:106A5C004B680393CB680493007C0B7A059301A9D4
:106A6C00FFF73EFA07B05DF804FB1FB5003B8DF84D
:106A7C0000104FF06401039118BF01236946019285
:106A8C008DF80830FFF7DAFF05B05DF804FB007CE9
:106A9C000022FFF7D5B9C9B2FFF7F9BF007C00227D
:106AAC00FFF7D6B908B50021007CFFF709FAB0FA58
:106ABC0080F0400908BD08B50021007CFFF708FAFA
:106ACC00B0FA80F0400908BD704710B51821044693
:106ADC00FDF7DDFA204610BDF0B5037D062B8DB019
:106AEC000E4600F104074FF0000412D000F1080527
:106AFC0015F8011D0A22304601F093FAAF42044406
:106B0C0019D0002CF4D02E21304601F07BFA04442D
:106B1C00EEE72F236A4639460A208DF80040FFF72E
:106B2C00E7F9684602F04FF833680246DB686946BD
:106B3C0030469847044620460DB0F0BD10B5054BC5
:106B4C000446112240F8043B002101F0BFFF20460F
:106B5C0010BD00BF84980B000346074A10B543F8DC
:106B6C00042B01F1100251F8044B43F8044B9142F1
:106B7C00F9D10A781A7010BD84980B0010B59DF8E5
:106B8C00084044EA032343EA024242EA0161042337
:106B9C004160037510BD000007B5064B0360CB7850
:106BAC0000938B784A780978FFF7E8FF03B05DF81B
:106BBC0004FB00BF84980B0000F11003012213F8B2
:106BCC00101C0129184608D153F8041C02EB410291
:106BDC00013A03F11003F2D17047022904BF53F8B4
:106BEC00041C5218F4E70EB4F0B588B000AF07F1EE
:106BFC003405102155F8042B7A6004462B4678187E
:106C0C00FD60FFF719FB0F287A681AD900F1080309
:106C1C0023F007036E46ADEB030D411C2B46684673
:106C2C00FD60FFF709FB021E04DD236869469B68C3
:106C3C0020469847B5462037BD46BDE8F04003B026
:106C4C0070470028F7D0236802469B6807F11001B3
:106C5C0020469847EFE738B50B6803604D684368EA
:106C6C009D42044608D015B16B6801336B606068B7
:106C7C0008B1FFF731FB656038BD07B503688DF8C7
:106C8C0007109B6801220DF10701984703B05DF8CE
:106C9C0004FB0B461146002210B5C0E90022044645
:106CAC0083600BB9204610BDFFF7D5FFFAE7836868
:106CBC00EBB11A78032A1AD8DFE802F00417021B8A
:106CCC000520704702685B685268D05C2D2812D092
:106CDC00A0F13003092B0ED974280ED066280CD0E5
:106CEC00A0F16E03584258417047062070470020AF
:106CFC00704704207047032070470220704710B57E
:106D0C000446FFF7D4FF02280ED0C31EDBB2012BC2
:106D1C0014D82268A36850685B68BDE810400A224A
:106D2C000021184402F002B82268A36852685B681C
:106D3C00D05CA0F174035842584110BD0020FCE710
:106D4C0038B50023C0E9003304460E48C4E90203F9
:106D5C00A9B10B78032B06D08BB9136858684B6814
:106D6C00C35C6E2B07D013684D6858688B68284439
:106D7C005B1BA060E36011462046FFF76CFF2046CA
:106D8C0038BD00BFF3980B0038B500250B46C0E9A1
:106D9C000055C0E90255C0E90455044611464BB1F3
:106DAC001A78012A06D103F11002DB688260436174
:106DBC00FFF751FF204638BD10B54369044663B157
:106DCC008068E060013B1030A0602061636113B10A
:106DDC00FFF7F2FEA060012000E0184610BD10B5D0
:106DEC007D210446FFF749FF01232371204610BD86
:106DFC0008B50379012B02D0022B04D008BD2C213D
:106E0C00FFF73BFFFAE73A21FAE710B50446FFF724
:106E1C00EFFF20467B21FFF730FF00232371204634
:106E2C0010BD000013B504460191FFF7E1FF236884
:106E3C00019ADB68034920469847012320462371B9
:106E4C0002B010BD3C950B0013B504460191FFF741
:106E5C00CFFF2368019ADB6803492046984701233A
:106E6C002046237102B010BD90980B002DE9F0471D
:106E7C000D46222190460446FFF7FFFEDFF8A49052
:106E8C00A8442F464745BA463DD017F8016B222E31
:106E9C0006D05C2E04D0304601F0E8FD0028F1D17C
:106EAC002368AAEB05029B682946204698475C217B
:106EBC002046FFF7E2FE0D2E0AD8072E1CD9A6F1AC
:106ECC000803052B18D8DFE803F00D0F1117131565
:106EDC00222E01D05C2E0FD131462046FFF7CDFE7D
:106EEC003D46CFE76221F8E77421F6E76E21F4E71F
:106EFC006621F2E77221F0E723683246DB684946E7
:106F0C0020469847ECE7BD4205D023687A1B9B6866
:106F1C0029462046984722212046FFF7AEFEBDE8C1
:106F2C00F08700BF93980B0013B50446CDE9002100
:106F3C00FFF75EFF2046DDE90021FFF797FF0223F4
:106F4C002046237102B010BD13B50446CDE90021D3
:106F5C00FFF74EFF2046DDE90021FFF787FF0123F5
:106F6C002046237102B010BD80680368DB681847A7
:106F7C007047084611B10B685B681847704770473B
:106F8C0070477047704738B504460D4600682E218F
:106F9C0001F0DFFD2368C31A2B6023B1037803B122
:106FAC00013023682060184638BD10B50C2104460A
:106FBC00FDF76DF8204610BD10B504210446FDF711
:106FCC0066F8204610BD10B504210446FDF75FF8A5
:106FDC00204610BDFEF704BF08B501F0C4FDB0FAA1
:106FEC0080F0400908BD704710B50C4601F032FA2C
:106FFC00844210D001F04CFB844205D101F048FBD7
:10700C00BDE8104001F0C1B92CB1236820465B6883
:10701C00BDE81040184710BD0B6803604B68436017
:10702C0013B15A6801325A60704713B504460846CA
:10703C00019101F0C8FD01990246204602B0BDE85D
:10704C001040FFF781BF13B504460846019101F0CB
:10705C00BAFD23680199DB680246204602B0BDE800
:10706C001040184707B503688DF80710DB6801223C
:10707C000DF10701984703B05DF804FB0EB403B59E
:10708C0003AB002153F8042B006A019300F0E7FFD7
:10709C0002B05DF804EB03B070470A6802604A68FE
:1070AC0042600022C0E9022210B502618C68846043
:1070BC00CC68C4600C698A60CA6004610A6110BD46
:1070CC002DE9F74FD0E900844FF0140A00930AFB26
:1070DC0004F4184BA41017465C434546002C21DDE4
:1070EC0066100AFB06F005EB00093A46B9F804B045
:1070FC00285801915F4528BF5A4601F06CFD0028C5
:10710C0001994FF001030BD15F4503D1009A137025
:10711C003446E3E7FCD9A61B09F11405013EF7E759
:10712C00F9DBF5E7A5EB08050248AD10684303B0A1
:10713C00BDE8F08FCDCCCCCC7FB50369057E019139
:10714C0003B3F9B1002600F10C04039603A901A8BE
:10715C00FFF719FF0146A8B10DF10B03039A8DF847
:10716C000B602046FFF7ACFF9DF80B3053B1236842
:10717C00142404FB0034083434F9023C002BA8BF5F
:10718C00DDB2E3E7284604B070BD000010B5094C31
:10719C002378BFF35B8FDB0709D42046FCF786FF0F
:1071AC0028B12046FCF787FF034801F059FC03483F
:1071BC0010BD00BFA8E603208B6F0B0010B7032097
:1071CC0010B5094C2378BFF35B8FDB0709D420463D
:1071DC00FCF76CFF28B12046FCF76DFF034801F06B
:1071EC003FFC034810BD00BFACE60320F36F0B005F
:1071FC0014B7032038B500250446C0E90055C0E992
:10720C0004558560856140F8245FFEF7D9FDFFF7D2
:10721C00BDFFE061FFF7D4FF25732062204638BD27
:10722C0010B50A4C2378BFF35B8FDB070CD42046D8
:10723C00FCF73CFF40B10648FFF7DCFF2046FCF7AB
:10724C003AFF044801F00CFC014810BDA4E60320F1
:10725C00B4E6032081770B00024A0349034800235C
:10726C00FEF70EBF65750B00F1740B0071740B000B
:10727C0000231A4619461846FEF702BF37B58D682B
:10728C0004466846FFF7C8FE6A4629462046FFF7C3
:10729C007BFD01A8FEF7D4F9204603B030BD37B50D
:1072AC00CD6804466846FFF7B7FE6A462946204675
:1072BC00FFF746FD01A8FEF7C3F9204603B030BD29
:1072CC0037B50D6904466846FFF7A6FE6A4629469F
:1072DC002046FFF7DEFC01A8FEF7B2F9204603B00A
:1072EC0030BD000070B58AB00D46014604A8FFF70A
:1072FC00C5FF144E04A8FFF75FFDE8B104A968466A
:10730C00FFF7CDFF02983146FFF766FE044610B139
:10731C002C1E18BF012401A8FEF792F9002CE9D00D
:10732C0004A96846FFF7CCFF6846FFF7E8FC286025
:10733C0001A8FEF785F9DDE705A8FEF781F90AB08B
:10734C0070BD00BF99980B0037B50C462046134909
:10735C00154601F008FC50B901F07CF84FF41651B9
:10736C0001F068F803B0BDE8304001F073B80C4987
:10737C00204601F0F8FB78B94FF4165301A92846C2
:10738C000193FFF7AFFF01F083F9019900F0FAFFC9
:10739C0001F07EF903B030BD0020FBE79E980B0096
:1073AC00A5980B0070B5D0E900531426044606FBD3
:1073BC000356AE4205D005F10800FFF7F3FF143574
:1073CC00F7E72068FEF718FF204670BD10B504469D
:1073DC000C30FFF7E7FF2046FEF792FF204610BD6A
:1073EC0010B5044B044640F8043BFFF7EFFF204672
:1073FC0010BD00BF58950B0010B50446FFF7F0FF09
:10740C0020462421FCF743FE204610BD10B5034B4B
:10741C0003600446FFF7E4FF204610BD44990B00BF
:10742C0010B50446FFF7F2FF20462421FCF72FFE8F
:10743C00204610BD0022C0E9002210B582600C6805
:10744C0004604C6844608C680A604A6084608A609E
:10745C0010BD10B5036804461868FEF7C9FC204639
:10746C0010BD00002DE9F04F87B0804603931C4BF4
:10747C005B68C3F30803894616466BB9FFF7D0FE69
:10748C00044600F12403406A0593FFF7A3FD237B18
:10749C002BB105A8FFF7DDFF07B0BDE8F08F012386
:1074AC002373D4E900535FFA89F905EB830AAA45E3
:1074BC0012D055F8047B3146381DFFF73DFE81454F
:1074CC00F5D33B68039A0092D3F808B04A4633468A
:1074DC0041463846D847EAE700232373D9E700BF73
:1074EC0000ED00E02DE9F74F9B461A4B5B68C3F3A8
:1074FC0008038046894616466BB9FFF791FE044691
:10750C0000F12403406A0193FFF764FD237B2BB148
:10751C0001A8FFF79EFF03B0BDE8F08F0123237392
:10752C00D4E90053F6B205EB830A55450ED055F855
:10753C00047B5946381DFFF7FFFD8642F5D33B68A7
:10754C004A46DB68414638469847EEE700232373EA
:10755C00DEE700BF00ED00E02DE9F341164B5B6860
:10756C00C3F3080305460F461BBBFFF759FE00F19A
:10757C0024030446406A0193FFF72CFDD4E9006311
:10758C00462406EB8308B04509D101A8FFF761FF3B
:10759C00A542B4BF0020012002B0BDE8F08156F82E
:1075AC00040B39460430FFF7C7FD8442A8BF0446DC
:1075BC00E9E70020F0E700BF00ED00E0F8B5D0E906
:1075CC0001539D4204460E460DDB6F1C002F0068D4
:1075DC0004DDB900FEF718FE18B9F8BDFEF70CFE75
:1075EC0000202060A7602768626807EB8501920085
:1075FC00A2EB8502081D01F04FFA47F8256063687D
:10760C00013363600120E8E737B500F12403044639
:10761C00406A01930D46FFF7DDFCD4E9003203EB21
:10762C008202934219460BD00968A94203F1040364
:10763C00F7D101A8FFF70DFF0025284603B030BD98
:10764C0029462046FFF7BAFF05460028F1D06368AB
:10765C00012B01D1FFF700FE01A8FFF7FAFEECE7C2
:10766C0070B50446D0E900020B4600EB8202824260
:10767C000FD001461D6851F8046BAE4207D1521A67
:10768C0001F00AFA6368013B6360012070BD084693
:10769C00EDE70020FAE71FB500F124030446406A29
:1076AC0001910393FFF796FC01A92046FFF7D8FF41
:1076BC0018B163680BB9FFF7DBFD03A8FFF7C9FE30
:1076CC0004B010BD70B5D0E904561823044603FB72
:1076DC000656AE4215D005F110012046FFF7C0FF4B
:1076EC0063680BB9FFF7C4FDE06929690368DB68BF
:1076FC009847696919B1206A0368DB68984718359F
:10770C00E7E7D4E90453182606FB0356AE4204D02F
:10771C00284600F0DBFC1835F8E70023636170BDE8
:10772C0073B50446FFF7A4FD04F12403606A0193CA
:10773C00FFF750FC2046FFF7C5FF01A8FFF789FEB5
:10774C00606A08B1FEF744FBD4E90453182606FB23
:10775C000356AE4204D0284600F0B8FC1835F8E7C2
:10776C002069FEF749FD2068FEF746FD204602B071
:10777C0070BD00000148FFF7D3BF00BFB4E6032083
:10778C008842F8B504460D46164615D9904214D2D7
:10779C00A2F11406751AA1F114072C44B7421AD0A1
:1077AC001CB131462046FFF778FC06F10800FFF7C4
:1077BC00F9FD143E143CF1E70DD0B5420BD01CB1D1
:1077CC0029462046FFF769FC05F10800FFF7EAFDA2
:1077DC0014351434F1E7F8BD8842F8B504460D466B
:1077EC00164614D9904213D2A2F11006751AA1F1C3
:1077FC0010072C44B74218D01CB13146204600F07B
:10780C00E2FC304600F062FC103E103CF2E70CD07B
:10781C00B5420AD01CB12946204600F0D4FC2846BB
:10782C0000F054FC10351034F2E7F8BD70B50E1EA4
:10783C00054611DD3001FEF7D7FC044658B1D5E9F9
:10784C00001201EB0212FFF7C7FF2868FEF7D4FC09
:10785C002C60AE60012070BD0024F6E72DE9F04FDE
:10786C00904695B000230391D8F804100A93462251
:10787C009942C0E90033C0E90233C0E90433CDE9D1
:10788C0008330446027623DCD8E90057142303FBA3
:10789C000757AF423BD029460BA800F094FC0BA92C
:1078AC000FA8099E00F08FFCDDE9091399421BDA41
:1078BC00089B099A03EB061603EB0212314606F1FC
:1078CC001000FFF789FFEEB9099B0133099311E012
:1078DC0008A8FFF7ABFF0028D6D108A8FEF710FDCB
:1078EC00204615B0BDE8F08F013108A8FFF79EFFC8
:1078FC000028DDD10FA800F0E9FB0BA800F0E6FB97
:10790C001435C6E70FA9304600F05DFCDCE7002615
:10791C00CDE90B660D964FF01409DDE908239E4264
:10792C007CDA3301D35806930BB90136F5E7002303
:10793C00079309FB06F302930BAD07A906A8FFF703
:10794C0022FB82460028F0D04FF000038DF8173050
:10795C000146079A0DF117032846FFF7B1FB9DF876
:10796C0017700190002F4AD1BDF81C30ADF8403093
:10797C00CDE911774FF6FF73CDF83CA0ADF842304E
:10798C001397D5E90132934217DB03F1010ABAF1DF
:10799C00000F30DD09FB0AF0FEF726FC834660B3CE
:1079AC00D5E9001209FB0212FFF7EAFE2868FEF780
:1079BC0023FCC5F800B0C5F808A02B68019A09FB98
:1079CC00023A6A68514609FB02320AF11400FFF7C9
:1079DC00D7FEBAF1000F03D00FA95046FFF75DFB9D
:1079EC006B6801336B6011A8FFF7DCFC3FB10BA88F
:1079FC00FFF7D8FC71E7BB46D8E70127F3E7019BFB
:107A0C002D6809FB0355069B1B782BB9D8F8003061
:107A1C00029A13441B7CEB8008358EE721682260A8
:107A2C0062686360A36809920A9A0A93E368A26089
:107A3C000B9A0B932369E2600C9A0C936369226195
:107A4C000D9A0D93039B089162612376CFE700009A
:107A5C00F0B5044687B00D462646194668461746CB
:107A6C00FCF714FD0B4B46F8043B694603A8FCF7E6
:107A7C000DFD03AA39463046FFF7F0FE03A8FCF7CC
:107A8C0025FC6846FCF722FC034B2360204625624C
:107A9C0007B0F0BD58950B002C990B00F0B50F46B4
:107AAC0085B01D490A9C384616461D4601F05BF808
:107ABC00C0B9A4B1294601A8FFF7BCFC1749242082
:107ACC0000F00AFE054630B101AB32462146FFF705
:107ADC00BFFF134B2B6001A8FCF7F8FB2C4620468C
:107AEC0005B0F0BD0F49384601F03DF890B9002CB7
:107AFC00F5D0294601A8FFF79DFC0849242000F089
:107B0C00EBFD05460028E6D001AB32462146FFF7D7
:107B1C009FFFE0E70024E2E7AD980B003C9A0B00D6
:107B2C0044990B00B1980B00014B024A1A60704744
:107B3C00B0E60320C2980B002DE9F047089DD0F861
:107B4C00209004460E461746984600F083FC81456B
:107B5C004CD02B79190704D56A6954492046FFF794
:107B6C008DFAB8F1000F0DD05B212046FFF77AFAA1
:107B7C0041462046FFF767FA23684D49DB6802222D
:107B8C00204698472B79DA0723D5D5F808802F2182
:107B9C00404601F034F808B100F101084146204696
:107BAC00FFF751FA2B799B0708D53A212046FFF7AE
:107BBC0059FAEA683F492046FFF760FA2A792368A8
:107BCC0012F0040FDB6814BF3B493C4902222046EB
:107BDC0098472B7958071DD529690B461A4613F877
:107BEC00010B60B1202808D11946F7E7344800F0A2
:107BFC0066F90028ADD0BDE8F0872828EED12368BF
:107C0C00521ADB682046984723682E49DB68042209
:107C1C002046984700213846FEF72AFA01462046AE
:107C2C00FFF711FA23682549DB68022220469847A2
:107C3C001EB131462046FFF706FA2B7913F0300FB0
:107C4C002CD023682049DB680222204698472B79E8
:107C5C00D9060AD523681D49DB68072220469847B8
:107C6C00AA691B492046FFF709FA2B799A0611D508
:107C7C00DB0605D523681049DB68022220469847AD
:107C8C0023681449DB6820460A229847E969204694
:107C9C00FFF7D9F95D212046FFF7E4F923680E4977
:107CAC00DB6820460222BDE8F0471847C6980B0057
:107CBC00CD980B003C950B00D0980B00D5980B0081
:107CCC00DCE60320D3980B00D8980B00DB980B0054
:107CDC00E3980B00E6980B00F1980B002DE9F043AC
:107CEC0085B0D0F820900C9C05460F4690461E4659
:107CFC0000F0B0FB814505D1494800F0E0F80028C0
:107D0C0040F08A802B6A474A01924FF0000901A883
:107D1C0003938DF80890FFF778F849464046FEF734
:107D2C00A7F941498046012201A8FFF7FDF8414619
:107D3C00FFF77BF93FB13D49012201A8FFF7F4F8A9
:107D4C003946FFF772F93EB13949012201A8FFF714
:107D5C00EBF83146FFF769F92379DF070ED5A668F2
:107D6C002F21304600F04BFF00B1461C3149012257
:107D7C0001A8FFF7D9F83146FFF757F923799E0789
:107D8C0007D52D49022201A8FFF7CEF8E168FFF7CD
:107D9C0049F82379580714D5266933461F4613F83A
:107DAC00012B2AB1202A01D11E46F7E7282AF5D14A
:107DBC002249022201A8FFF7B7F8BA1B3146FFF798
:107DCC00C3F82379190707D51D49012201A8FFF72C
:107DDC00ABF86169FFF738F82379DA0608D5042285
:107DEC0018490DEB0200FFF79FF8A169FFF71AF88D
:107DFC0023799B0607D51449062201A8FFF794F8AE
:107E0C00E169FFF712F901A8FEF7E9FF286A0F49AB
:107E1C0003680222DB68984705B0BDE8F08300BF19
:107E2C00DCE6032014990B00A3980B00F4980B00CC
:107E3C00AB9A0B00F6980B00F8980B00FB980B0014
:107E4C0025900B00FE980B0003990B00F1980B008A
:107E5C00002340681A46FEF767B9406800220221E9
:107E6C00FEF772B9002240681146FEF765B9002290
:107E7C0040681146FEF770B9002340681A4619464F
:107E8C00FEF772B9002340681A461946FEF774B91A
:107E9C0040680021FEF798B940680021FEF79CB9B4
:107EAC004068002281F00101FEF76EB940680022A3
:107EBC00FEF77AB9002240681146FEF77DB9002220
:107ECC0040681146FEF768B92DE9F04395B01446A9
:107EDC000D460746FEF732FE00211C220DA800912C
:107EEC0000F0F4FD40230C9320466B460CAA0021B5
:107EFC00FEF70EF8044600284BD1024601216868B3
:107F0C00FEF72AF90221804622466868FEF724F91A
:107F1C00009E81462146002E3BD0002939D1736842
:107F2C00022B03D00A2B11D0F669F4E7B8F1000F3D
:107F3C00FAD0716906A8043107ADFEF72DFE0FCDFE
:107F4C003C1D0FC42B6823704146EDE7B9F1000FBF
:107F5C00EAD07469102201A800F0B8FD06238DF850
:107F6C00143001AD04F108031834186859682A4616
:107F7C0003C20833A3421546F7D101A906A807ADE1
:107F8C00FEF7EAFD0FCD3C1D0FC42B68237049464C
:107F9C00CAE70098FDF7B4FF384615B0BDE8F0838A
:107FAC00024B034A1A6000225A607047DCE6032039
:107FBC008C990B00F8B506460D468F180024BD426F
:107FCC000CD0336815F8011B9B6830469847031E8C
:107FDC0001DB1C44F3E7002C08BF1C462046F8BD0F
:107FEC0013B50446084659B1019100F0ECFD236825
:107FFC000199DB680246204602B0BDE810401847E4
:10800C0002B010BD03689B68184738B50D210546B2
:10801C00FFF7F8FF0A2104462846FFF7F3FF204438
:10802C0038BD30B58BB00023012A8DF8243098BFB1
:10803C000A2209AC0D46B1FBF2F101FB125303F01D
:10804C00FF03092B94BF30333733DBB2AA4204F859
:10805C00013DEFD92146FFF7C3FF0BB030BD2DE931
:10806C00F04186B000AF05460E46381D142114466B
:10807C003B60FEF7E1F813280ED8391D2846FFF7B0
:10808C00AFFF04461EB12846FFF7BFFF044420464D
:10809C001837BD46BDE8F08100F1080323F0070353
:1080AC00E846ADEB030D2246411C3B686846FEF7E3
:1080BC00C3F869462846FFF793FF0446C546E1E737
:1080CC00014B00229A607047E4E6032010B5044689
:1080DC000068FEF791F8204610BD10B50446006804
:1080EC0008B1FEF789F80023C4E90133236010BD01
:1080FC0038B504460D4600680131FEF785F810B11D
:10810C00C4E90005012038BD10B50368044623B14D
:10811C0043688B4201D3012010BD2046FFF7E8FFD6
:10812C000028F9D0A368002BF5D122681370F2E770
:10813C0037B50D46114601920446FFF7E5FF019A4B
:10814C0028B92046FFF7C9FF204603B030BDA26016
:10815C002946206800F092FC2268A3680021D154C3
:10816C00F2E7002313B5C0E90033044683600373C0
:10817C0041B10846019100F026FD019902462046C6
:10818C00FFF7D6FF204602B010BD38B50546006893
:10819C000C4670B16A688B689A4208D3096831B191
:1081AC0000F0EBFCA368AB600023A36038BDFEF7C6
:1081BC0023F823682B6063686B60A368AB600023B3
:1081CC00C4E90033F1E710B50023C0E900330446DD
:1081DC0083600373FFF7D9FF204610BD884210B5AA
:1081EC00044605D00B682BB18A681946FFF7A0FF2F
:1081FC00204610BDFFF771FFFAE710B500230446C7
:10820C00C0E9003383600373FFF7E8FF204610BD1D
:10821C0013B5044659B10846019100F0D4FC0199FC
:10822C0002462046FFF784FF204602B010BDFFF740
:10823C0054FFF9E770B505460E4609B9002070BD2C
:10824C006AB1846814442146FFF75EFF0028F5D01C
:10825C002868AB683146184400F08FFCAC600120F4
:10826C00EDE707B50023ADF8043001228DF80410BA
:10827C0001A9FFF7DFFF03B05DF804FB08B58268C6
:10828C003AB921B10878B0FA80F0400900E0012039
:10829C0008BD006809B90078F5E700F064FCF2E766
:1082AC00054B02221A60054B054A9A600020C3E96F
:1082BC000000FDF7EDBE00BF00E70320F4E603204D
:1082CC000000FFFF024B1A68024B1A60704700BF98
:1082DC0018B7032004E7032070474174704708B5B2
:1082EC00007CFDF74DFE20EAE07008BD08B5007C6F
:1082FC00FDF726FE20EAE07008BD08B5007CFDF70E
:10830C002FFE40EAE07008BD08B5007CFDF720FEAA
:10831C0040EAE07008BD007CFDF72ABE37B5457C0D
:10832C0004462DB1207C03B0BDE83040FDF700BE03
:10833C00007C0191FDF724FE00280199F2DC28460F
:10834C0003B030BD10B514210446FBF7A0FE204647
:10835C0010BD000010B54FF47A7304460846114660
:10836C000022C4E90123044B2360012320746374AD
:10837C00FDF716FE204610BDE4990B00007C00238F
:10838C00FDF706BE0022FFF7F9BF007CFDF7C8BD64
:10839C00417470477047704708B50021007CFDF7A9
:1083AC002FFE40EAE07008BD08B50121007CFDF706
:1083BC0027FE40EAE07008BD08B5007CFDF718FE0A
:1083CC0020EAE07008BD08B5007CFDF709FE20EA44
:1083DC00E07008BD13B50446007C0191FDF708FE62
:1083EC000028019901DC607C20B1207CFDF710FE97
:1083FC0020EAE07002B010BD007CFDF711BE10B594
:10840C0014210446FBF743FE204610BD10B54FF473
:10841C007A73044608460021C4E90113044B236017
:10842C000123207463741146FDF7C2FD204610BD74
:10843C00149A0B00007C0022FDF7C2BD007CFDF7F6
:10844C00C7BD10B514220446002100F03FFB2046A6
:10845C0010BD000010B50F4C88B003A8FFF7F1FF5A
:10846C002178BFF35B8F11F001010FD120460191F0
:10847C00FBF71CFE019948B103AA0748FFF7C6FF9A
:10848C002046FBF718FE054800F0EAFA024808B04F
:10849C0010BD00BF08E703200CE70320A1830B00ED
:1084AC00014B1860704700BF1CB7032008B50B4B7D
:1084BC0043B1FFF7CFFF03681B699847002801DD24
:1084CC00AFF30080064B43B100F0E2F803681B6980
:1084DC009847002801DDAFF3008008BD00000000C4
:1084EC000000000008B5FFF7E1FFFDF799FC014B18
:1084FC00186008BD28E703200548064A064908B558
:10850C00121A00F0BBFA054B054A1A6008BD00BFF1
:10851C0000F4032004F40320049C0B0000F403205B
:10852C001E1C279A07B5002300931A466FF077019B
:10853C00FDF7D8FD03B05DF804FB000007B54388D8
:10854C000A2B08D0502B0BD1094B1B684BB103B035
:10855C005DF804EB1847FFF7E5FF03B05DF804FB8B
:10856C00002300931A466FF07701FDF7BBFDF4E78B
:10857C0024E7032010B512480021FDF785FE114BAE
:10858C001A68114B9A42114B0CBF012200221A702F
:10859C0001D0FFF7B1FFFDF733FC044600F09EFA63
:1085AC000B4B13B12046AFF3008000210848FDF7B8
:1085BC00B3FDBDE8104007480021FDF789BD00BFA1
:1085CC00AD840B0000F403201E1C279A20E7032027
:1085DC000000000049850B007047000038B50A4BBD
:1085EC0003600123044643610849202000F076F81B
:1085FC00202560600549A560284600F06FF8C4E9A5
:10860C000305204638BD00BF180001003C9A0B0042
:10861C0030B50E4D2978BFF35B8F11F0010487B094
:10862C0011D12846FBF742FD68B16846FFF7D6FF2B
:10863C006A4621460648FEF7DDF92846FBF73BFD66
:10864C00044800F00DFA024807B030BD2CE70320B7
:10865C0030E70320E5850B007047000038B5044671
:10866C0014252A46002100F031FA258040250749BF
:10867C0025812846258200F031F80449606028469F
:10868C0000F02CF8E060204638BD00BF3C9A0B008F
:10869C0030B50E4D2978BFF35B8F11F0010487B014
:1086AC0011D12846FBF702FD68B101A8FFF7D6FFF0
:1086BC0001AA21460648FFF74DFE2846FBF7FBFCB6
:1086CC00044800F0CDF9024807B030BD44E7032060
:1086DC0048E7032065860B00FBF7D5BCFBF7D5BC40
:1086EC0008B5FDF7B1FD000081F0004102E000BFCC
:1086FC0083F0004330B54FEA41044FEA430594EA56
:10870C00050F08BF90EA020F1FBF54EA000C55EA90
:10871C00020C7FEA645C7FEA655C00F0E2804FEA61
:10872C005454D4EB5555B8BF6D420CDD2C4480EA43
:10873C00020281EA030382EA000083EA010180EA73
:10874C00020281EA0303362D88BF30BD11F0004FC1
:10875C004FEA01314FF4801C4CEA113102D04042F7
:10876C0061EB410113F0004F4FEA03334CEA133332
:10877C0002D0524263EB430394EA050F00F0A7804A
:10878C00A4F10104D5F1200E0DDB02FA0EFC22FA45
:10879C0005F2801841F1000103FA0EF2801843FA39
:1087AC0005F359410EE0A5F120050EF1200E012A2A
:1087BC0003FA0EFC28BF4CF0020C43FA05F3C01868
:1087CC0051EBE37101F0004507D54FF0000EDCF1E1
:1087DC00000C7EEB00006EEB0101B1F5801F1BD38A
:1087EC00B1F5001F0CD349085FEA30004FEA3C0C8E
:1087FC0004F101044FEA445212F5800F80F09A8084
:10880C00BCF1004F08BF5FEA500C50F1000041EB87
:10881C00045141EA050130BD5FEA4C0C404141EB8B
:10882C000101013C28BFB1F5801FE9D291F0000F86
:10883C0004BF01460020B1FA81F308BF2033A3F135
:10884C000B03B3F120020CDA0C3208DD02F1140C2C
:10885C00C2F10C0201FA0CF021FA02F10CE002F167
:10886C001402D8BFC2F1200C01FA02F120FA0CFC60
:10887C00DCBF41EA0C019040E41AA2BF01EB0451A9
:10888C00294330BD6FEA04041F3C1CDA0C340EDCA7
:10889C0004F11404C4F1200220FA04F001FA02F3EA
:1088AC0040EA030021FA04F345EA030130BDC4F1A8
:1088BC000C04C4F1200220FA02F001FA04F340EA9D
:1088CC000300294630BD21FA04F0294630BD94F04E
:1088DC00000F83F4801306BF81F480110134013D35
:1088EC004EE77FEA645C18BF7FEA655C29D094EAA6
:1088FC00050F08BF90EA020F05D054EA000C04BF24
:10890C001946104630BD91EA030F1EBF002100200E
:10891C0030BD5FEA545C05D14000494128BF41F0AD
:10892C00004130BD14F580043CBF01F5801130BD11
:10893C0001F0004545F0FE4141F470014FF000009C
:10894C0030BD7FEA645C1ABF194610467FEA655C4D
:10895C001CBF0B46024650EA013406BF52EA0335EF
:10896C0091EA030F41F4002130BD00BF90F0000FDD
:10897C0004BF0021704730B54FF4806404F1320419
:10898C004FF000054FF0000150E700BF90F0000FD2
:10899C0004BF0021704730B54FF4806404F13204F9
:1089AC0010F0004548BF40424FF000013EE700BFC9
:1089BC0042004FEAE2014FEA31014FEA02701FBF59
:1089CC0012F07F4393F07F4F81F06051704732F08B
:1089DC007F4208BF704793F07F4F04BF41F40021E2
:1089EC00704730B54FF4607401F0004521F0004140
:1089FC001CE700BF50EA010208BF704730B54FF0CA
:108A0C0000050AE050EA010208BF704730B511F0CA
:108A1C00004502D5404261EB41014FF4806404F102
:108A2C0032045FEA915C3FF4D8AE4FF003025FEA88
:108A3C00DC0C18BF03325FEADC0C18BF033202EB0C
:108A4C00DC02C2F1200300FA03FC20FA02F001FA66
:108A5C0003FE40EA0E0021FA02F11444BDE600BF09
:108A6C00002301461A46184600F06AB9024B184416
:108A7C00407800F097007047AD9A0B000A44914281
:108A8C0000F1FF3300D1704710B511F8014B03F81A
:108A9C00014F9142F9D110BD884210B501EB02048F
:108AAC0002D98442234607D8431EA14208D011F8AC
:108ABC00012B03F8012FF8E7024401468A4200D14A
:108ACC0010BD13F8014D02F8014DF7E702440346BF
:108ADC00934200D1704703F8011BF9E738B5104BEE
:108AEC001D68AB6B0446B3B91820FDF77DFB02463D
:108AFC00A86320B90B4B0C484221FDF7BDFB0B4979
:108B0C000B4BC0E900130B4B83600B2383810021BB
:108B1C000120C2E90401AB6B00221C615A6138BD13
:108B2C001CB703203D9A0B00549A0B000E33CDABAF
:108B3C0034126DE6ECDE0500C9B2034610F8012BC9
:108B4C001AB18A42F9D118467047002918BF002380
:108B5C00F9E710B50446FFF7EFFF18B9204600F00F
:108B6C0032F8204410BD10F8012B11F8013B012AFA
:108B7C0028BF9A42F7D0D01A7047034611F8012B40
:108B8C0003F8012B002AF9D170470000024B014673
:108B9C00186800F003B800BF1CB7032037B50446B3
:108BAC0008460D4600F00FF8421C11462046019273
:108BBC00FDF752FB044618B1019A2946FFF75EFFF8
:108BCC00204603B030BD034613F8012B002AFBD11D
:108BDC00181A0138704710B57AB103460139841858
:108BEC0013F8010B11F8012F904201D1A34201D1CE
:108BFC00801A10BD0028F3D1FAE71046F9E738B512
:108C0C0003460C4669B9BDE83840FFF795BF431CD5
:108C1C00054621461846FFF78FFF0028F7D1284656
:108C2C0038BD0025F5E70000012B2DE9F04701D0F8
:108C3C00242B06D9FDF718FB162303600020BDE892
:108C4C00F087DFF8E4C00D462E4615F8014B14F8FA
:108C5C000C7017F00807F7D12D2C32D12C78012786
:108C6C00B51C002B5BD0102B09D1302C07D12C78E4
:108C7C0004F0DF04582C4DD16C781023023507F129
:108C8C00004808F1FF384FF0000CB8FBF3F96646CA
:108C9C0003FB198AA4F1300EBEF1090F16D87446E5
:108CAC00A34224DDBCF1000F1EDBB1451CD301D166
:108CBC00A24519DB06FB03464FF0010C15F8014BDE
:108CCC00E8E72B2C04BF2C78B51CCAE7A4F1410EA5
:108CDC00BEF1190F01D8373CE2E7A4F1610EBEF1E9
:108CEC00190F04D8573CDBE74FF0FF3CE6E7BCF12B
:108CFC00000F05DA22230360464642B930469EE750
:108D0C0007B17642002AF9D0BCF1000F00D0691EE1
:108D1C001160F3E73024002BB1D10823AFE7302CDE
:108D2C00A5D00A23ABE700BFAE9A0B0013460A4648
:108D3C00014602480068FFF777BF00BF1CB703204D
:108D4C002DE9F843DFF8B8800646D8F800001F4636
:108D5C000D46914600F056F8254B1C6834B9254C4D
:108D6C001C60254B13B11B68C4F8883063681F2B3B
:108D7C0007DDD8F8000000F047F84FF0FF30BDE8F1
:108D8C00F8834EB3D4F8880088B91C4B23B9D8F8B3
:108D9C00000000F038F8F0E74FF48470FDF724FA87
:108DAC000028F4D00023C0E94033C4F8880063687D
:108DBC0040F8239001229A4000EB8301D0F8003157
:108DCC001343C0F80031022EC1F8807002BFD0F8F6
:108DDC0004311343C0F804316368D8F800005A1CFE
:108DEC000233626044F8235000F00EF80020C6E70E
:108DFC00E8E703205CE7032000000000F5610B00AE
:108E0C0080B7032070477047704700001D400B006F
:108E1C0059400B0081400B0085400B000000000006
:108E2C0043616C6C206F6E20707572652076697270
:108E3C007475616C004F424A4543540074797065F7
:108E4C003D25732073746172743D256420656E64D6
:108E5C003D256420746F6B656E733D2564202D2059
:108E6C002573006E6F6465730074797065007072A1
:108E7C00696E74696E6720746F6B656E73004F75E5
:108E8C00746572206F626A656374207374617274A6
:108E9C003D256420656E643D256420746F6B656EA2
:108EAC00733D2564202D20257300546F74616C2054
:108EBC00746F6B656E733D2564202825342E3266E5
:108ECC0025252066756C6C292073746F726167653B
:108EDC003D2564202825342E326625252066756CA8
:108EEC006C2900754944004E6F64652044617461BF
:108EFC00626173652063757272656E746C79206340
:108F0C006F6E666967757265643A0052616E206FA8
:108F1C007574206F6620656E74726965732077694D
:108F2C0074682069203D202564006E6F64650070B4
:108F3C00656E6400636F6E74004E6F64653A202535
:108F4C00642C20756E6971756549443A20256C75E1
:108F5C002C20747970653A2025642C20703A2025D9
:108F6C00642C2070656E643A2025642C20636F6E2F
:108F7C00743A20256400466F756E64207468652011
:108F8C00756E6971756549442C206E6F6465206F30
:108F9C006620256400446964206E6F742066696ED7
:108FAC00642074686520756E6971756549442C2060
:108FBC006E6577206E6F6465206F662025640025D2
:108FCC006C75005374617274696E67207465737488
:108FDC007300466972737420546573742C20776522
:108FEC002077696C6C20636C6561722074686520F5
:108FFC004E6F646520446174616261736520616EBB
:10900C0064206C6F6164207468652073616D706C92
:10901C0065206461746120736574004E6F772074F1
:10902C0068617420746865206E6F64654461746156
:10903C006261736520697320656D7074792C20777B
:10904C00652077696C6C206C6F6164207468652096
:10905C0073616D706C65206461746120736574005C
:10906C007B226E6F646573223A5B097B226E6F64A0
:10907C0065223A312C22754944223A323631333446
:10908C0037303535392C2274797065223A312C20E1
:10909C002270223A302C202270656E64223A302CD9
:1090AC002022636F6E74223A317D2C097B226E6F05
:1090BC006465223A322C22754944223A32313231DB
:1090CC003336303334322C2274797065223A312C99
:1090DC00202270223A302C202270656E64223A30A5
:1090EC002C2022636F6E74223A327D2C097B226E07
:1090FC006F6465223A332C22754944223A3231315D
:10910C00333338313839312C2274797065223A3145
:10911C002C202270223A302C202270656E64223A68
:10912C00302C2022636F6E74223A337D2C097B2203
:10913C006E6F6465223A342C22754944223A3232DD
:10914C0032323039303132342C2274797065223A13
:10915C00312C202270223A302C202270656E642231
:10916C003A302C2022636F6E74223A347D2C097BAA
:10917C00226E6F6465223A352C22754944223A32AC
:10918C003833393633393631302C227479706522C4
:10919C003A312C202270223A302C202270656E64D9
:1091AC00223A302C2022636F6E74223A357D2C09C2
:1091BC007B226E6F6465223A362C22754944223A22
:1091CC0039353833393936322C2274797065223A74
:1091DC00312C202270223A302C202270656E6422B1
:1091EC003A302C2022636F6E74223A367D2C097B28
:1091FC00226E6F6465223A372C22754944223A3329
:10920C003831383637383334312C22747970652242
:10921C003A312C202270223A302C202270656E6458
:10922C00223A302C2022636F6E74223A377D2C093F
:10923C007B226E6F6465223A382C22754944223A9F
:10924C00323832343033393239392C2274797065F2
:10925C00223A312C202270223A302C202270656E5A
:10926C0064223A302C2022636F6E74223A387D2CA3
:10927C00097B226E6F6465223A392C22754944228F
:10928C003A323536313433353839322C22747970E0
:10929C0065223A312C202270223A302C2022706523
:1092AC006E64223A302C2022636F6E74223A397D20
:1092BC002C097B226E6F6465223A31302C22754961
:1092CC0044223A333633333933333530372C227426
:1092DC00797065223A312C202270223A302C2022CF
:1092EC0070656E64223A302C2022636F6E74223AC1
:1092FC0031307D2C097B226E6F6465223A31312C22
:10930C0022754944223A32363437373434343134C6
:10931C002C2274797065223A312C202270223A303A
:10932C002C202270656E64223A302C2022636F6EE2
:10933C0074223A31317D2C097B226E6F6465223A9E
:10934C0031322C22754944223A3336363235303399
:10935C003535342C2274797065223A312C202270E8
:10936C00223A302C202270656E64223A302C202256
:10937C00636F6E74223A31327D2C097B226E6F64DE
:10938C0065223A31332C22754944223A323538352C
:10939C003734363532352C2274797065223A312CBB
:1093AC00202270223A302C202270656E64223A30D2
:1093BC002C2022636F6E74223A31337D2C097B2270
:1093CC006E6F6465223A31342C22754944223A3648
:1093DC0036303231383131342C2274797065223A7E
:1093EC00312C202270223A302C202270656E64229F
:1093FC003A302C2022636F6E74223A31347D5D7DBD
:10940C00004E6578742C2077652077696C6C206C25
:10941C006F616420616E642073746F726520746870
:10942C0065206E6F64652064617461626173652090
:10943C00696E746F206D656D6F7279004E6F746517
:10944C002074686174206F7572204A534F4E206FE0
:10945C00626A65637420616C6C6F636174696F6EB2
:10946C002069732025342E32662525206F662074E2
:10947C006865206D656D6F727920616C6C6F6361CE
:10948C0074656420286C657373207468616E203178
:10949C0030302525206973204F4B290054686520F6
:1094AC006E6F646520737472696E672069733A20FD
:1094BC002573005061727365642053756363657323
:1094CC007366756C6C790050617273696E67206598
:1094DC0072726F720046696E616C6C792C207765C4
:1094EC002077696C6C206164642061206E65772044
:1094FC006E6F646520746F2074686520646174619C
:10950C006261736520616E64207072696E74207480
:10951C0068652064617461626173650054686520DC
:10952C006E6F6465206E756D6265722069733A208A
:10953C0025640046696E697368656420746573748C
:10954C00000000000000000000000000000000000F
:10955C0000000000A1400B00C9400B0000000000FF
:10956C00000000001D410B0051410B00457B0B001E
:10957C00CB400B000000000000000000D5400B00A9
:10958C00E9400B005C7525303458000000000000E9
:10959C0000000000A5480B00C1480B0000000000B3
:1095AC000000000025490B0049490B000000000099
:1095BC0000000000D5480B00E9480B00000000003B
:1095CC0000000000FD480B0011490B006E6F742069
:1095DC0076616C69640063757272656E7420646187
:1095EC007461206973202573006E6F646549442093
:1095FC006461746120697320257300252E2A730021
:10960C004E6F6465204461746162617365206265AC
:10961C00666F7265207365743A004E6F6465204402
:10962C006174616261736520616674657220736533
:10963C00743A007B226E6F646573223A5B5D7D0029
:10964C005265736574746967204E6F646549442074
:10965C00636F6E66696720746F3A202573004E6FD6
:10966C00646549442064617461206973206E6F776E
:10967C002025730045726173696E67204652414D17
:10968C0020726567696F6E00496E697469616C69F7
:10969C007A696E672064617461000000000000004C
:1096AC000000000099540B00AD540B0099580B00AE
:1096BC002F590B00B1590B000000000000000000F6
:1096CC0005560B0023550B00FB540B00675A0B007F
:1096DC008F5A0B00C1540B00D9570B0075550B005A
:1096EC0089550B00000000000000000059580B00C9
:1096FC005B580B0099580B002F590B00B1590B00FC
:10970C0076616C69646174696E6720646174612050
:10971C0073697A653D256400676F743A206D6167E3
:10972C0069633D253038782076657273696F6E3DBC
:10973C00253034782073697A653D2530347820687B
:10974C006173683D25303878006578703A206D611A
:10975C006769633D253038782076657273696F6E62
:10976C003D253034782073697A653D253034782076
:10977C00686173683D2530387800736176696E676F
:10978C0020646174612073697A653D256400000072
:10979C000000000000000000615A0B00F95A0B0099
:1097AC00815D0B00675A0B008F5A0B007D5C0B0020
:1097BC00555D0B000000000000000000C3630B00AF
:1097CC00B9630B00AF630B0065630B00A3630B0065
:1097DC0097630B009D7E0B00A57E0B008B630B002B
:1097EC0083630B0079630B006F630B00D57E0B005A
:1097FC000000000000000000FD630B0003640B0080
:10980C0041640B0011640B00FF630B0000000000AF
:10981C00000000008B690B0081690B0077690B005D
:10982C006D690B0061690B0055690B009D7E0B0087
:10983C00A57E0B0049690B0041690B0037690B00D1
:10984C002D690B00D57E0B0000000000000000000D
:10985C00A9690B00F3690B00CB690B00AB690B001A
:10986C00D3690B00DB690B00E3690B00EB690B00A0
:10987C000000000000000000E56A0B00D56A0B0038
:10988C00D76A0B0025750075253034780062617538
:10989C00640053657269616C0053657269616C3167
:1098AC00004A534F4E53747265616D4C6F6748613B
:1098BC006E646C65720061707000253031307520FB
:1098CC00005D20002C200028293A2000205B00633A
:1098DC006F6465203D200025690064657461696CC6
:1098EC0073203D20000D0A006D0066006C6E006652
:1098FC006E00636F64650064657461696C000000E0
:10990C000000000000000000916F0B00B76F0B000F
:10991C00756F0B00F36B0B000000000000000000E3
:10992C00ED730B0005740B00457B0B00CB400B005B
:10993C00000000000000000019740B002D740B00D7
:10994C00E97C0B007D6F0B000000000000000000A4
:10995C008F6F0B00C56F0B00A97A0B007F6F0B008C
:10996C0000000000000000008D6F0B00D36F0B0097
:10997C0055730B00F56F0B00000000000000000099
:10998C005D7E0B00677E0B00717E0B007B7E0B00F7
:10999C00857E0B00917E0B009D7E0B00A57E0B003F
:1099AC00AD7E0B00B97E0B00C17E0B00CB7E0B0095
:1099BC00D57E0B0025592D256D2D25645425483A4F
:1099CC00254D3A2553257A0061736374696D6500E2
:1099DC000000000000000000E5820B0051830B002A
:1099EC0029830B00C17F0B00F9820B0015830B0040
:1099FC0007830B0023830B00E7820B00EB820B0029
:109A0C000000000000000000A3830B000B840B007F
:109A1C00E1830B00C17F0B00D3830B00A5830B00EC
:109A2C00B5830B0005840B00C5830B009D830B00D5
:109A3C00005245454E54206D616C6C6F63207375FC
:109A4C0063636565646564002F746D702F6A656E61
:109A5C006B696E732D4743432D31302D70697065E2
:109A6C006C696E652D34385F3230323031313234BE
:109A7C005F313630363138303633392F7372632FCD
:109A8C006E65776C69622F6E65776C69622F6C6995
:109A9C0062632F7374646C69622F72616E642E63DF
:109AAC0000002020202020202020202828282828C2
:109ABC00202020202020202020202020202020209A
:109ACC0020208810101010101010101010101010F2
